{
  "address": "0x751D26B751244d8B237a0C9Fb600C0baE8AeA86E",
  "abi": [
    {
      "inputs": [
        {
          "internalType": "bytes32",
          "name": "merkleRootGroup1_",
          "type": "bytes32"
        },
        {
          "internalType": "bytes32",
          "name": "merkleRootGroup2_",
          "type": "bytes32"
        },
        {
          "internalType": "address",
          "name": "initialOwner",
          "type": "address"
        }
      ],
      "stateMutability": "nonpayable",
      "type": "constructor"
    },
    {
      "inputs": [
        {
          "internalType": "address",
          "name": "sender",
          "type": "address"
        },
        {
          "internalType": "uint256",
          "name": "tokenId",
          "type": "uint256"
        },
        {
          "internalType": "address",
          "name": "owner",
          "type": "address"
        }
      ],
      "name": "ERC721IncorrectOwner",
      "type": "error"
    },
    {
      "inputs": [
        {
          "internalType": "address",
          "name": "operator",
          "type": "address"
        },
        {
          "internalType": "uint256",
          "name": "tokenId",
          "type": "uint256"
        }
      ],
      "name": "ERC721InsufficientApproval",
      "type": "error"
    },
    {
      "inputs": [
        {
          "internalType": "address",
          "name": "approver",
          "type": "address"
        }
      ],
      "name": "ERC721InvalidApprover",
      "type": "error"
    },
    {
      "inputs": [
        {
          "internalType": "address",
          "name": "operator",
          "type": "address"
        }
      ],
      "name": "ERC721InvalidOperator",
      "type": "error"
    },
    {
      "inputs": [
        {
          "internalType": "address",
          "name": "owner",
          "type": "address"
        }
      ],
      "name": "ERC721InvalidOwner",
      "type": "error"
    },
    {
      "inputs": [
        {
          "internalType": "address",
          "name": "receiver",
          "type": "address"
        }
      ],
      "name": "ERC721InvalidReceiver",
      "type": "error"
    },
    {
      "inputs": [
        {
          "internalType": "address",
          "name": "sender",
          "type": "address"
        }
      ],
      "name": "ERC721InvalidSender",
      "type": "error"
    },
    {
      "inputs": [
        {
          "internalType": "uint256",
          "name": "tokenId",
          "type": "uint256"
        }
      ],
      "name": "ERC721NonexistentToken",
      "type": "error"
    },
    {
      "inputs": [
        {
          "internalType": "address",
          "name": "owner",
          "type": "address"
        }
      ],
      "name": "OwnableInvalidOwner",
      "type": "error"
    },
    {
      "inputs": [
        {
          "internalType": "address",
          "name": "account",
          "type": "address"
        }
      ],
      "name": "OwnableUnauthorizedAccount",
      "type": "error"
    },
    {
      "inputs": [],
      "name": "ReentrancyGuardReentrantCall",
      "type": "error"
    },
    {
      "anonymous": false,
      "inputs": [
        {
          "indexed": true,
          "internalType": "address",
          "name": "owner",
          "type": "address"
        },
        {
          "indexed": true,
          "internalType": "address",
          "name": "approved",
          "type": "address"
        },
        {
          "indexed": true,
          "internalType": "uint256",
          "name": "tokenId",
          "type": "uint256"
        }
      ],
      "name": "Approval",
      "type": "event"
    },
    {
      "anonymous": false,
      "inputs": [
        {
          "indexed": true,
          "internalType": "address",
          "name": "owner",
          "type": "address"
        },
        {
          "indexed": true,
          "internalType": "address",
          "name": "operator",
          "type": "address"
        },
        {
          "indexed": false,
          "internalType": "bool",
          "name": "approved",
          "type": "bool"
        }
      ],
      "name": "ApprovalForAll",
      "type": "event"
    },
    {
      "anonymous": false,
      "inputs": [
        {
          "indexed": false,
          "internalType": "string",
          "name": "newBaseURI",
          "type": "string"
        },
        {
          "indexed": false,
          "internalType": "address",
          "name": "updatedBy",
          "type": "address"
        }
      ],
      "name": "BaseURIUpdated",
      "type": "event"
    },
    {
      "anonymous": false,
      "inputs": [
        {
          "indexed": false,
          "internalType": "string",
          "name": "newBaseURI",
          "type": "string"
        }
      ],
      "name": "CollectionRevealed",
      "type": "event"
    },
    {
      "anonymous": false,
      "inputs": [
        {
          "indexed": false,
          "internalType": "address",
          "name": "sender",
          "type": "address"
        },
        {
          "indexed": false,
          "internalType": "uint256",
          "name": "amount",
          "type": "uint256"
        }
      ],
      "name": "EtherReceived",
      "type": "event"
    },
    {
      "anonymous": false,
      "inputs": [
        {
          "indexed": true,
          "internalType": "address",
          "name": "to",
          "type": "address"
        },
        {
          "indexed": false,
          "internalType": "uint256",
          "name": "tokenId",
          "type": "uint256"
        }
      ],
      "name": "OwnerMinted",
      "type": "event"
    },
    {
      "anonymous": false,
      "inputs": [
        {
          "indexed": true,
          "internalType": "address",
          "name": "to",
          "type": "address"
        },
        {
          "indexed": false,
          "internalType": "uint256",
          "name": "tokenId",
          "type": "uint256"
        }
      ],
      "name": "OwnerMintedToFriends",
      "type": "event"
    },
    {
      "anonymous": false,
      "inputs": [
        {
          "indexed": true,
          "internalType": "address",
          "name": "previousOwner",
          "type": "address"
        },
        {
          "indexed": true,
          "internalType": "address",
          "name": "newOwner",
          "type": "address"
        }
      ],
      "name": "OwnershipTransferred",
      "type": "event"
    },
    {
      "anonymous": false,
      "inputs": [
        {
          "indexed": true,
          "internalType": "address",
          "name": "to",
          "type": "address"
        },
        {
          "indexed": false,
          "internalType": "uint256",
          "name": "tokenId",
          "type": "uint256"
        }
      ],
      "name": "PublicMinted",
      "type": "event"
    },
    {
      "anonymous": false,
      "inputs": [
        {
          "indexed": true,
          "internalType": "address",
          "name": "from",
          "type": "address"
        },
        {
          "indexed": true,
          "internalType": "address",
          "name": "to",
          "type": "address"
        },
        {
          "indexed": true,
          "internalType": "uint256",
          "name": "tokenId",
          "type": "uint256"
        }
      ],
      "name": "Transfer",
      "type": "event"
    },
    {
      "anonymous": false,
      "inputs": [
        {
          "indexed": true,
          "internalType": "address",
          "name": "to",
          "type": "address"
        },
        {
          "indexed": false,
          "internalType": "uint256",
          "name": "tokenId",
          "type": "uint256"
        }
      ],
      "name": "WhitelistMinted",
      "type": "event"
    },
    {
      "anonymous": false,
      "inputs": [
        {
          "indexed": false,
          "internalType": "uint256",
          "name": "amount",
          "type": "uint256"
        },
        {
          "indexed": false,
          "internalType": "address",
          "name": "withdrawnTo",
          "type": "address"
        }
      ],
      "name": "Withdrawn",
      "type": "event"
    },
    {
      "stateMutability": "payable",
      "type": "fallback"
    },
    {
      "inputs": [],
      "name": "MAX_PUBLIC_MINT",
      "outputs": [
        {
          "internalType": "uint256",
          "name": "",
          "type": "uint256"
        }
      ],
      "stateMutability": "view",
      "type": "function"
    },
    {
      "inputs": [],
      "name": "MAX_SUPPLY",
      "outputs": [
        {
          "internalType": "uint256",
          "name": "",
          "type": "uint256"
        }
      ],
      "stateMutability": "view",
      "type": "function"
    },
    {
      "inputs": [],
      "name": "MAX_WHITELIST_MINT",
      "outputs": [
        {
          "internalType": "uint256",
          "name": "",
          "type": "uint256"
        }
      ],
      "stateMutability": "view",
      "type": "function"
    },
    {
      "inputs": [],
      "name": "WHITELIST_SALE_SUPPLY",
      "outputs": [
        {
          "internalType": "uint256",
          "name": "",
          "type": "uint256"
        }
      ],
      "stateMutability": "view",
      "type": "function"
    },
    {
      "inputs": [
        {
          "internalType": "address",
          "name": "to",
          "type": "address"
        },
        {
          "internalType": "uint256",
          "name": "tokenId",
          "type": "uint256"
        }
      ],
      "name": "approve",
      "outputs": [],
      "stateMutability": "nonpayable",
      "type": "function"
    },
    {
      "inputs": [
        {
          "internalType": "address",
          "name": "owner",
          "type": "address"
        }
      ],
      "name": "balanceOf",
      "outputs": [
        {
          "internalType": "uint256",
          "name": "",
          "type": "uint256"
        }
      ],
      "stateMutability": "view",
      "type": "function"
    },
    {
      "inputs": [
        {
          "internalType": "bytes32[]",
          "name": "_merkleProof",
          "type": "bytes32[]"
        }
      ],
      "name": "checkIsWhitelisted",
      "outputs": [
        {
          "internalType": "bool",
          "name": "",
          "type": "bool"
        }
      ],
      "stateMutability": "view",
      "type": "function"
    },
    {
      "inputs": [
        {
          "internalType": "uint256",
          "name": "tokenId",
          "type": "uint256"
        }
      ],
      "name": "getApproved",
      "outputs": [
        {
          "internalType": "address",
          "name": "",
          "type": "address"
        }
      ],
      "stateMutability": "view",
      "type": "function"
    },
    {
      "inputs": [],
      "name": "getBaseURI",
      "outputs": [
        {
          "internalType": "string",
          "name": "",
          "type": "string"
        }
      ],
      "stateMutability": "view",
      "type": "function"
    },
    {
      "inputs": [
        {
          "internalType": "address",
          "name": "owner",
          "type": "address"
        },
        {
          "internalType": "address",
          "name": "operator",
          "type": "address"
        }
      ],
      "name": "isApprovedForAll",
      "outputs": [
        {
          "internalType": "bool",
          "name": "",
          "type": "bool"
        }
      ],
      "stateMutability": "view",
      "type": "function"
    },
    {
      "inputs": [],
      "name": "isPaused",
      "outputs": [
        {
          "internalType": "bool",
          "name": "",
          "type": "bool"
        }
      ],
      "stateMutability": "view",
      "type": "function"
    },
    {
      "inputs": [],
      "name": "merkleRootGroup1",
      "outputs": [
        {
          "internalType": "bytes32",
          "name": "",
          "type": "bytes32"
        }
      ],
      "stateMutability": "view",
      "type": "function"
    },
    {
      "inputs": [],
      "name": "merkleRootGroup2",
      "outputs": [
        {
          "internalType": "bytes32",
          "name": "",
          "type": "bytes32"
        }
      ],
      "stateMutability": "view",
      "type": "function"
    },
    {
      "inputs": [],
      "name": "mintPrice",
      "outputs": [
        {
          "internalType": "uint256",
          "name": "",
          "type": "uint256"
        }
      ],
      "stateMutability": "view",
      "type": "function"
    },
    {
      "inputs": [],
      "name": "name",
      "outputs": [
        {
          "internalType": "string",
          "name": "",
          "type": "string"
        }
      ],
      "stateMutability": "view",
      "type": "function"
    },
    {
      "inputs": [],
      "name": "owner",
      "outputs": [
        {
          "internalType": "address",
          "name": "",
          "type": "address"
        }
      ],
      "stateMutability": "view",
      "type": "function"
    },
    {
      "inputs": [
        {
          "internalType": "address",
          "name": "to",
          "type": "address"
        },
        {
          "internalType": "uint256",
          "name": "numTokens",
          "type": "uint256"
        }
      ],
      "name": "ownerMint",
      "outputs": [],
      "stateMutability": "nonpayable",
      "type": "function"
    },
    {
      "inputs": [
        {
          "internalType": "address[]",
          "name": "toAddresses",
          "type": "address[]"
        }
      ],
      "name": "ownerMintToFriends",
      "outputs": [],
      "stateMutability": "nonpayable",
      "type": "function"
    },
    {
      "inputs": [
        {
          "internalType": "uint256",
          "name": "tokenId",
          "type": "uint256"
        }
      ],
      "name": "ownerOf",
      "outputs": [
        {
          "internalType": "address",
          "name": "",
          "type": "address"
        }
      ],
      "stateMutability": "view",
      "type": "function"
    },
    {
      "inputs": [],
      "name": "pause",
      "outputs": [],
      "stateMutability": "nonpayable",
      "type": "function"
    },
    {
      "inputs": [
        {
          "internalType": "uint256",
          "name": "numTokens",
          "type": "uint256"
        }
      ],
      "name": "publicMint",
      "outputs": [],
      "stateMutability": "payable",
      "type": "function"
    },
    {
      "inputs": [
        {
          "internalType": "address",
          "name": "",
          "type": "address"
        }
      ],
      "name": "publicMintedCount",
      "outputs": [
        {
          "internalType": "uint256",
          "name": "",
          "type": "uint256"
        }
      ],
      "stateMutability": "view",
      "type": "function"
    },
    {
      "inputs": [],
      "name": "publicOpen",
      "outputs": [
        {
          "internalType": "bool",
          "name": "",
          "type": "bool"
        }
      ],
      "stateMutability": "view",
      "type": "function"
    },
    {
      "inputs": [],
      "name": "renounceOwnership",
      "outputs": [],
      "stateMutability": "nonpayable",
      "type": "function"
    },
    {
      "inputs": [
        {
          "internalType": "string",
          "name": "_newBaseURI",
          "type": "string"
        }
      ],
      "name": "reveal",
      "outputs": [],
      "stateMutability": "nonpayable",
      "type": "function"
    },
    {
      "inputs": [],
      "name": "revealed",
      "outputs": [
        {
          "internalType": "bool",
          "name": "",
          "type": "bool"
        }
      ],
      "stateMutability": "view",
      "type": "function"
    },
    {
      "inputs": [
        {
          "internalType": "address",
          "name": "from",
          "type": "address"
        },
        {
          "internalType": "address",
          "name": "to",
          "type": "address"
        },
        {
          "internalType": "uint256",
          "name": "tokenId",
          "type": "uint256"
        }
      ],
      "name": "safeTransferFrom",
      "outputs": [],
      "stateMutability": "nonpayable",
      "type": "function"
    },
    {
      "inputs": [
        {
          "internalType": "address",
          "name": "from",
          "type": "address"
        },
        {
          "internalType": "address",
          "name": "to",
          "type": "address"
        },
        {
          "internalType": "uint256",
          "name": "tokenId",
          "type": "uint256"
        },
        {
          "internalType": "bytes",
          "name": "data",
          "type": "bytes"
        }
      ],
      "name": "safeTransferFrom",
      "outputs": [],
      "stateMutability": "nonpayable",
      "type": "function"
    },
    {
      "inputs": [
        {
          "internalType": "address",
          "name": "operator",
          "type": "address"
        },
        {
          "internalType": "bool",
          "name": "approved",
          "type": "bool"
        }
      ],
      "name": "setApprovalForAll",
      "outputs": [],
      "stateMutability": "nonpayable",
      "type": "function"
    },
    {
      "inputs": [
        {
          "internalType": "string",
          "name": "newBaseURI",
          "type": "string"
        }
      ],
      "name": "setBaseURI",
      "outputs": [],
      "stateMutability": "nonpayable",
      "type": "function"
    },
    {
      "inputs": [
        {
          "internalType": "bytes32",
          "name": "newMerkleRoot",
          "type": "bytes32"
        }
      ],
      "name": "setMerkleRootGroup1",
      "outputs": [],
      "stateMutability": "nonpayable",
      "type": "function"
    },
    {
      "inputs": [
        {
          "internalType": "bytes32",
          "name": "newMerkleRoot",
          "type": "bytes32"
        }
      ],
      "name": "setMerkleRootGroup2",
      "outputs": [],
      "stateMutability": "nonpayable",
      "type": "function"
    },
    {
      "inputs": [
        {
          "internalType": "uint256",
          "name": "newMintPrice",
          "type": "uint256"
        }
      ],
      "name": "setMintPrice",
      "outputs": [],
      "stateMutability": "nonpayable",
      "type": "function"
    },
    {
      "inputs": [
        {
          "internalType": "uint256",
          "name": "newWhitelistMintPrice",
          "type": "uint256"
        }
      ],
      "name": "setWhitelistMintPrice",
      "outputs": [],
      "stateMutability": "nonpayable",
      "type": "function"
    },
    {
      "inputs": [
        {
          "internalType": "uint256",
          "name": "newMaxWhitelistSupply",
          "type": "uint256"
        }
      ],
      "name": "setWhitelistSupply",
      "outputs": [],
      "stateMutability": "nonpayable",
      "type": "function"
    },
    {
      "inputs": [],
      "name": "startPublicSale",
      "outputs": [],
      "stateMutability": "nonpayable",
      "type": "function"
    },
    {
      "inputs": [],
      "name": "startWhitelistSale",
      "outputs": [],
      "stateMutability": "nonpayable",
      "type": "function"
    },
    {
      "inputs": [],
      "name": "stopPublicSale",
      "outputs": [],
      "stateMutability": "nonpayable",
      "type": "function"
    },
    {
      "inputs": [],
      "name": "stopWhitelistSale",
      "outputs": [],
      "stateMutability": "nonpayable",
      "type": "function"
    },
    {
      "inputs": [
        {
          "internalType": "bytes4",
          "name": "interfaceId",
          "type": "bytes4"
        }
      ],
      "name": "supportsInterface",
      "outputs": [
        {
          "internalType": "bool",
          "name": "",
          "type": "bool"
        }
      ],
      "stateMutability": "view",
      "type": "function"
    },
    {
      "inputs": [],
      "name": "symbol",
      "outputs": [
        {
          "internalType": "string",
          "name": "",
          "type": "string"
        }
      ],
      "stateMutability": "view",
      "type": "function"
    },
    {
      "inputs": [
        {
          "internalType": "uint256",
          "name": "tokenId",
          "type": "uint256"
        }
      ],
      "name": "tokenURI",
      "outputs": [
        {
          "internalType": "string",
          "name": "",
          "type": "string"
        }
      ],
      "stateMutability": "view",
      "type": "function"
    },
    {
      "inputs": [],
      "name": "totalMinted",
      "outputs": [
        {
          "internalType": "uint256",
          "name": "",
          "type": "uint256"
        }
      ],
      "stateMutability": "view",
      "type": "function"
    },
    {
      "inputs": [
        {
          "internalType": "address",
          "name": "from",
          "type": "address"
        },
        {
          "internalType": "address",
          "name": "to",
          "type": "address"
        },
        {
          "internalType": "uint256",
          "name": "tokenId",
          "type": "uint256"
        }
      ],
      "name": "transferFrom",
      "outputs": [],
      "stateMutability": "nonpayable",
      "type": "function"
    },
    {
      "inputs": [
        {
          "internalType": "address",
          "name": "newOwner",
          "type": "address"
        }
      ],
      "name": "transferOwnership",
      "outputs": [],
      "stateMutability": "nonpayable",
      "type": "function"
    },
    {
      "inputs": [],
      "name": "unpause",
      "outputs": [],
      "stateMutability": "nonpayable",
      "type": "function"
    },
    {
      "inputs": [
        {
          "internalType": "bytes32[]",
          "name": "_merkleProof",
          "type": "bytes32[]"
        },
        {
          "internalType": "uint256",
          "name": "numTokens",
          "type": "uint256"
        },
        {
          "internalType": "uint256",
          "name": "group",
          "type": "uint256"
        }
      ],
      "name": "whitelistMint",
      "outputs": [],
      "stateMutability": "payable",
      "type": "function"
    },
    {
      "inputs": [],
      "name": "whitelistOpen",
      "outputs": [
        {
          "internalType": "bool",
          "name": "",
          "type": "bool"
        }
      ],
      "stateMutability": "view",
      "type": "function"
    },
    {
      "inputs": [
        {
          "internalType": "address payable",
          "name": "withdrawalAddress",
          "type": "address"
        },
        {
          "internalType": "uint256",
          "name": "amount",
          "type": "uint256"
        }
      ],
      "name": "withdraw",
      "outputs": [],
      "stateMutability": "nonpayable",
      "type": "function"
    },
    {
      "inputs": [],
      "name": "wlFirstMintPrice",
      "outputs": [
        {
          "internalType": "uint256",
          "name": "",
          "type": "uint256"
        }
      ],
      "stateMutability": "view",
      "type": "function"
    },
    {
      "inputs": [
        {
          "internalType": "address",
          "name": "",
          "type": "address"
        }
      ],
      "name": "wlMintedCount",
      "outputs": [
        {
          "internalType": "uint256",
          "name": "",
          "type": "uint256"
        }
      ],
      "stateMutability": "view",
      "type": "function"
    },
    {
      "stateMutability": "payable",
      "type": "receive"
    }
  ],
  "transactionHash": "0x656a5168b427c4ade2f3687fb538d21fcbe35fcd8c44d451e1b1982724378c02",
  "args": [
    "0x1fc087266e1fbfa704b4c6396539853f62b5cf94d78536be860fe54091713f85",
    "0xf0b3801a1a0e9b118ff13a53681727a2fdeaa4ffb5b017f92dfbd8043045f3e8",
    "0xc8fB0913A8E36487710F838a08D4E66367D07924"
  ],
  "numDeployments": 1,
  "solcInputHash": "b5e719e33f8b02de0e2c695e9f508e54",
  "bytecode": "0x60806040526618838370f34000600e556658d15e17628000600f556103e76010556103e760115560006012556000601360006101000a81548160ff0219169083151502179055506000601360016101000a81548160ff0219169083151502179055506000601360026101000a81548160ff0219169083151502179055506000601360036101000a81548160ff021916908315150217905550348015620000a457600080fd5b5060405162005a3a38038062005a3a8339818101604052810190620000ca9190620004b5565b806040518060400160405280600881526020017f4368696d6b656e730000000000000000000000000000000000000000000000008152506040518060400160405280600481526020017f4348494d0000000000000000000000000000000000000000000000000000000081525081600090816200014891906200078b565b5080600190816200015a91906200078b565b505050600073ffffffffffffffffffffffffffffffffffffffff168173ffffffffffffffffffffffffffffffffffffffff1603620001d25760006040517f1e4fbdf7000000000000000000000000000000000000000000000000000000008152600401620001c9919062000883565b60405180910390fd5b620001e3816200024260201b60201c565b50600160078190555060405180606001604052806035815260200162005a0560359139600d90816200021691906200078b565b5062000228836200030860201b60201c565b62000239826200032260201b60201c565b505050620008a0565b6000600660009054906101000a900473ffffffffffffffffffffffffffffffffffffffff16905081600660006101000a81548173ffffffffffffffffffffffffffffffffffffffff021916908373ffffffffffffffffffffffffffffffffffffffff1602179055508173ffffffffffffffffffffffffffffffffffffffff168173ffffffffffffffffffffffffffffffffffffffff167f8be0079c531659141344cd1fd0a4f28419497f9722a3daafe3b4186f6b6457e060405160405180910390a35050565b620003186200033c60201b60201c565b8060088190555050565b620003326200033c60201b60201c565b8060098190555050565b6200034c620003de60201b60201c565b73ffffffffffffffffffffffffffffffffffffffff1662000372620003e660201b60201c565b73ffffffffffffffffffffffffffffffffffffffff1614620003dc576200039e620003de60201b60201c565b6040517f118cdaa7000000000000000000000000000000000000000000000000000000008152600401620003d3919062000883565b60405180910390fd5b565b600033905090565b6000600660009054906101000a900473ffffffffffffffffffffffffffffffffffffffff16905090565b600080fd5b6000819050919050565b6200042a8162000415565b81146200043657600080fd5b50565b6000815190506200044a816200041f565b92915050565b600073ffffffffffffffffffffffffffffffffffffffff82169050919050565b60006200047d8262000450565b9050919050565b6200048f8162000470565b81146200049b57600080fd5b50565b600081519050620004af8162000484565b92915050565b600080600060608486031215620004d157620004d062000410565b5b6000620004e18682870162000439565b9350506020620004f48682870162000439565b925050604062000507868287016200049e565b9150509250925092565b600081519050919050565b7f4e487b7100000000000000000000000000000000000000000000000000000000600052604160045260246000fd5b7f4e487b7100000000000000000000000000000000000000000000000000000000600052602260045260246000fd5b600060028204905060018216806200059357607f821691505b602082108103620005a957620005a86200054b565b5b50919050565b60008190508160005260206000209050919050565b60006020601f8301049050919050565b600082821b905092915050565b600060088302620006137fffffffffffffffffffffffffffffffffffffffffffffffffffffffffffffffff82620005d4565b6200061f8683620005d4565b95508019841693508086168417925050509392505050565b6000819050919050565b6000819050919050565b60006200066c62000666620006608462000637565b62000641565b62000637565b9050919050565b6000819050919050565b62000688836200064b565b620006a0620006978262000673565b848454620005e1565b825550505050565b600090565b620006b7620006a8565b620006c48184846200067d565b505050565b5b81811015620006ec57620006e0600082620006ad565b600181019050620006ca565b5050565b601f8211156200073b576200070581620005af565b6200071084620005c4565b8101602085101562000720578190505b620007386200072f85620005c4565b830182620006c9565b50505b505050565b600082821c905092915050565b6000620007606000198460080262000740565b1980831691505092915050565b60006200077b83836200074d565b9150826002028217905092915050565b620007968262000511565b67ffffffffffffffff811115620007b257620007b16200051c565b5b620007be82546200057a565b620007cb828285620006f0565b600060209050601f831160018114620008035760008415620007ee578287015190505b620007fa85826200076d565b8655506200086a565b601f1984166200081386620005af565b60005b828110156200083d5784890151825560018201915060208501945060208101905062000816565b868310156200085d578489015162000859601f8916826200074d565b8355505b6001600288020188555050505b505050505050565b6200087d8162000470565b82525050565b60006020820190506200089a600083018462000872565b92915050565b61515580620008b06000396000f3fe6080604052600436106102e85760003560e01c806368e076b411610190578063a611708e116100dc578063da1b91c311610095578063f3fef3a31161006f578063f3fef3a314610b47578063f4a0a52814610b70578063fb19549014610b99578063ff44e91514610bb557610328565b8063da1b91c314610aca578063e985e9c514610ae1578063f2fde38b14610b1e57610328565b8063a611708e146109ba578063b187bd26146109e3578063b88d4fde14610a0e578063ba70c51514610a37578063c08dfd3c14610a62578063c87b56dd14610a8d57610328565b80638456cb591161014957806395d89b411161012357806395d89b4114610912578063a1e57ac11461093d578063a22cb46514610966578063a2309ff81461098f57610328565b80638456cb59146108a55780638da5cb5b146108bc5780638f0f1a6c146108e757610328565b806368e076b4146107a55780636e477330146107d057806370a08231146107fb578063714c539814610838578063715018a6146108635780637db3aecc1461087a57610328565b806334c489431161024f57806351830227116102085780636352211e116101e25780636352211e146106d5578063646318831461071257806365f130971461074f5780636817c76c1461077a57610328565b8063518302271461065857806355a63bf41461068357806355f804b3146106ac57610328565b806334c489431461054c5780633f4ba83a1461058957806342842e0e146105a0578063484b973c146105c957806348571b35146105f25780634c2612471461062f57610328565b80630d16d741116102a15780630d16d7411461045f5780630f2de7561461048a5780631eb38c43146104b357806323b872dd146104dc5780632db115441461050557806332cb6b0c1461052157610328565b806301ffc9a7146103635780630474b696146103a057806306fdde03146103b7578063081812fc146103e2578063095ea7b31461041f5780630c1c972a1461044857610328565b36610328577f1e57e3bb474320be3d2c77138f75b7c3941292d647f5f9634e33a8e94e0e069b333460405161031e929190613619565b60405180910390a1005b7f1e57e3bb474320be3d2c77138f75b7c3941292d647f5f9634e33a8e94e0e069b3334604051610359929190613619565b60405180910390a1005b34801561036f57600080fd5b5061038a600480360381019061038591906136ae565b610bcc565b60405161039791906136f6565b60405180910390f35b3480156103ac57600080fd5b506103b5610cae565b005b3480156103c357600080fd5b506103cc610cd3565b6040516103d991906137a1565b60405180910390f35b3480156103ee57600080fd5b50610409600480360381019061040491906137ef565b610d65565b604051610416919061381c565b60405180910390f35b34801561042b57600080fd5b5061044660048036038101906104419190613863565b610d81565b005b34801561045457600080fd5b5061045d610d97565b005b34801561046b57600080fd5b50610474610dbc565b60405161048191906138bc565b60405180910390f35b34801561049657600080fd5b506104b160048036038101906104ac9190613903565b610dc2565b005b3480156104bf57600080fd5b506104da60048036038101906104d59190613903565b610dd6565b005b3480156104e857600080fd5b5061050360048036038101906104fe9190613930565b610dea565b005b61051f600480360381019061051a91906137ef565b610eec565b005b34801561052d57600080fd5b506105366111b6565b6040516105439190613983565b60405180910390f35b34801561055857600080fd5b50610573600480360381019061056e919061399e565b6111bc565b6040516105809190613983565b60405180910390f35b34801561059557600080fd5b5061059e6111d4565b005b3480156105ac57600080fd5b506105c760048036038101906105c29190613930565b6111f9565b005b3480156105d557600080fd5b506105f060048036038101906105eb9190613863565b611219565b005b3480156105fe57600080fd5b5061061960048036038101906106149190613a30565b61135a565b60405161062691906136f6565b60405180910390f35b34801561063b57600080fd5b5061065660048036038101906106519190613bad565b61144c565b005b34801561066457600080fd5b5061066d6114b9565b60405161067a91906136f6565b60405180910390f35b34801561068f57600080fd5b506106aa60048036038101906106a591906137ef565b6114cc565b005b3480156106b857600080fd5b506106d360048036038101906106ce9190613bad565b611568565b005b3480156106e157600080fd5b506106fc60048036038101906106f791906137ef565b6115bc565b604051610709919061381c565b60405180910390f35b34801561071e57600080fd5b506107396004803603810190610734919061399e565b6115ce565b6040516107469190613983565b60405180910390f35b34801561075b57600080fd5b506107646115e6565b6040516107719190613983565b60405180910390f35b34801561078657600080fd5b5061078f6115eb565b60405161079c9190613983565b60405180910390f35b3480156107b157600080fd5b506107ba6115f1565b6040516107c79190613983565b60405180910390f35b3480156107dc57600080fd5b506107e56115f7565b6040516107f291906138bc565b60405180910390f35b34801561080757600080fd5b50610822600480360381019061081d919061399e565b6115fd565b60405161082f9190613983565b60405180910390f35b34801561084457600080fd5b5061084d6116b7565b60405161085a91906137a1565b60405180910390f35b34801561086f57600080fd5b50610878611751565b005b34801561088657600080fd5b5061088f611765565b60405161089c91906136f6565b60405180910390f35b3480156108b157600080fd5b506108ba611778565b005b3480156108c857600080fd5b506108d161179d565b6040516108de919061381c565b60405180910390f35b3480156108f357600080fd5b506108fc6117c7565b6040516109099190613983565b60405180910390f35b34801561091e57600080fd5b506109276117cd565b60405161093491906137a1565b60405180910390f35b34801561094957600080fd5b50610964600480360381019061095f9190613c4c565b61185f565b005b34801561097257600080fd5b5061098d60048036038101906109889190613cc5565b6119dd565b005b34801561099b57600080fd5b506109a46119f3565b6040516109b19190613983565b60405180910390f35b3480156109c657600080fd5b506109e160048036038101906109dc91906137ef565b6119f9565b005b3480156109ef57600080fd5b506109f8611a0b565b604051610a0591906136f6565b60405180910390f35b348015610a1a57600080fd5b50610a356004803603810190610a309190613da6565b611a1e565b005b348015610a4357600080fd5b50610a4c611a3b565b604051610a5991906136f6565b60405180910390f35b348015610a6e57600080fd5b50610a77611a4e565b604051610a849190613983565b60405180910390f35b348015610a9957600080fd5b50610ab46004803603810190610aaf91906137ef565b611a53565b604051610ac191906137a1565b60405180910390f35b348015610ad657600080fd5b50610adf611b3e565b005b348015610aed57600080fd5b50610b086004803603810190610b039190613e29565b611b63565b604051610b1591906136f6565b60405180910390f35b348015610b2a57600080fd5b50610b456004803603810190610b40919061399e565b611bf7565b005b348015610b5357600080fd5b50610b6e6004803603810190610b699190613ea7565b611c7d565b005b348015610b7c57600080fd5b50610b976004803603810190610b9291906137ef565b611e74565b005b610bb36004803603810190610bae9190613ee7565b611e86565b005b348015610bc157600080fd5b50610bca6122d2565b005b60007f80ac58cd000000000000000000000000000000000000000000000000000000007bffffffffffffffffffffffffffffffffffffffffffffffffffffffff1916827bffffffffffffffffffffffffffffffffffffffffffffffffffffffff19161480610c9757507f5b5e139f000000000000000000000000000000000000000000000000000000007bffffffffffffffffffffffffffffffffffffffffffffffffffffffff1916827bffffffffffffffffffffffffffffffffffffffffffffffffffffffff1916145b80610ca75750610ca6826122f7565b5b9050919050565b610cb6612361565b6000601360026101000a81548160ff021916908315150217905550565b606060008054610ce290613f8a565b80601f0160208091040260200160405190810160405280929190818152602001828054610d0e90613f8a565b8015610d5b5780601f10610d3057610100808354040283529160200191610d5b565b820191906000526020600020905b815481529060010190602001808311610d3e57829003601f168201915b5050505050905090565b6000610d70826123e8565b50610d7a82612470565b9050919050565b610d938282610d8e6124ad565b6124b5565b5050565b610d9f612361565b6001601360036101000a81548160ff021916908315150217905550565b60095481565b610dca612361565b610dd3816124c7565b50565b610dde612361565b610de7816124d9565b50565b600073ffffffffffffffffffffffffffffffffffffffff168273ffffffffffffffffffffffffffffffffffffffff1603610e5c5760006040517f64a0ae92000000000000000000000000000000000000000000000000000000008152600401610e53919061381c565b60405180910390fd5b6000610e708383610e6b6124ad565b6124eb565b90508373ffffffffffffffffffffffffffffffffffffffff168173ffffffffffffffffffffffffffffffffffffffff1614610ee6578382826040517f64283d7b000000000000000000000000000000000000000000000000000000008152600401610edd93929190613fbb565b60405180910390fd5b50505050565b610ef4612705565b601360009054906101000a900460ff1615610f44576040517f08c379a0000000000000000000000000000000000000000000000000000000008152600401610f3b9061403e565b60405180910390fd5b601360039054906101000a900460ff16610f93576040517f08c379a0000000000000000000000000000000000000000000000000000000008152600401610f8a906140aa565b60405180910390fd5b60008111610fd6576040517f08c379a0000000000000000000000000000000000000000000000000000000008152600401610fcd90614116565b60405180910390fd5b600281111561101a576040517f08c379a000000000000000000000000000000000000000000000000000000000815260040161101190614182565b60405180910390fd5b6010548160125461102b91906141d1565b111561106c576040517f08c379a000000000000000000000000000000000000000000000000000000000815260040161106390614251565b60405180910390fd5b600281600b60003373ffffffffffffffffffffffffffffffffffffffff1673ffffffffffffffffffffffffffffffffffffffff168152602001908152602001600020546110b991906141d1565b11156110fa576040517f08c379a00000000000000000000000000000000000000000000000000000000081526004016110f1906142e3565b60405180910390fd5b80600e546111089190614303565b3414611149576040517f08c379a000000000000000000000000000000000000000000000000000000000815260040161114090614391565b60405180910390fd5b6111553382600061274b565b80600b60003373ffffffffffffffffffffffffffffffffffffffff1673ffffffffffffffffffffffffffffffffffffffff16815260200190815260200160002060008282546111a491906141d1565b925050819055506111b3612919565b50565b60105481565b600b6020528060005260406000206000915090505481565b6111dc612361565b6000601360006101000a81548160ff021916908315150217905550565b61121483838360405180602001604052806000815250611a1e565b505050565b611221612361565b601360009054906101000a900460ff1615611271576040517f08c379a00000000000000000000000000000000000000000000000000000000081526004016112689061403e565b60405180910390fd5b6010548160125461128291906141d1565b11156112c3576040517f08c379a00000000000000000000000000000000000000000000000000000000081526004016112ba906143fd565b60405180910390fd5b60008111611306576040517f08c379a00000000000000000000000000000000000000000000000000000000081526004016112fd90614116565b60405180910390fd5b603c81111561134a576040517f08c379a00000000000000000000000000000000000000000000000000000000081526004016113419061448f565b60405180910390fd5b6113568282600261274b565b5050565b6000803360405160200161136e91906144f7565b6040516020818303038152906040528051906020012090506113d4848480806020026020016040519081016040528093929190818152602001838360200280828437600081840152601f19601f8201169050808301925050505050505060085483612923565b156113e3576001915050611446565b611431848480806020026020016040519081016040528093929190818152602001838360200280828437600081840152601f19601f8201169050808301925050505050505060095483612923565b15611440576001915050611446565b60009150505b92915050565b611454612361565b6001601360016101000a81548160ff02191690831515021790555080600c908161147e91906146be565b507f09aeffebf08fc44a38a139bbfafcc95e27b04cc8690c84246a34c2bd67f3d9b9816040516114ae91906137a1565b60405180910390a150565b601360019054906101000a900460ff1681565b6114d4612361565b601254811015611519576040517f08c379a000000000000000000000000000000000000000000000000000000000815260040161151090614802565b60405180910390fd5b60105481111561155e576040517f08c379a000000000000000000000000000000000000000000000000000000000815260040161155590614894565b60405180910390fd5b8060118190555050565b611570612361565b80600c908161157f91906146be565b507f287fb35d24416ff0dd04e0934f29883f30a8ed9a5a8aef3bf65d165b01aa0e4281336040516115b19291906148b4565b60405180910390a150565b60006115c7826123e8565b9050919050565b600a6020528060005260406000206000915090505481565b600281565b600e5481565b60115481565b60085481565b60008073ffffffffffffffffffffffffffffffffffffffff168273ffffffffffffffffffffffffffffffffffffffff16036116705760006040517f89c62b64000000000000000000000000000000000000000000000000000000008152600401611667919061381c565b60405180910390fd5b600360008373ffffffffffffffffffffffffffffffffffffffff1673ffffffffffffffffffffffffffffffffffffffff168152602001908152602001600020549050919050565b60606116c1612361565b600c80546116ce90613f8a565b80601f01602080910402602001604051908101604052809291908181526020018280546116fa90613f8a565b80156117475780601f1061171c57610100808354040283529160200191611747565b820191906000526020600020905b81548152906001019060200180831161172a57829003601f168201915b5050505050905090565b611759612361565b611763600061293a565b565b601360029054906101000a900460ff1681565b611780612361565b6001601360006101000a81548160ff021916908315150217905550565b6000600660009054906101000a900473ffffffffffffffffffffffffffffffffffffffff16905090565b600f5481565b6060600180546117dc90613f8a565b80601f016020809104026020016040519081016040528092919081815260200182805461180890613f8a565b80156118555780601f1061182a57610100808354040283529160200191611855565b820191906000526020600020905b81548152906001019060200180831161183857829003601f168201915b5050505050905090565b611867612361565b601360009054906101000a900460ff16156118b7576040517f08c379a00000000000000000000000000000000000000000000000000000000081526004016118ae9061403e565b60405180910390fd5b601054828290506012546118cb91906141d1565b111561190c576040517f08c379a0000000000000000000000000000000000000000000000000000000008152600401611903906143fd565b60405180910390fd5b60005b828290508110156119d857600083838381811061192f5761192e6148e4565b5b9050602002016020810190611944919061399e565b90506000600160125461195791906141d1565b90506119638282612a00565b6012600081548092919061197690614913565b91905055508173ffffffffffffffffffffffffffffffffffffffff167f8948190f8a410df5d2482307c1bcf45b2452c4c52e341e8bbd80b0190bfb7805826040516119c19190613983565b60405180910390a25050808060010191505061190f565b505050565b6119ef6119e86124ad565b8383612af9565b5050565b60125481565b611a01612361565b80600f8190555050565b601360009054906101000a900460ff1681565b611a29848484610dea565b611a3584848484612c68565b50505050565b601360039054906101000a900460ff1681565b600281565b6060611a5e826123e8565b50601360019054906101000a900460ff16611b0557600d8054611a8090613f8a565b80601f0160208091040260200160405190810160405280929190818152602001828054611aac90613f8a565b8015611af95780601f10611ace57610100808354040283529160200191611af9565b820191906000526020600020905b815481529060010190602001808311611adc57829003601f168201915b50505050509050611b39565b611b0d612e1f565b611b1683612eb1565b604051602001611b279291906149e3565b60405160208183030381529060405290505b919050565b611b46612361565b6000601360036101000a81548160ff021916908315150217905550565b6000600560008473ffffffffffffffffffffffffffffffffffffffff1673ffffffffffffffffffffffffffffffffffffffff16815260200190815260200160002060008373ffffffffffffffffffffffffffffffffffffffff1673ffffffffffffffffffffffffffffffffffffffff16815260200190815260200160002060009054906101000a900460ff16905092915050565b611bff612361565b600073ffffffffffffffffffffffffffffffffffffffff168173ffffffffffffffffffffffffffffffffffffffff1603611c715760006040517f1e4fbdf7000000000000000000000000000000000000000000000000000000008152600401611c68919061381c565b60405180910390fd5b611c7a8161293a565b50565b611c85612361565b611c8d612705565b600073ffffffffffffffffffffffffffffffffffffffff168273ffffffffffffffffffffffffffffffffffffffff1603611cfc576040517f08c379a0000000000000000000000000000000000000000000000000000000008152600401611cf390614a5e565b60405180910390fd5b60008111611d3f576040517f08c379a0000000000000000000000000000000000000000000000000000000008152600401611d3690614aca565b60405180910390fd5b80471015611d82576040517f08c379a0000000000000000000000000000000000000000000000000000000008152600401611d7990614b36565b60405180910390fd5b60008273ffffffffffffffffffffffffffffffffffffffff1682604051611da890614b87565b60006040518083038185875af1925050503d8060008114611de5576040519150601f19603f3d011682016040523d82523d6000602084013e611dea565b606091505b5050905080611e2e576040517f08c379a0000000000000000000000000000000000000000000000000000000008152600401611e2590614be8565b60405180910390fd5b7f8c7cdad0d12a8db3e23561b42da6f10c8137914c97beff202213a410e1f520a38284604051611e5f929190614c5d565b60405180910390a150611e70612919565b5050565b611e7c612361565b80600e8190555050565b611e8e612705565b601360009054906101000a900460ff1615611ede576040517f08c379a0000000000000000000000000000000000000000000000000000000008152600401611ed59061403e565b60405180910390fd5b601360029054906101000a900460ff16611f2d576040517f08c379a0000000000000000000000000000000000000000000000000000000008152600401611f2490614cd2565b60405180910390fd5b6001811480611f3c5750600281145b611f7b576040517f08c379a0000000000000000000000000000000000000000000000000000000008152600401611f7290614d3e565b60405180910390fd5b60105482601254611f8c91906141d1565b1115611fcd576040517f08c379a0000000000000000000000000000000000000000000000000000000008152600401611fc490614251565b60405180910390fd5b60115482601254611fde91906141d1565b111561201f576040517f08c379a000000000000000000000000000000000000000000000000000000000815260040161201690614dd0565b60405180910390fd5b600282600a60003373ffffffffffffffffffffffffffffffffffffffff1673ffffffffffffffffffffffffffffffffffffffff1681526020019081526020016000205461206c91906141d1565b11156120ad576040517f08c379a00000000000000000000000000000000000000000000000000000000081526004016120a490614e62565b60405180910390fd5b6000821180156120be575060028211155b6120fd576040517f08c379a00000000000000000000000000000000000000000000000000000000081526004016120f490614ece565b60405180910390fd5b60003360405160200161211091906144f7565b60405160208183030381529060405280519060200120905060006001831461213a5760095461213e565b6008545b905061218c868680806020026020016040519081016040528093929190818152602001838360200280828437600081840152601f19601f820116905080830192505050505050508284612923565b600184146121b2576040518060600160405280602781526020016150f9602791396121cc565b6040518060600160405280602981526020016150d0602991395b9061220d576040517f08c379a000000000000000000000000000000000000000000000000000000000815260040161220491906137a1565b60405180910390fd5b50600061221b338686612f7f565b905080341461225f576040517f08c379a000000000000000000000000000000000000000000000000000000000815260040161225690614f3a565b60405180910390fd5b61226b3386600161274b565b84600a60003373ffffffffffffffffffffffffffffffffffffffff1673ffffffffffffffffffffffffffffffffffffffff16815260200190815260200160002060008282546122ba91906141d1565b925050819055505050506122cc612919565b50505050565b6122da612361565b6001601360026101000a81548160ff021916908315150217905550565b60007f01ffc9a7000000000000000000000000000000000000000000000000000000007bffffffffffffffffffffffffffffffffffffffffffffffffffffffff1916827bffffffffffffffffffffffffffffffffffffffffffffffffffffffff1916149050919050565b6123696124ad565b73ffffffffffffffffffffffffffffffffffffffff1661238761179d565b73ffffffffffffffffffffffffffffffffffffffff16146123e6576123aa6124ad565b6040517f118cdaa70000000000000000000000000000000000000000000000000000000081526004016123dd919061381c565b60405180910390fd5b565b6000806123f483613053565b9050600073ffffffffffffffffffffffffffffffffffffffff168173ffffffffffffffffffffffffffffffffffffffff160361246757826040517f7e27328900000000000000000000000000000000000000000000000000000000815260040161245e9190613983565b60405180910390fd5b80915050919050565b60006004600083815260200190815260200160002060009054906101000a900473ffffffffffffffffffffffffffffffffffffffff169050919050565b600033905090565b6124c28383836001613090565b505050565b6124cf612361565b8060088190555050565b6124e1612361565b8060098190555050565b6000806124f784613053565b9050600073ffffffffffffffffffffffffffffffffffffffff168373ffffffffffffffffffffffffffffffffffffffff161461253957612538818486613255565b5b600073ffffffffffffffffffffffffffffffffffffffff168173ffffffffffffffffffffffffffffffffffffffff16146125ca5761257b600085600080613090565b6001600360008373ffffffffffffffffffffffffffffffffffffffff1673ffffffffffffffffffffffffffffffffffffffff168152602001908152602001600020600082825403925050819055505b600073ffffffffffffffffffffffffffffffffffffffff168573ffffffffffffffffffffffffffffffffffffffff161461264d576001600360008773ffffffffffffffffffffffffffffffffffffffff1673ffffffffffffffffffffffffffffffffffffffff168152602001908152602001600020600082825401925050819055505b846002600086815260200190815260200160002060006101000a81548173ffffffffffffffffffffffffffffffffffffffff021916908373ffffffffffffffffffffffffffffffffffffffff160217905550838573ffffffffffffffffffffffffffffffffffffffff168273ffffffffffffffffffffffffffffffffffffffff167fddf252ad1be2c89b69c2b068fc378daa952ba7f163c4a11628f55a4df523b3ef60405160405180910390a4809150509392505050565b600260075403612741576040517f3ee5aeb500000000000000000000000000000000000000000000000000000000815260040160405180910390fd5b6002600781905550565b60005b82811015612913576000600160125461276791906141d1565b90506127738582612a00565b6012600081548092919061278690614913565b91905055506000600281111561279f5761279e614f5a565b5b8360028111156127b2576127b1614f5a565b5b0361280a578473ffffffffffffffffffffffffffffffffffffffff167fab9980fb1d2916bce9017edd1be458e3f56d0899b3367cb3a8be97483fbe069b826040516127fd9190613983565b60405180910390a2612905565b6001600281111561281e5761281d614f5a565b5b83600281111561283157612830614f5a565b5b03612889578473ffffffffffffffffffffffffffffffffffffffff167fce77e469b386be007f957632f6f65216f2e74c5daa303aff682e8296f628d0108260405161287c9190613983565b60405180910390a2612904565b60028081111561289c5761289b614f5a565b5b8360028111156128af576128ae614f5a565b5b03612903578473ffffffffffffffffffffffffffffffffffffffff167fb50eb0c1f59aa2c3398e720d868b9224179e36125bff674d6df4bae98b2591a5826040516128fa9190613983565b60405180910390a25b5b5b50808060010191505061274e565b50505050565b6001600781905550565b6000826129308584613319565b1490509392505050565b6000600660009054906101000a900473ffffffffffffffffffffffffffffffffffffffff16905081600660006101000a81548173ffffffffffffffffffffffffffffffffffffffff021916908373ffffffffffffffffffffffffffffffffffffffff1602179055508173ffffffffffffffffffffffffffffffffffffffff168173ffffffffffffffffffffffffffffffffffffffff167f8be0079c531659141344cd1fd0a4f28419497f9722a3daafe3b4186f6b6457e060405160405180910390a35050565b600073ffffffffffffffffffffffffffffffffffffffff168273ffffffffffffffffffffffffffffffffffffffff1603612a725760006040517f64a0ae92000000000000000000000000000000000000000000000000000000008152600401612a69919061381c565b60405180910390fd5b6000612a80838360006124eb565b9050600073ffffffffffffffffffffffffffffffffffffffff168173ffffffffffffffffffffffffffffffffffffffff1614612af45760006040517f73c6ac6e000000000000000000000000000000000000000000000000000000008152600401612aeb919061381c565b60405180910390fd5b505050565b600073ffffffffffffffffffffffffffffffffffffffff168273ffffffffffffffffffffffffffffffffffffffff1603612b6a57816040517f5b08ba18000000000000000000000000000000000000000000000000000000008152600401612b61919061381c565b60405180910390fd5b80600560008573ffffffffffffffffffffffffffffffffffffffff1673ffffffffffffffffffffffffffffffffffffffff16815260200190815260200160002060008473ffffffffffffffffffffffffffffffffffffffff1673ffffffffffffffffffffffffffffffffffffffff16815260200190815260200160002060006101000a81548160ff0219169083151502179055508173ffffffffffffffffffffffffffffffffffffffff168373ffffffffffffffffffffffffffffffffffffffff167f17307eab39ab6107e8899845ad3d59bd9653f200f220920489ca2b5937696c3183604051612c5b91906136f6565b60405180910390a3505050565b60008373ffffffffffffffffffffffffffffffffffffffff163b1115612e19578273ffffffffffffffffffffffffffffffffffffffff1663150b7a02612cac6124ad565b8685856040518563ffffffff1660e01b8152600401612cce9493929190614fde565b6020604051808303816000875af1925050508015612d0a57506040513d601f19601f82011682018060405250810190612d07919061503f565b60015b612d8e573d8060008114612d3a576040519150601f19603f3d011682016040523d82523d6000602084013e612d3f565b606091505b506000815103612d8657836040517f64a0ae92000000000000000000000000000000000000000000000000000000008152600401612d7d919061381c565b60405180910390fd5b805181602001fd5b63150b7a0260e01b7bffffffffffffffffffffffffffffffffffffffffffffffffffffffff1916817bffffffffffffffffffffffffffffffffffffffffffffffffffffffff191614612e1757836040517f64a0ae92000000000000000000000000000000000000000000000000000000008152600401612e0e919061381c565b60405180910390fd5b505b50505050565b6060600c8054612e2e90613f8a565b80601f0160208091040260200160405190810160405280929190818152602001828054612e5a90613f8a565b8015612ea75780601f10612e7c57610100808354040283529160200191612ea7565b820191906000526020600020905b815481529060010190602001808311612e8a57829003601f168201915b5050505050905090565b606060006001612ec084613369565b01905060008167ffffffffffffffff811115612edf57612ede613a82565b5b6040519080825280601f01601f191660200182016040528015612f115781602001600182028036833780820191505090505b509050600082602001820190505b600115612f74578080600190039150507f3031323334353637383961626364656600000000000000000000000000000000600a86061a8153600a8581612f6857612f6761506c565b5b04945060008503612f1f575b819350505050919050565b6000806000905060018303613037576000600a60008773ffffffffffffffffffffffffffffffffffffffff1673ffffffffffffffffffffffffffffffffffffffff1681526020019081526020016000205490506000810361302057600f5482612fe891906141d1565b9150600185111561301b57600e54600186613003919061509b565b61300d9190614303565b8261301891906141d1565b91505b613031565b600e548561302e9190614303565b91505b50613048565b600e54846130459190614303565b90505b809150509392505050565b60006002600083815260200190815260200160002060009054906101000a900473ffffffffffffffffffffffffffffffffffffffff169050919050565b80806130c95750600073ffffffffffffffffffffffffffffffffffffffff168273ffffffffffffffffffffffffffffffffffffffff1614155b156131fd5760006130d9846123e8565b9050600073ffffffffffffffffffffffffffffffffffffffff168373ffffffffffffffffffffffffffffffffffffffff161415801561314457508273ffffffffffffffffffffffffffffffffffffffff168173ffffffffffffffffffffffffffffffffffffffff1614155b801561315757506131558184611b63565b155b1561319957826040517fa9fbf51f000000000000000000000000000000000000000000000000000000008152600401613190919061381c565b60405180910390fd5b81156131fb57838573ffffffffffffffffffffffffffffffffffffffff168273ffffffffffffffffffffffffffffffffffffffff167f8c5be1e5ebec7d5bd14f71427d1e84f3dd0314c0f7b2291e5b200ac8c7c3b92560405160405180910390a45b505b836004600085815260200190815260200160002060006101000a81548173ffffffffffffffffffffffffffffffffffffffff021916908373ffffffffffffffffffffffffffffffffffffffff16021790555050505050565b6132608383836134bc565b61331457600073ffffffffffffffffffffffffffffffffffffffff168373ffffffffffffffffffffffffffffffffffffffff16036132d557806040517f7e2732890000000000000000000000000000000000000000000000000000000081526004016132cc9190613983565b60405180910390fd5b81816040517f177e802f00000000000000000000000000000000000000000000000000000000815260040161330b929190613619565b60405180910390fd5b505050565b60008082905060005b845181101561335e5761334f82868381518110613342576133416148e4565b5b602002602001015161357d565b91508080600101915050613322565b508091505092915050565b600080600090507a184f03e93ff9f4daa797ed6e38ed64bf6a1f01000000000000000083106133c7577a184f03e93ff9f4daa797ed6e38ed64bf6a1f01000000000000000083816133bd576133bc61506c565b5b0492506040810190505b6d04ee2d6d415b85acef81000000008310613404576d04ee2d6d415b85acef810000000083816133fa576133f961506c565b5b0492506020810190505b662386f26fc10000831061343357662386f26fc1000083816134295761342861506c565b5b0492506010810190505b6305f5e100831061345c576305f5e10083816134525761345161506c565b5b0492506008810190505b61271083106134815761271083816134775761347661506c565b5b0492506004810190505b606483106134a4576064838161349a5761349961506c565b5b0492506002810190505b600a83106134b3576001810190505b80915050919050565b60008073ffffffffffffffffffffffffffffffffffffffff168373ffffffffffffffffffffffffffffffffffffffff161415801561357457508273ffffffffffffffffffffffffffffffffffffffff168473ffffffffffffffffffffffffffffffffffffffff16148061353557506135348484611b63565b5b8061357357508273ffffffffffffffffffffffffffffffffffffffff1661355b83612470565b73ffffffffffffffffffffffffffffffffffffffff16145b5b90509392505050565b60008183106135955761359082846135a8565b6135a0565b61359f83836135a8565b5b905092915050565b600082600052816020526040600020905092915050565b600073ffffffffffffffffffffffffffffffffffffffff82169050919050565b60006135ea826135bf565b9050919050565b6135fa816135df565b82525050565b6000819050919050565b61361381613600565b82525050565b600060408201905061362e60008301856135f1565b61363b602083018461360a565b9392505050565b6000604051905090565b600080fd5b600080fd5b60007fffffffff0000000000000000000000000000000000000000000000000000000082169050919050565b61368b81613656565b811461369657600080fd5b50565b6000813590506136a881613682565b92915050565b6000602082840312156136c4576136c361364c565b5b60006136d284828501613699565b91505092915050565b60008115159050919050565b6136f0816136db565b82525050565b600060208201905061370b60008301846136e7565b92915050565b600081519050919050565b600082825260208201905092915050565b60005b8381101561374b578082015181840152602081019050613730565b60008484015250505050565b6000601f19601f8301169050919050565b600061377382613711565b61377d818561371c565b935061378d81856020860161372d565b61379681613757565b840191505092915050565b600060208201905081810360008301526137bb8184613768565b905092915050565b6137cc81613600565b81146137d757600080fd5b50565b6000813590506137e9816137c3565b92915050565b6000602082840312156138055761380461364c565b5b6000613813848285016137da565b91505092915050565b600060208201905061383160008301846135f1565b92915050565b613840816135df565b811461384b57600080fd5b50565b60008135905061385d81613837565b92915050565b6000806040838503121561387a5761387961364c565b5b60006138888582860161384e565b9250506020613899858286016137da565b9150509250929050565b6000819050919050565b6138b6816138a3565b82525050565b60006020820190506138d160008301846138ad565b92915050565b6138e0816138a3565b81146138eb57600080fd5b50565b6000813590506138fd816138d7565b92915050565b6000602082840312156139195761391861364c565b5b6000613927848285016138ee565b91505092915050565b6000806000606084860312156139495761394861364c565b5b60006139578682870161384e565b93505060206139688682870161384e565b9250506040613979868287016137da565b9150509250925092565b6000602082019050613998600083018461360a565b92915050565b6000602082840312156139b4576139b361364c565b5b60006139c28482850161384e565b91505092915050565b600080fd5b600080fd5b600080fd5b60008083601f8401126139f0576139ef6139cb565b5b8235905067ffffffffffffffff811115613a0d57613a0c6139d0565b5b602083019150836020820283011115613a2957613a286139d5565b5b9250929050565b60008060208385031215613a4757613a4661364c565b5b600083013567ffffffffffffffff811115613a6557613a64613651565b5b613a71858286016139da565b92509250509250929050565b600080fd5b7f4e487b7100000000000000000000000000000000000000000000000000000000600052604160045260246000fd5b613aba82613757565b810181811067ffffffffffffffff82111715613ad957613ad8613a82565b5b80604052505050565b6000613aec613642565b9050613af88282613ab1565b919050565b600067ffffffffffffffff821115613b1857613b17613a82565b5b613b2182613757565b9050602081019050919050565b82818337600083830152505050565b6000613b50613b4b84613afd565b613ae2565b905082815260208101848484011115613b6c57613b6b613a7d565b5b613b77848285613b2e565b509392505050565b600082601f830112613b9457613b936139cb565b5b8135613ba4848260208601613b3d565b91505092915050565b600060208284031215613bc357613bc261364c565b5b600082013567ffffffffffffffff811115613be157613be0613651565b5b613bed84828501613b7f565b91505092915050565b60008083601f840112613c0c57613c0b6139cb565b5b8235905067ffffffffffffffff811115613c2957613c286139d0565b5b602083019150836020820283011115613c4557613c446139d5565b5b9250929050565b60008060208385031215613c6357613c6261364c565b5b600083013567ffffffffffffffff811115613c8157613c80613651565b5b613c8d85828601613bf6565b92509250509250929050565b613ca2816136db565b8114613cad57600080fd5b50565b600081359050613cbf81613c99565b92915050565b60008060408385031215613cdc57613cdb61364c565b5b6000613cea8582860161384e565b9250506020613cfb85828601613cb0565b9150509250929050565b600067ffffffffffffffff821115613d2057613d1f613a82565b5b613d2982613757565b9050602081019050919050565b6000613d49613d4484613d05565b613ae2565b905082815260208101848484011115613d6557613d64613a7d565b5b613d70848285613b2e565b509392505050565b600082601f830112613d8d57613d8c6139cb565b5b8135613d9d848260208601613d36565b91505092915050565b60008060008060808587031215613dc057613dbf61364c565b5b6000613dce8782880161384e565b9450506020613ddf8782880161384e565b9350506040613df0878288016137da565b925050606085013567ffffffffffffffff811115613e1157613e10613651565b5b613e1d87828801613d78565b91505092959194509250565b60008060408385031215613e4057613e3f61364c565b5b6000613e4e8582860161384e565b9250506020613e5f8582860161384e565b9150509250929050565b6000613e74826135bf565b9050919050565b613e8481613e69565b8114613e8f57600080fd5b50565b600081359050613ea181613e7b565b92915050565b60008060408385031215613ebe57613ebd61364c565b5b6000613ecc85828601613e92565b9250506020613edd858286016137da565b9150509250929050565b60008060008060608587031215613f0157613f0061364c565b5b600085013567ffffffffffffffff811115613f1f57613f1e613651565b5b613f2b878288016139da565b94509450506020613f3e878288016137da565b9250506040613f4f878288016137da565b91505092959194509250565b7f4e487b7100000000000000000000000000000000000000000000000000000000600052602260045260246000fd5b60006002820490506001821680613fa257607f821691505b602082108103613fb557613fb4613f5b565b5b50919050565b6000606082019050613fd060008301866135f1565b613fdd602083018561360a565b613fea60408301846135f1565b949350505050565b7f436f6e7472616374206973207061757365640000000000000000000000000000600082015250565b600061402860128361371c565b915061403382613ff2565b602082019050919050565b600060208201905081810360008301526140578161401b565b9050919050565b7f5075626c69632073616c65206973206e6f74206f70656e000000000000000000600082015250565b600061409460178361371c565b915061409f8261405e565b602082019050919050565b600060208201905081810360008301526140c381614087565b9050919050565b7f4d757374206d696e74206174206c65617374206f6e6520746f6b656e00000000600082015250565b6000614100601c8361371c565b915061410b826140ca565b602082019050919050565b6000602082019050818103600083015261412f816140f3565b9050919050565b7f43616e6e6f74206d696e74206d6f7265207468616e203220746f6b656e730000600082015250565b600061416c601e8361371c565b915061417782614136565b602082019050919050565b6000602082019050818103600083015261419b8161415f565b9050919050565b7f4e487b7100000000000000000000000000000000000000000000000000000000600052601160045260246000fd5b60006141dc82613600565b91506141e783613600565b92508282019050808211156141ff576141fe6141a2565b5b92915050565b7f45786365656473206d617820737570706c790000000000000000000000000000600082015250565b600061423b60128361371c565b915061424682614205565b602082019050919050565b6000602082019050818103600083015261426a8161422e565b9050919050565b7f4d61782032204e46547320706572206164647265737320696e207075626c696360008201527f206d696e74000000000000000000000000000000000000000000000000000000602082015250565b60006142cd60258361371c565b91506142d882614271565b604082019050919050565b600060208201905081810360008301526142fc816142c0565b9050919050565b600061430e82613600565b915061431983613600565b925082820261432781613600565b9150828204841483151761433e5761433d6141a2565b5b5092915050565b7f496e73756666696369656e74204554482073656e740000000000000000000000600082015250565b600061437b60158361371c565b915061438682614345565b602082019050919050565b600060208201905081810360008301526143aa8161436e565b9050919050565b7f4d696e74696e6720776f756c6420657863656564206d617820737570706c7900600082015250565b60006143e7601f8361371c565b91506143f2826143b1565b602082019050919050565b60006020820190508181036000830152614416816143da565b9050919050565b7f4f776e65722063616e206f6e6c79206d696e7420757020746f20363020746f6b60008201527f656e7320617420612074696d6500000000000000000000000000000000000000602082015250565b6000614479602d8361371c565b91506144848261441d565b604082019050919050565b600060208201905081810360008301526144a88161446c565b9050919050565b60008160601b9050919050565b60006144c7826144af565b9050919050565b60006144d9826144bc565b9050919050565b6144f16144ec826135df565b6144ce565b82525050565b600061450382846144e0565b60148201915081905092915050565b60008190508160005260206000209050919050565b60006020601f8301049050919050565b600082821b905092915050565b6000600883026145747fffffffffffffffffffffffffffffffffffffffffffffffffffffffffffffffff82614537565b61457e8683614537565b95508019841693508086168417925050509392505050565b6000819050919050565b60006145bb6145b66145b184613600565b614596565b613600565b9050919050565b6000819050919050565b6145d5836145a0565b6145e96145e1826145c2565b848454614544565b825550505050565b600090565b6145fe6145f1565b6146098184846145cc565b505050565b5b8181101561462d576146226000826145f6565b60018101905061460f565b5050565b601f8211156146725761464381614512565b61464c84614527565b8101602085101561465b578190505b61466f61466785614527565b83018261460e565b50505b505050565b600082821c905092915050565b600061469560001984600802614677565b1980831691505092915050565b60006146ae8383614684565b9150826002028217905092915050565b6146c782613711565b67ffffffffffffffff8111156146e0576146df613a82565b5b6146ea8254613f8a565b6146f5828285614631565b600060209050601f8311600181146147285760008415614716578287015190505b61472085826146a2565b865550614788565b601f19841661473686614512565b60005b8281101561475e57848901518255600182019150602085019450602081019050614739565b8683101561477b5784890151614777601f891682614684565b8355505b6001600288020188555050505b505050505050565b7f4e6577206d617820737570706c79206d7573742062652067726561746572207460008201527f68616e20746f74616c206d696e74656400000000000000000000000000000000602082015250565b60006147ec60308361371c565b91506147f782614790565b604082019050919050565b6000602082019050818103600083015261481b816147df565b9050919050565b7f4e6577206d617820737570706c79206d757374206265206c657373207468616e60008201527f206f7220657175616c20746f2031303030000000000000000000000000000000602082015250565b600061487e60318361371c565b915061488982614822565b604082019050919050565b600060208201905081810360008301526148ad81614871565b9050919050565b600060408201905081810360008301526148ce8185613768565b90506148dd60208301846135f1565b9392505050565b7f4e487b7100000000000000000000000000000000000000000000000000000000600052603260045260246000fd5b600061491e82613600565b91507fffffffffffffffffffffffffffffffffffffffffffffffffffffffffffffffff82036149505761494f6141a2565b5b600182019050919050565b600081905092915050565b600061497182613711565b61497b818561495b565b935061498b81856020860161372d565b80840191505092915050565b7f2e6a736f6e000000000000000000000000000000000000000000000000000000600082015250565b60006149cd60058361495b565b91506149d882614997565b600582019050919050565b60006149ef8285614966565b91506149fb8284614966565b9150614a06826149c0565b91508190509392505050565b7f496e76616c6964207769746864726177616c2061646472657373000000000000600082015250565b6000614a48601a8361371c565b9150614a5382614a12565b602082019050919050565b60006020820190508181036000830152614a7781614a3b565b9050919050565b7f416d6f756e74206d7573742062652067726561746572207468616e2030000000600082015250565b6000614ab4601d8361371c565b9150614abf82614a7e565b602082019050919050565b60006020820190508181036000830152614ae381614aa7565b9050919050565b7f496e73756666696369656e7420636f6e74726163742062616c616e6365000000600082015250565b6000614b20601d8361371c565b9150614b2b82614aea565b602082019050919050565b60006020820190508181036000830152614b4f81614b13565b9050919050565b600081905092915050565b50565b6000614b71600083614b56565b9150614b7c82614b61565b600082019050919050565b6000614b9282614b64565b9150819050919050565b7f4661696c656420746f2073656e64204574686572000000000000000000000000600082015250565b6000614bd260148361371c565b9150614bdd82614b9c565b602082019050919050565b60006020820190508181036000830152614c0181614bc5565b9050919050565b6000614c23614c1e614c19846135bf565b614596565b6135bf565b9050919050565b6000614c3582614c08565b9050919050565b6000614c4782614c2a565b9050919050565b614c5781614c3c565b82525050565b6000604082019050614c72600083018561360a565b614c7f6020830184614c4e565b9392505050565b7f57686974656c6973742073616c65206973206e6f74206f70656e000000000000600082015250565b6000614cbc601a8361371c565b9150614cc782614c86565b602082019050919050565b60006020820190508181036000830152614ceb81614caf565b9050919050565b7f496e76616c69642067726f757020737065636966696564000000000000000000600082015250565b6000614d2860178361371c565b9150614d3382614cf2565b602082019050919050565b60006020820190508181036000830152614d5781614d1b565b9050919050565b7f4d696e74696e6720776f756c64206578636565642077686974656c697374207360008201527f7570706c79000000000000000000000000000000000000000000000000000000602082015250565b6000614dba60258361371c565b9150614dc582614d5e565b604082019050919050565b60006020820190508181036000830152614de981614dad565b9050919050565b7f43616e6e6f74206d696e74206d6f7265207468616e203220746f6b656e73206660008201527f6f7220574c000000000000000000000000000000000000000000000000000000602082015250565b6000614e4c60258361371c565b9150614e5782614df0565b604082019050919050565b60006020820190508181036000830152614e7b81614e3f565b9050919050565b7f43616e206d696e74203120746f203220746f6b656e7300000000000000000000600082015250565b6000614eb860168361371c565b9150614ec382614e82565b602082019050919050565b60006020820190508181036000830152614ee781614eab565b9050919050565b7f496e636f7272656374204554482076616c75652073656e740000000000000000600082015250565b6000614f2460188361371c565b9150614f2f82614eee565b602082019050919050565b60006020820190508181036000830152614f5381614f17565b9050919050565b7f4e487b7100000000000000000000000000000000000000000000000000000000600052602160045260246000fd5b600081519050919050565b600082825260208201905092915050565b6000614fb082614f89565b614fba8185614f94565b9350614fca81856020860161372d565b614fd381613757565b840191505092915050565b6000608082019050614ff360008301876135f1565b61500060208301866135f1565b61500d604083018561360a565b818103606083015261501f8184614fa5565b905095945050505050565b60008151905061503981613682565b92915050565b6000602082840312156150555761505461364c565b5b60006150638482850161502a565b91505092915050565b7f4e487b7100000000000000000000000000000000000000000000000000000000600052601260045260246000fd5b60006150a682613600565b91506150b183613600565b92508282039050818111156150c9576150c86141a2565b5b9291505056fe496e76616c696420416464726573733a20506572736f6e616c2057686974656c6973742047726f7570496e76616c696420416464726573733a20436f6c6c61622057686974656c6973742047726f7570a26469706673582212205c87874cdb39fc1495c87b1aafbce53511443d3fd77b1b671447f74c15bb6ff264736f6c63430008180033697066733a2f2f516d624c5377414c637443786f484669586779676e546846524777577044736e636157504277664d5a6b43557579",
  "devdoc": {
    "errors": {
      "ERC721IncorrectOwner(address,uint256,address)": [
        {
          "details": "Indicates an error related to the ownership over a particular token. Used in transfers.",
          "params": {
            "owner": "Address of the current owner of a token.",
            "sender": "Address whose tokens are being transferred.",
            "tokenId": "Identifier number of a token."
          }
        }
      ],
      "ERC721InsufficientApproval(address,uint256)": [
        {
          "details": "Indicates a failure with the `operator`s approval. Used in transfers.",
          "params": {
            "operator": "Address that may be allowed to operate on tokens without being their owner.",
            "tokenId": "Identifier number of a token."
          }
        }
      ],
      "ERC721InvalidApprover(address)": [
        {
          "details": "Indicates a failure with the `approver` of a token to be approved. Used in approvals.",
          "params": {
            "approver": "Address initiating an approval operation."
          }
        }
      ],
      "ERC721InvalidOperator(address)": [
        {
          "details": "Indicates a failure with the `operator` to be approved. Used in approvals.",
          "params": {
            "operator": "Address that may be allowed to operate on tokens without being their owner."
          }
        }
      ],
      "ERC721InvalidOwner(address)": [
        {
          "details": "Indicates that an address can't be an owner. For example, `address(0)` is a forbidden owner in EIP-20. Used in balance queries.",
          "params": {
            "owner": "Address of the current owner of a token."
          }
        }
      ],
      "ERC721InvalidReceiver(address)": [
        {
          "details": "Indicates a failure with the token `receiver`. Used in transfers.",
          "params": {
            "receiver": "Address to which tokens are being transferred."
          }
        }
      ],
      "ERC721InvalidSender(address)": [
        {
          "details": "Indicates a failure with the token `sender`. Used in transfers.",
          "params": {
            "sender": "Address whose tokens are being transferred."
          }
        }
      ],
      "ERC721NonexistentToken(uint256)": [
        {
          "details": "Indicates a `tokenId` whose `owner` is the zero address.",
          "params": {
            "tokenId": "Identifier number of a token."
          }
        }
      ],
      "OwnableInvalidOwner(address)": [
        {
          "details": "The owner is not a valid owner account. (eg. `address(0)`)"
        }
      ],
      "OwnableUnauthorizedAccount(address)": [
        {
          "details": "The caller account is not authorized to perform an operation."
        }
      ],
      "ReentrancyGuardReentrantCall()": [
        {
          "details": "Unauthorized reentrant call."
        }
      ]
    },
    "events": {
      "Approval(address,address,uint256)": {
        "details": "Emitted when `owner` enables `approved` to manage the `tokenId` token."
      },
      "ApprovalForAll(address,address,bool)": {
        "details": "Emitted when `owner` enables or disables (`approved`) `operator` to manage all of its assets."
      },
      "Transfer(address,address,uint256)": {
        "details": "Emitted when `tokenId` token is transferred from `from` to `to`."
      }
    },
    "kind": "dev",
    "methods": {
      "approve(address,uint256)": {
        "details": "See {IERC721-approve}."
      },
      "balanceOf(address)": {
        "details": "See {IERC721-balanceOf}."
      },
      "getApproved(uint256)": {
        "details": "See {IERC721-getApproved}."
      },
      "isApprovedForAll(address,address)": {
        "details": "See {IERC721-isApprovedForAll}."
      },
      "name()": {
        "details": "See {IERC721Metadata-name}."
      },
      "owner()": {
        "details": "Returns the address of the current owner."
      },
      "ownerOf(uint256)": {
        "details": "See {IERC721-ownerOf}."
      },
      "renounceOwnership()": {
        "details": "Leaves the contract without owner. It will not be possible to call `onlyOwner` functions. Can only be called by the current owner. NOTE: Renouncing ownership will leave the contract without an owner, thereby disabling any functionality that is only available to the owner."
      },
      "safeTransferFrom(address,address,uint256)": {
        "details": "See {IERC721-safeTransferFrom}."
      },
      "safeTransferFrom(address,address,uint256,bytes)": {
        "details": "See {IERC721-safeTransferFrom}."
      },
      "setApprovalForAll(address,bool)": {
        "details": "See {IERC721-setApprovalForAll}."
      },
      "supportsInterface(bytes4)": {
        "details": "See {IERC165-supportsInterface}."
      },
      "symbol()": {
        "details": "See {IERC721Metadata-symbol}."
      },
      "tokenURI(uint256)": {
        "details": "See {IERC721Metadata-tokenURI}."
      },
      "transferFrom(address,address,uint256)": {
        "details": "See {IERC721-transferFrom}."
      },
      "transferOwnership(address)": {
        "details": "Transfers ownership of the contract to a new account (`newOwner`). Can only be called by the current owner."
      }
    },
    "version": 1
  },
  "userdoc": {
    "kind": "user",
    "methods": {},
    "version": 1
  },
  "storageLayout": {
    "storage": [
      {
        "astId": 317,
        "contract": "contracts/Chimkens.sol:Chimkens",
        "label": "_name",
        "offset": 0,
        "slot": "0",
        "type": "t_string_storage"
      },
      {
        "astId": 319,
        "contract": "contracts/Chimkens.sol:Chimkens",
        "label": "_symbol",
        "offset": 0,
        "slot": "1",
        "type": "t_string_storage"
      },
      {
        "astId": 323,
        "contract": "contracts/Chimkens.sol:Chimkens",
        "label": "_owners",
        "offset": 0,
        "slot": "2",
        "type": "t_mapping(t_uint256,t_address)"
      },
      {
        "astId": 327,
        "contract": "contracts/Chimkens.sol:Chimkens",
        "label": "_balances",
        "offset": 0,
        "slot": "3",
        "type": "t_mapping(t_address,t_uint256)"
      },
      {
        "astId": 331,
        "contract": "contracts/Chimkens.sol:Chimkens",
        "label": "_tokenApprovals",
        "offset": 0,
        "slot": "4",
        "type": "t_mapping(t_uint256,t_address)"
      },
      {
        "astId": 337,
        "contract": "contracts/Chimkens.sol:Chimkens",
        "label": "_operatorApprovals",
        "offset": 0,
        "slot": "5",
        "type": "t_mapping(t_address,t_mapping(t_address,t_bool))"
      },
      {
        "astId": 8,
        "contract": "contracts/Chimkens.sol:Chimkens",
        "label": "_owner",
        "offset": 0,
        "slot": "6",
        "type": "t_address"
      },
      {
        "astId": 1497,
        "contract": "contracts/Chimkens.sol:Chimkens",
        "label": "_status",
        "offset": 0,
        "slot": "7",
        "type": "t_uint256"
      },
      {
        "astId": 3556,
        "contract": "contracts/Chimkens.sol:Chimkens",
        "label": "merkleRootGroup1",
        "offset": 0,
        "slot": "8",
        "type": "t_bytes32"
      },
      {
        "astId": 3558,
        "contract": "contracts/Chimkens.sol:Chimkens",
        "label": "merkleRootGroup2",
        "offset": 0,
        "slot": "9",
        "type": "t_bytes32"
      },
      {
        "astId": 3562,
        "contract": "contracts/Chimkens.sol:Chimkens",
        "label": "wlMintedCount",
        "offset": 0,
        "slot": "10",
        "type": "t_mapping(t_address,t_uint256)"
      },
      {
        "astId": 3566,
        "contract": "contracts/Chimkens.sol:Chimkens",
        "label": "publicMintedCount",
        "offset": 0,
        "slot": "11",
        "type": "t_mapping(t_address,t_uint256)"
      },
      {
        "astId": 3568,
        "contract": "contracts/Chimkens.sol:Chimkens",
        "label": "baseURI",
        "offset": 0,
        "slot": "12",
        "type": "t_string_storage"
      },
      {
        "astId": 3570,
        "contract": "contracts/Chimkens.sol:Chimkens",
        "label": "unrevealedURI",
        "offset": 0,
        "slot": "13",
        "type": "t_string_storage"
      },
      {
        "astId": 3573,
        "contract": "contracts/Chimkens.sol:Chimkens",
        "label": "mintPrice",
        "offset": 0,
        "slot": "14",
        "type": "t_uint256"
      },
      {
        "astId": 3576,
        "contract": "contracts/Chimkens.sol:Chimkens",
        "label": "wlFirstMintPrice",
        "offset": 0,
        "slot": "15",
        "type": "t_uint256"
      },
      {
        "astId": 3585,
        "contract": "contracts/Chimkens.sol:Chimkens",
        "label": "MAX_SUPPLY",
        "offset": 0,
        "slot": "16",
        "type": "t_uint256"
      },
      {
        "astId": 3588,
        "contract": "contracts/Chimkens.sol:Chimkens",
        "label": "WHITELIST_SALE_SUPPLY",
        "offset": 0,
        "slot": "17",
        "type": "t_uint256"
      },
      {
        "astId": 3591,
        "contract": "contracts/Chimkens.sol:Chimkens",
        "label": "totalMinted",
        "offset": 0,
        "slot": "18",
        "type": "t_uint256"
      },
      {
        "astId": 3594,
        "contract": "contracts/Chimkens.sol:Chimkens",
        "label": "isPaused",
        "offset": 0,
        "slot": "19",
        "type": "t_bool"
      },
      {
        "astId": 3597,
        "contract": "contracts/Chimkens.sol:Chimkens",
        "label": "revealed",
        "offset": 1,
        "slot": "19",
        "type": "t_bool"
      },
      {
        "astId": 3600,
        "contract": "contracts/Chimkens.sol:Chimkens",
        "label": "whitelistOpen",
        "offset": 2,
        "slot": "19",
        "type": "t_bool"
      },
      {
        "astId": 3603,
        "contract": "contracts/Chimkens.sol:Chimkens",
        "label": "publicOpen",
        "offset": 3,
        "slot": "19",
        "type": "t_bool"
      }
    ],
    "types": {
      "t_address": {
        "encoding": "inplace",
        "label": "address",
        "numberOfBytes": "20"
      },
      "t_bool": {
        "encoding": "inplace",
        "label": "bool",
        "numberOfBytes": "1"
      },
      "t_bytes32": {
        "encoding": "inplace",
        "label": "bytes32",
        "numberOfBytes": "32"
      },
      "t_mapping(t_address,t_bool)": {
        "encoding": "mapping",
        "key": "t_address",
        "label": "mapping(address => bool)",
        "numberOfBytes": "32",
        "value": "t_bool"
      },
      "t_mapping(t_address,t_mapping(t_address,t_bool))": {
        "encoding": "mapping",
        "key": "t_address",
        "label": "mapping(address => mapping(address => bool))",
        "numberOfBytes": "32",
        "value": "t_mapping(t_address,t_bool)"
      },
      "t_mapping(t_address,t_uint256)": {
        "encoding": "mapping",
        "key": "t_address",
        "label": "mapping(address => uint256)",
        "numberOfBytes": "32",
        "value": "t_uint256"
      },
      "t_mapping(t_uint256,t_address)": {
        "encoding": "mapping",
        "key": "t_uint256",
        "label": "mapping(uint256 => address)",
        "numberOfBytes": "32",
        "value": "t_address"
      },
      "t_string_storage": {
        "encoding": "bytes",
        "label": "string",
        "numberOfBytes": "32"
      },
      "t_uint256": {
        "encoding": "inplace",
        "label": "uint256",
        "numberOfBytes": "32"
      }
    }
  }
}