{
  "address": "0xF8e5678e2f1622f66D0a3560d756570e65729618",
  "abi": [
    {
      "inputs": [
        {
          "internalType": "bytes32",
          "name": "ohayoMerkleRoot_",
          "type": "bytes32"
        },
        {
          "internalType": "bytes32",
          "name": "chimkenMerkleRoot_",
          "type": "bytes32"
        },
        {
          "internalType": "address",
          "name": "initialOwner",
          "type": "address"
        }
      ],
      "stateMutability": "nonpayable",
      "type": "constructor"
    },
    {
      "inputs": [
        {
          "internalType": "address",
          "name": "sender",
          "type": "address"
        },
        {
          "internalType": "uint256",
          "name": "tokenId",
          "type": "uint256"
        },
        {
          "internalType": "address",
          "name": "owner",
          "type": "address"
        }
      ],
      "name": "ERC721IncorrectOwner",
      "type": "error"
    },
    {
      "inputs": [
        {
          "internalType": "address",
          "name": "operator",
          "type": "address"
        },
        {
          "internalType": "uint256",
          "name": "tokenId",
          "type": "uint256"
        }
      ],
      "name": "ERC721InsufficientApproval",
      "type": "error"
    },
    {
      "inputs": [
        {
          "internalType": "address",
          "name": "approver",
          "type": "address"
        }
      ],
      "name": "ERC721InvalidApprover",
      "type": "error"
    },
    {
      "inputs": [
        {
          "internalType": "address",
          "name": "operator",
          "type": "address"
        }
      ],
      "name": "ERC721InvalidOperator",
      "type": "error"
    },
    {
      "inputs": [
        {
          "internalType": "address",
          "name": "owner",
          "type": "address"
        }
      ],
      "name": "ERC721InvalidOwner",
      "type": "error"
    },
    {
      "inputs": [
        {
          "internalType": "address",
          "name": "receiver",
          "type": "address"
        }
      ],
      "name": "ERC721InvalidReceiver",
      "type": "error"
    },
    {
      "inputs": [
        {
          "internalType": "address",
          "name": "sender",
          "type": "address"
        }
      ],
      "name": "ERC721InvalidSender",
      "type": "error"
    },
    {
      "inputs": [
        {
          "internalType": "uint256",
          "name": "tokenId",
          "type": "uint256"
        }
      ],
      "name": "ERC721NonexistentToken",
      "type": "error"
    },
    {
      "inputs": [
        {
          "internalType": "address",
          "name": "owner",
          "type": "address"
        }
      ],
      "name": "OwnableInvalidOwner",
      "type": "error"
    },
    {
      "inputs": [
        {
          "internalType": "address",
          "name": "account",
          "type": "address"
        }
      ],
      "name": "OwnableUnauthorizedAccount",
      "type": "error"
    },
    {
      "inputs": [],
      "name": "ReentrancyGuardReentrantCall",
      "type": "error"
    },
    {
      "anonymous": false,
      "inputs": [
        {
          "indexed": true,
          "internalType": "address",
          "name": "owner",
          "type": "address"
        },
        {
          "indexed": true,
          "internalType": "address",
          "name": "approved",
          "type": "address"
        },
        {
          "indexed": true,
          "internalType": "uint256",
          "name": "tokenId",
          "type": "uint256"
        }
      ],
      "name": "Approval",
      "type": "event"
    },
    {
      "anonymous": false,
      "inputs": [
        {
          "indexed": true,
          "internalType": "address",
          "name": "owner",
          "type": "address"
        },
        {
          "indexed": true,
          "internalType": "address",
          "name": "operator",
          "type": "address"
        },
        {
          "indexed": false,
          "internalType": "bool",
          "name": "approved",
          "type": "bool"
        }
      ],
      "name": "ApprovalForAll",
      "type": "event"
    },
    {
      "anonymous": false,
      "inputs": [
        {
          "indexed": false,
          "internalType": "string",
          "name": "newBaseURI",
          "type": "string"
        },
        {
          "indexed": false,
          "internalType": "address",
          "name": "updatedBy",
          "type": "address"
        }
      ],
      "name": "BaseURIUpdated",
      "type": "event"
    },
    {
      "anonymous": false,
      "inputs": [
        {
          "indexed": false,
          "internalType": "string",
          "name": "newBaseURI",
          "type": "string"
        }
      ],
      "name": "CollectionRevealed",
      "type": "event"
    },
    {
      "anonymous": false,
      "inputs": [
        {
          "indexed": false,
          "internalType": "address",
          "name": "sender",
          "type": "address"
        },
        {
          "indexed": false,
          "internalType": "uint256",
          "name": "amount",
          "type": "uint256"
        }
      ],
      "name": "EtherReceived",
      "type": "event"
    },
    {
      "anonymous": false,
      "inputs": [
        {
          "indexed": true,
          "internalType": "address",
          "name": "to",
          "type": "address"
        },
        {
          "indexed": false,
          "internalType": "uint256",
          "name": "tokenId",
          "type": "uint256"
        }
      ],
      "name": "OwnerMinted",
      "type": "event"
    },
    {
      "anonymous": false,
      "inputs": [
        {
          "indexed": true,
          "internalType": "address",
          "name": "to",
          "type": "address"
        },
        {
          "indexed": false,
          "internalType": "uint256",
          "name": "tokenId",
          "type": "uint256"
        }
      ],
      "name": "OwnerMintedToFriends",
      "type": "event"
    },
    {
      "anonymous": false,
      "inputs": [
        {
          "indexed": true,
          "internalType": "address",
          "name": "previousOwner",
          "type": "address"
        },
        {
          "indexed": true,
          "internalType": "address",
          "name": "newOwner",
          "type": "address"
        }
      ],
      "name": "OwnershipTransferred",
      "type": "event"
    },
    {
      "anonymous": false,
      "inputs": [
        {
          "indexed": true,
          "internalType": "address",
          "name": "to",
          "type": "address"
        },
        {
          "indexed": false,
          "internalType": "uint256",
          "name": "tokenId",
          "type": "uint256"
        }
      ],
      "name": "PublicMinted",
      "type": "event"
    },
    {
      "anonymous": false,
      "inputs": [
        {
          "indexed": true,
          "internalType": "address",
          "name": "from",
          "type": "address"
        },
        {
          "indexed": true,
          "internalType": "address",
          "name": "to",
          "type": "address"
        },
        {
          "indexed": true,
          "internalType": "uint256",
          "name": "tokenId",
          "type": "uint256"
        }
      ],
      "name": "Transfer",
      "type": "event"
    },
    {
      "anonymous": false,
      "inputs": [
        {
          "indexed": true,
          "internalType": "address",
          "name": "to",
          "type": "address"
        },
        {
          "indexed": false,
          "internalType": "uint256",
          "name": "tokenId",
          "type": "uint256"
        }
      ],
      "name": "WhitelistMinted",
      "type": "event"
    },
    {
      "anonymous": false,
      "inputs": [
        {
          "indexed": false,
          "internalType": "uint256",
          "name": "amount",
          "type": "uint256"
        },
        {
          "indexed": false,
          "internalType": "address",
          "name": "withdrawnTo",
          "type": "address"
        }
      ],
      "name": "Withdrawn",
      "type": "event"
    },
    {
      "stateMutability": "payable",
      "type": "fallback"
    },
    {
      "inputs": [],
      "name": "MAX_OHAYO_MINT",
      "outputs": [
        {
          "internalType": "uint256",
          "name": "",
          "type": "uint256"
        }
      ],
      "stateMutability": "view",
      "type": "function"
    },
    {
      "inputs": [],
      "name": "MAX_OHAYO_SUPPLY",
      "outputs": [
        {
          "internalType": "uint256",
          "name": "",
          "type": "uint256"
        }
      ],
      "stateMutability": "view",
      "type": "function"
    },
    {
      "inputs": [],
      "name": "MAX_PUBLIC_MINT",
      "outputs": [
        {
          "internalType": "uint256",
          "name": "",
          "type": "uint256"
        }
      ],
      "stateMutability": "view",
      "type": "function"
    },
    {
      "inputs": [],
      "name": "MAX_SUPPLY",
      "outputs": [
        {
          "internalType": "uint256",
          "name": "",
          "type": "uint256"
        }
      ],
      "stateMutability": "view",
      "type": "function"
    },
    {
      "inputs": [],
      "name": "MAX_WHITELIST_MINT",
      "outputs": [
        {
          "internalType": "uint256",
          "name": "",
          "type": "uint256"
        }
      ],
      "stateMutability": "view",
      "type": "function"
    },
    {
      "inputs": [],
      "name": "WHITELIST_SALE_SUPPLY",
      "outputs": [
        {
          "internalType": "uint256",
          "name": "",
          "type": "uint256"
        }
      ],
      "stateMutability": "view",
      "type": "function"
    },
    {
      "inputs": [
        {
          "internalType": "address",
          "name": "to",
          "type": "address"
        },
        {
          "internalType": "uint256",
          "name": "tokenId",
          "type": "uint256"
        }
      ],
      "name": "approve",
      "outputs": [],
      "stateMutability": "nonpayable",
      "type": "function"
    },
    {
      "inputs": [
        {
          "internalType": "address",
          "name": "owner",
          "type": "address"
        }
      ],
      "name": "balanceOf",
      "outputs": [
        {
          "internalType": "uint256",
          "name": "",
          "type": "uint256"
        }
      ],
      "stateMutability": "view",
      "type": "function"
    },
    {
      "inputs": [
        {
          "internalType": "bytes32[]",
          "name": "_merkleProof",
          "type": "bytes32[]"
        }
      ],
      "name": "checkIsWhitelisted",
      "outputs": [
        {
          "internalType": "bool",
          "name": "",
          "type": "bool"
        }
      ],
      "stateMutability": "view",
      "type": "function"
    },
    {
      "inputs": [],
      "name": "chimkenMerkleRoot",
      "outputs": [
        {
          "internalType": "bytes32",
          "name": "",
          "type": "bytes32"
        }
      ],
      "stateMutability": "view",
      "type": "function"
    },
    {
      "inputs": [
        {
          "internalType": "address",
          "name": "",
          "type": "address"
        }
      ],
      "name": "chimkenlistMintedCount",
      "outputs": [
        {
          "internalType": "uint256",
          "name": "",
          "type": "uint256"
        }
      ],
      "stateMutability": "view",
      "type": "function"
    },
    {
      "inputs": [
        {
          "internalType": "uint256",
          "name": "tokenId",
          "type": "uint256"
        }
      ],
      "name": "getApproved",
      "outputs": [
        {
          "internalType": "address",
          "name": "",
          "type": "address"
        }
      ],
      "stateMutability": "view",
      "type": "function"
    },
    {
      "inputs": [
        {
          "internalType": "address",
          "name": "owner",
          "type": "address"
        },
        {
          "internalType": "address",
          "name": "operator",
          "type": "address"
        }
      ],
      "name": "isApprovedForAll",
      "outputs": [
        {
          "internalType": "bool",
          "name": "",
          "type": "bool"
        }
      ],
      "stateMutability": "view",
      "type": "function"
    },
    {
      "inputs": [],
      "name": "isPaused",
      "outputs": [
        {
          "internalType": "bool",
          "name": "",
          "type": "bool"
        }
      ],
      "stateMutability": "view",
      "type": "function"
    },
    {
      "inputs": [],
      "name": "name",
      "outputs": [
        {
          "internalType": "string",
          "name": "",
          "type": "string"
        }
      ],
      "stateMutability": "view",
      "type": "function"
    },
    {
      "inputs": [],
      "name": "ohayoMerkleRoot",
      "outputs": [
        {
          "internalType": "bytes32",
          "name": "",
          "type": "bytes32"
        }
      ],
      "stateMutability": "view",
      "type": "function"
    },
    {
      "inputs": [
        {
          "internalType": "address",
          "name": "",
          "type": "address"
        }
      ],
      "name": "ohayoMintedCount",
      "outputs": [
        {
          "internalType": "uint256",
          "name": "",
          "type": "uint256"
        }
      ],
      "stateMutability": "view",
      "type": "function"
    },
    {
      "inputs": [],
      "name": "owner",
      "outputs": [
        {
          "internalType": "address",
          "name": "",
          "type": "address"
        }
      ],
      "stateMutability": "view",
      "type": "function"
    },
    {
      "inputs": [
        {
          "internalType": "address",
          "name": "to",
          "type": "address"
        },
        {
          "internalType": "uint256",
          "name": "numTokens",
          "type": "uint256"
        }
      ],
      "name": "ownerMint",
      "outputs": [],
      "stateMutability": "nonpayable",
      "type": "function"
    },
    {
      "inputs": [
        {
          "internalType": "address[]",
          "name": "toAddresses",
          "type": "address[]"
        }
      ],
      "name": "ownerMintToFriends",
      "outputs": [],
      "stateMutability": "nonpayable",
      "type": "function"
    },
    {
      "inputs": [
        {
          "internalType": "uint256",
          "name": "tokenId",
          "type": "uint256"
        }
      ],
      "name": "ownerOf",
      "outputs": [
        {
          "internalType": "address",
          "name": "",
          "type": "address"
        }
      ],
      "stateMutability": "view",
      "type": "function"
    },
    {
      "inputs": [],
      "name": "pause",
      "outputs": [],
      "stateMutability": "nonpayable",
      "type": "function"
    },
    {
      "inputs": [
        {
          "internalType": "uint256",
          "name": "numTokens",
          "type": "uint256"
        }
      ],
      "name": "publicMint",
      "outputs": [],
      "stateMutability": "payable",
      "type": "function"
    },
    {
      "inputs": [],
      "name": "publicMintPrice",
      "outputs": [
        {
          "internalType": "uint256",
          "name": "",
          "type": "uint256"
        }
      ],
      "stateMutability": "view",
      "type": "function"
    },
    {
      "inputs": [
        {
          "internalType": "address",
          "name": "",
          "type": "address"
        }
      ],
      "name": "publicMintedCount",
      "outputs": [
        {
          "internalType": "uint256",
          "name": "",
          "type": "uint256"
        }
      ],
      "stateMutability": "view",
      "type": "function"
    },
    {
      "inputs": [],
      "name": "publicOpen",
      "outputs": [
        {
          "internalType": "bool",
          "name": "",
          "type": "bool"
        }
      ],
      "stateMutability": "view",
      "type": "function"
    },
    {
      "inputs": [],
      "name": "renounceOwnership",
      "outputs": [],
      "stateMutability": "nonpayable",
      "type": "function"
    },
    {
      "inputs": [
        {
          "internalType": "string",
          "name": "_newBaseURI",
          "type": "string"
        }
      ],
      "name": "reveal",
      "outputs": [],
      "stateMutability": "nonpayable",
      "type": "function"
    },
    {
      "inputs": [],
      "name": "revealed",
      "outputs": [
        {
          "internalType": "bool",
          "name": "",
          "type": "bool"
        }
      ],
      "stateMutability": "view",
      "type": "function"
    },
    {
      "inputs": [
        {
          "internalType": "address",
          "name": "from",
          "type": "address"
        },
        {
          "internalType": "address",
          "name": "to",
          "type": "address"
        },
        {
          "internalType": "uint256",
          "name": "tokenId",
          "type": "uint256"
        }
      ],
      "name": "safeTransferFrom",
      "outputs": [],
      "stateMutability": "nonpayable",
      "type": "function"
    },
    {
      "inputs": [
        {
          "internalType": "address",
          "name": "from",
          "type": "address"
        },
        {
          "internalType": "address",
          "name": "to",
          "type": "address"
        },
        {
          "internalType": "uint256",
          "name": "tokenId",
          "type": "uint256"
        },
        {
          "internalType": "bytes",
          "name": "data",
          "type": "bytes"
        }
      ],
      "name": "safeTransferFrom",
      "outputs": [],
      "stateMutability": "nonpayable",
      "type": "function"
    },
    {
      "inputs": [
        {
          "internalType": "address",
          "name": "operator",
          "type": "address"
        },
        {
          "internalType": "bool",
          "name": "approved",
          "type": "bool"
        }
      ],
      "name": "setApprovalForAll",
      "outputs": [],
      "stateMutability": "nonpayable",
      "type": "function"
    },
    {
      "inputs": [
        {
          "internalType": "bytes32",
          "name": "chimkenMerkleRoot_",
          "type": "bytes32"
        }
      ],
      "name": "setChimkenMerkleRoot",
      "outputs": [],
      "stateMutability": "nonpayable",
      "type": "function"
    },
    {
      "inputs": [
        {
          "internalType": "uint256",
          "name": "newMaxOhayoMint",
          "type": "uint256"
        }
      ],
      "name": "setMaxOhayoMint",
      "outputs": [],
      "stateMutability": "nonpayable",
      "type": "function"
    },
    {
      "inputs": [
        {
          "internalType": "bytes32",
          "name": "ohayoMerkleRoot_",
          "type": "bytes32"
        }
      ],
      "name": "setOhayoMerkleRoot",
      "outputs": [],
      "stateMutability": "nonpayable",
      "type": "function"
    },
    {
      "inputs": [
        {
          "internalType": "uint256",
          "name": "newPublicMintPrice",
          "type": "uint256"
        }
      ],
      "name": "setPublicMintPrice",
      "outputs": [],
      "stateMutability": "nonpayable",
      "type": "function"
    },
    {
      "inputs": [
        {
          "internalType": "string",
          "name": "newBaseURI",
          "type": "string"
        }
      ],
      "name": "setRevealedBaseURI",
      "outputs": [],
      "stateMutability": "nonpayable",
      "type": "function"
    },
    {
      "inputs": [
        {
          "internalType": "uint256",
          "name": "newWlMintPrice",
          "type": "uint256"
        }
      ],
      "name": "setWlMintPrice",
      "outputs": [],
      "stateMutability": "nonpayable",
      "type": "function"
    },
    {
      "inputs": [],
      "name": "startPublicSale",
      "outputs": [],
      "stateMutability": "nonpayable",
      "type": "function"
    },
    {
      "inputs": [],
      "name": "startWhitelistSale",
      "outputs": [],
      "stateMutability": "nonpayable",
      "type": "function"
    },
    {
      "inputs": [],
      "name": "stopPublicSale",
      "outputs": [],
      "stateMutability": "nonpayable",
      "type": "function"
    },
    {
      "inputs": [],
      "name": "stopWhitelistSale",
      "outputs": [],
      "stateMutability": "nonpayable",
      "type": "function"
    },
    {
      "inputs": [
        {
          "internalType": "bytes4",
          "name": "interfaceId",
          "type": "bytes4"
        }
      ],
      "name": "supportsInterface",
      "outputs": [
        {
          "internalType": "bool",
          "name": "",
          "type": "bool"
        }
      ],
      "stateMutability": "view",
      "type": "function"
    },
    {
      "inputs": [],
      "name": "symbol",
      "outputs": [
        {
          "internalType": "string",
          "name": "",
          "type": "string"
        }
      ],
      "stateMutability": "view",
      "type": "function"
    },
    {
      "inputs": [
        {
          "internalType": "uint256",
          "name": "tokenId",
          "type": "uint256"
        }
      ],
      "name": "tokenURI",
      "outputs": [
        {
          "internalType": "string",
          "name": "",
          "type": "string"
        }
      ],
      "stateMutability": "view",
      "type": "function"
    },
    {
      "inputs": [],
      "name": "totalMinted",
      "outputs": [
        {
          "internalType": "uint256",
          "name": "",
          "type": "uint256"
        }
      ],
      "stateMutability": "view",
      "type": "function"
    },
    {
      "inputs": [],
      "name": "totalOhayoMinted",
      "outputs": [
        {
          "internalType": "uint256",
          "name": "",
          "type": "uint256"
        }
      ],
      "stateMutability": "view",
      "type": "function"
    },
    {
      "inputs": [
        {
          "internalType": "address",
          "name": "from",
          "type": "address"
        },
        {
          "internalType": "address",
          "name": "to",
          "type": "address"
        },
        {
          "internalType": "uint256",
          "name": "tokenId",
          "type": "uint256"
        }
      ],
      "name": "transferFrom",
      "outputs": [],
      "stateMutability": "nonpayable",
      "type": "function"
    },
    {
      "inputs": [
        {
          "internalType": "address",
          "name": "newOwner",
          "type": "address"
        }
      ],
      "name": "transferOwnership",
      "outputs": [],
      "stateMutability": "nonpayable",
      "type": "function"
    },
    {
      "inputs": [],
      "name": "unpause",
      "outputs": [],
      "stateMutability": "nonpayable",
      "type": "function"
    },
    {
      "inputs": [
        {
          "internalType": "bytes32[]",
          "name": "_merkleProof",
          "type": "bytes32[]"
        },
        {
          "internalType": "uint256",
          "name": "numTokens",
          "type": "uint256"
        },
        {
          "internalType": "uint256",
          "name": "group",
          "type": "uint256"
        }
      ],
      "name": "whitelistMint",
      "outputs": [],
      "stateMutability": "payable",
      "type": "function"
    },
    {
      "inputs": [],
      "name": "whitelistOpen",
      "outputs": [
        {
          "internalType": "bool",
          "name": "",
          "type": "bool"
        }
      ],
      "stateMutability": "view",
      "type": "function"
    },
    {
      "inputs": [
        {
          "internalType": "address payable",
          "name": "withdrawalAddress",
          "type": "address"
        },
        {
          "internalType": "uint256",
          "name": "amount",
          "type": "uint256"
        }
      ],
      "name": "withdraw",
      "outputs": [],
      "stateMutability": "nonpayable",
      "type": "function"
    },
    {
      "inputs": [],
      "name": "wlMintPrice",
      "outputs": [
        {
          "internalType": "uint256",
          "name": "",
          "type": "uint256"
        }
      ],
      "stateMutability": "view",
      "type": "function"
    },
    {
      "stateMutability": "payable",
      "type": "receive"
    }
  ],
  "transactionHash": "0x59038163893a1db3bf3a0070faf338cb846a6827b9b7126e4365118b7c45a176",
  "args": [
    "0x47821b489d33cda7386f4f362d4c30c5ecb59eee0f3431408f529ef315b08174",
    "0x8481e1820c7bcb6b9e34f026e9140df3ff228d6480e88704b820d53a6cffb5be",
    "0x7CE4FA787582C9e5c9fEe9F1B6803Fd794359A69"
  ],
  "numDeployments": 3,
  "solcInputHash": "19eb62af4987bbd1e1884a0a7aecfab3",
  "bytecode": "0x60806040526618838370f34000600f55661f438daa0600006010556003601155600060125560006013556000601460006101000a81548160ff0219169083151502179055506000601460016101000a81548160ff0219169083151502179055506000601460026101000a81548160ff0219169083151502179055506000601460036101000a81548160ff021916908315150217905550348015620000a257600080fd5b50604051620057eb380380620057eb8339818101604052810190620000c89190620004b3565b806040518060400160405280600881526020017f4368696d6b656e730000000000000000000000000000000000000000000000008152506040518060400160405280600581526020017f4348494d4b000000000000000000000000000000000000000000000000000000815250816000908162000146919062000789565b50806001908162000158919062000789565b505050600073ffffffffffffffffffffffffffffffffffffffff168173ffffffffffffffffffffffffffffffffffffffff1603620001d05760006040517f1e4fbdf7000000000000000000000000000000000000000000000000000000008152600401620001c7919062000881565b60405180910390fd5b620001e1816200024060201b60201c565b506001600781905550604051806060016040528060408152602001620057ab60409139600e908162000214919062000789565b5062000226836200030660201b60201c565b62000237826200032060201b60201c565b5050506200089e565b6000600660009054906101000a900473ffffffffffffffffffffffffffffffffffffffff16905081600660006101000a81548173ffffffffffffffffffffffffffffffffffffffff021916908373ffffffffffffffffffffffffffffffffffffffff1602179055508173ffffffffffffffffffffffffffffffffffffffff168173ffffffffffffffffffffffffffffffffffffffff167f8be0079c531659141344cd1fd0a4f28419497f9722a3daafe3b4186f6b6457e060405160405180910390a35050565b620003166200033a60201b60201c565b8060088190555050565b620003306200033a60201b60201c565b8060098190555050565b6200034a620003dc60201b60201c565b73ffffffffffffffffffffffffffffffffffffffff1662000370620003e460201b60201c565b73ffffffffffffffffffffffffffffffffffffffff1614620003da576200039c620003dc60201b60201c565b6040517f118cdaa7000000000000000000000000000000000000000000000000000000008152600401620003d1919062000881565b60405180910390fd5b565b600033905090565b6000600660009054906101000a900473ffffffffffffffffffffffffffffffffffffffff16905090565b600080fd5b6000819050919050565b620004288162000413565b81146200043457600080fd5b50565b60008151905062000448816200041d565b92915050565b600073ffffffffffffffffffffffffffffffffffffffff82169050919050565b60006200047b826200044e565b9050919050565b6200048d816200046e565b81146200049957600080fd5b50565b600081519050620004ad8162000482565b92915050565b600080600060608486031215620004cf57620004ce6200040e565b5b6000620004df8682870162000437565b9350506020620004f28682870162000437565b925050604062000505868287016200049c565b9150509250925092565b600081519050919050565b7f4e487b7100000000000000000000000000000000000000000000000000000000600052604160045260246000fd5b7f4e487b7100000000000000000000000000000000000000000000000000000000600052602260045260246000fd5b600060028204905060018216806200059157607f821691505b602082108103620005a757620005a662000549565b5b50919050565b60008190508160005260206000209050919050565b60006020601f8301049050919050565b600082821b905092915050565b600060088302620006117fffffffffffffffffffffffffffffffffffffffffffffffffffffffffffffffff82620005d2565b6200061d8683620005d2565b95508019841693508086168417925050509392505050565b6000819050919050565b6000819050919050565b60006200066a620006646200065e8462000635565b6200063f565b62000635565b9050919050565b6000819050919050565b620006868362000649565b6200069e620006958262000671565b848454620005df565b825550505050565b600090565b620006b5620006a6565b620006c28184846200067b565b505050565b5b81811015620006ea57620006de600082620006ab565b600181019050620006c8565b5050565b601f82111562000739576200070381620005ad565b6200070e84620005c2565b810160208510156200071e578190505b620007366200072d85620005c2565b830182620006c7565b50505b505050565b600082821c905092915050565b60006200075e600019846008026200073e565b1980831691505092915050565b60006200077983836200074b565b9150826002028217905092915050565b62000794826200050f565b67ffffffffffffffff811115620007b057620007af6200051a565b5b620007bc825462000578565b620007c9828285620006ee565b600060209050601f831160018114620008015760008415620007ec578287015190505b620007f885826200076b565b86555062000868565b601f1984166200081186620005ad565b60005b828110156200083b5784890151825560018201915060208501945060208101905062000814565b868310156200085b578489015162000857601f8916826200074b565b8355505b6001600288020188555050505b505050505050565b6200087b816200046e565b82525050565b600060208201905062000898600083018462000870565b92915050565b614efd80620008ae6000396000f3fe6080604052600436106103395760003560e01c806370a08231116101ab578063addfd4eb116100f7578063da1b91c311610095578063f2fde38b1161006f578063f2fde38b14610c2b578063f3fef3a314610c54578063fb19549014610c7d578063ff44e91514610c9957610379565b8063da1b91c314610bac578063dc53fd9214610bc3578063e985e9c514610bee57610379565b8063ba70c515116100d1578063ba70c51514610af0578063bc9fa10114610b1b578063c08dfd3c14610b44578063c87b56dd14610b6f57610379565b8063addfd4eb14610a5f578063b187bd2614610a9c578063b88d4fde14610ac757610379565b80638bf3bfc411610164578063a0263a391161013e578063a0263a39146109b9578063a1e57ac1146109e2578063a22cb46514610a0b578063a2309ff814610a3457610379565b80638bf3bfc4146109265780638da5cb5b1461096357806395d89b411461098e57610379565b806370a082311461083c578063715018a6146108795780637db3aecc1461089057806382c85c3f146108bb5780638456cb59146108e65780638a25dbc1146108fd57610379565b80633d2722941161028557806351830227116102235780636352211e116101fd5780636352211e1461078057806365f13097146107bd57806368e076b4146107e85780636e83843a1461081357610379565b806351830227146107015780635d82cf6e1461072c57806362c385211461075557610379565b806342842e0e1161025f57806342842e0e14610649578063484b973c1461067257806348571b351461069b5780634c261247146106d857610379565b80633d272294146105de5780633ea2357d146106075780633f4ba83a1461063257610379565b80630c1c972a116102f25780632c4e9fc6116102cc5780632c4e9fc61461052f5780632db115441461055a57806332cb6b0c1461057657806334c48943146105a157610379565b80630c1c972a146104c45780631bc2375e146104db57806323b872dd1461050657610379565b806301ffc9a7146103b45780630474b696146103f157806306fdde0314610408578063081812fc146104335780630906726214610470578063095ea7b31461049b57610379565b36610379577f1e57e3bb474320be3d2c77138f75b7c3941292d647f5f9634e33a8e94e0e069b333460405161036f9291906135ff565b60405180910390a1005b7f1e57e3bb474320be3d2c77138f75b7c3941292d647f5f9634e33a8e94e0e069b33346040516103aa9291906135ff565b60405180910390a1005b3480156103c057600080fd5b506103db60048036038101906103d69190613694565b610cb0565b6040516103e891906136dc565b60405180910390f35b3480156103fd57600080fd5b50610406610d92565b005b34801561041457600080fd5b5061041d610db7565b60405161042a9190613787565b60405180910390f35b34801561043f57600080fd5b5061045a600480360381019061045591906137d5565b610e49565b6040516104679190613802565b60405180910390f35b34801561047c57600080fd5b50610485610e65565b6040516104929190613836565b60405180910390f35b3480156104a757600080fd5b506104c260048036038101906104bd919061387d565b610e6b565b005b3480156104d057600080fd5b506104d9610e81565b005b3480156104e757600080fd5b506104f0610ea6565b6040516104fd91906138bd565b60405180910390f35b34801561051257600080fd5b5061052d600480360381019061052891906138d8565b610eac565b005b34801561053b57600080fd5b50610544610fae565b60405161055191906138bd565b60405180910390f35b610574600480360381019061056f91906137d5565b610fb4565b005b34801561058257600080fd5b5061058b61123a565b60405161059891906138bd565b60405180910390f35b3480156105ad57600080fd5b506105c860048036038101906105c3919061392b565b611240565b6040516105d591906138bd565b60405180910390f35b3480156105ea57600080fd5b50610605600480360381019061060091906137d5565b611258565b005b34801561061357600080fd5b5061061c61126a565b60405161062991906138bd565b60405180910390f35b34801561063e57600080fd5b50610647611270565b005b34801561065557600080fd5b50610670600480360381019061066b91906138d8565b611295565b005b34801561067e57600080fd5b506106996004803603810190610694919061387d565b6112b5565b005b3480156106a757600080fd5b506106c260048036038101906106bd91906139bd565b6113f6565b6040516106cf91906136dc565b60405180910390f35b3480156106e457600080fd5b506106ff60048036038101906106fa9190613b3a565b6114e8565b005b34801561070d57600080fd5b50610716611555565b60405161072391906136dc565b60405180910390f35b34801561073857600080fd5b50610753600480360381019061074e91906137d5565b611568565b005b34801561076157600080fd5b5061076a61157a565b60405161077791906138bd565b60405180910390f35b34801561078c57600080fd5b506107a760048036038101906107a291906137d5565b611580565b6040516107b49190613802565b60405180910390f35b3480156107c957600080fd5b506107d2611592565b6040516107df91906138bd565b60405180910390f35b3480156107f457600080fd5b506107fd611597565b60405161080a91906138bd565b60405180910390f35b34801561081f57600080fd5b5061083a60048036038101906108359190613b3a565b61159d565b005b34801561084857600080fd5b50610863600480360381019061085e919061392b565b6115f1565b60405161087091906138bd565b60405180910390f35b34801561088557600080fd5b5061088e6116ab565b005b34801561089c57600080fd5b506108a56116bf565b6040516108b291906136dc565b60405180910390f35b3480156108c757600080fd5b506108d06116d2565b6040516108dd9190613836565b60405180910390f35b3480156108f257600080fd5b506108fb6116d8565b005b34801561090957600080fd5b50610924600480360381019061091f91906137d5565b6116fd565b005b34801561093257600080fd5b5061094d6004803603810190610948919061392b565b61170f565b60405161095a91906138bd565b60405180910390f35b34801561096f57600080fd5b50610978611727565b6040516109859190613802565b60405180910390f35b34801561099a57600080fd5b506109a3611751565b6040516109b09190613787565b60405180910390f35b3480156109c557600080fd5b506109e060048036038101906109db9190613baf565b6117e3565b005b3480156109ee57600080fd5b50610a096004803603810190610a049190613c32565b6117f7565b005b348015610a1757600080fd5b50610a326004803603810190610a2d9190613cab565b611975565b005b348015610a4057600080fd5b50610a4961198b565b604051610a5691906138bd565b60405180910390f35b348015610a6b57600080fd5b50610a866004803603810190610a81919061392b565b611991565b604051610a9391906138bd565b60405180910390f35b348015610aa857600080fd5b50610ab16119a9565b604051610abe91906136dc565b60405180910390f35b348015610ad357600080fd5b50610aee6004803603810190610ae99190613d8c565b6119bc565b005b348015610afc57600080fd5b50610b056119d9565b604051610b1291906136dc565b60405180910390f35b348015610b2757600080fd5b50610b426004803603810190610b3d9190613baf565b6119ec565b005b348015610b5057600080fd5b50610b59611a00565b604051610b6691906138bd565b60405180910390f35b348015610b7b57600080fd5b50610b966004803603810190610b9191906137d5565b611a05565b604051610ba39190613787565b60405180910390f35b348015610bb857600080fd5b50610bc1611b0d565b005b348015610bcf57600080fd5b50610bd8611b32565b604051610be591906138bd565b60405180910390f35b348015610bfa57600080fd5b50610c156004803603810190610c109190613e0f565b611b38565b604051610c2291906136dc565b60405180910390f35b348015610c3757600080fd5b50610c526004803603810190610c4d919061392b565b611bcc565b005b348015610c6057600080fd5b50610c7b6004803603810190610c769190613e8d565b611c52565b005b610c976004803603810190610c929190613ecd565b611e49565b005b348015610ca557600080fd5b50610cae6123fe565b005b60007f80ac58cd000000000000000000000000000000000000000000000000000000007bffffffffffffffffffffffffffffffffffffffffffffffffffffffff1916827bffffffffffffffffffffffffffffffffffffffffffffffffffffffff19161480610d7b57507f5b5e139f000000000000000000000000000000000000000000000000000000007bffffffffffffffffffffffffffffffffffffffffffffffffffffffff1916827bffffffffffffffffffffffffffffffffffffffffffffffffffffffff1916145b80610d8b5750610d8a82612423565b5b9050919050565b610d9a61248d565b6000601460026101000a81548160ff021916908315150217905550565b606060008054610dc690613f70565b80601f0160208091040260200160405190810160405280929190818152602001828054610df290613f70565b8015610e3f5780601f10610e1457610100808354040283529160200191610e3f565b820191906000526020600020905b815481529060010190602001808311610e2257829003601f168201915b5050505050905090565b6000610e5482612514565b50610e5e8261259c565b9050919050565b60095481565b610e7d8282610e786125d9565b6125e1565b5050565b610e8961248d565b6001601460036101000a81548160ff021916908315150217905550565b61012c81565b600073ffffffffffffffffffffffffffffffffffffffff168273ffffffffffffffffffffffffffffffffffffffff1603610f1e5760006040517f64a0ae92000000000000000000000000000000000000000000000000000000008152600401610f159190613802565b60405180910390fd5b6000610f328383610f2d6125d9565b6125f3565b90508373ffffffffffffffffffffffffffffffffffffffff168173ffffffffffffffffffffffffffffffffffffffff1614610fa8578382826040517f64283d7b000000000000000000000000000000000000000000000000000000008152600401610f9f93929190613fa1565b60405180910390fd5b50505050565b600f5481565b610fbc61280d565b601460009054906101000a900460ff161561100c576040517f08c379a000000000000000000000000000000000000000000000000000000000815260040161100390614024565b60405180910390fd5b601460039054906101000a900460ff1661105b576040517f08c379a000000000000000000000000000000000000000000000000000000000815260040161105290614090565b60405180910390fd5b6000811161109e576040517f08c379a0000000000000000000000000000000000000000000000000000000008152600401611095906140fc565b60405180910390fd5b6103e7816013546110af919061414b565b11156110f0576040517f08c379a00000000000000000000000000000000000000000000000000000000081526004016110e7906141cb565b60405180910390fd5b600381600c60003373ffffffffffffffffffffffffffffffffffffffff1673ffffffffffffffffffffffffffffffffffffffff1681526020019081526020016000205461113d919061414b565b111561117e576040517f08c379a00000000000000000000000000000000000000000000000000000000081526004016111759061425d565b60405180910390fd5b8060105461118c919061427d565b34146111cd576040517f08c379a00000000000000000000000000000000000000000000000000000000081526004016111c49061430b565b60405180910390fd5b6111d933826000612853565b80600c60003373ffffffffffffffffffffffffffffffffffffffff1673ffffffffffffffffffffffffffffffffffffffff1681526020019081526020016000206000828254611228919061414b565b92505081905550611237612a21565b50565b6103e781565b600c6020528060005260406000206000915090505481565b61126061248d565b80600f8190555050565b60125481565b61127861248d565b6000601460006101000a81548160ff021916908315150217905550565b6112b0838383604051806020016040528060008152506119bc565b505050565b6112bd61248d565b601460009054906101000a900460ff161561130d576040517f08c379a000000000000000000000000000000000000000000000000000000000815260040161130490614024565b60405180910390fd5b6103e78160135461131e919061414b565b111561135f576040517f08c379a000000000000000000000000000000000000000000000000000000000815260040161135690614377565b60405180910390fd5b600081116113a2576040517f08c379a0000000000000000000000000000000000000000000000000000000008152600401611399906140fc565b60405180910390fd5b60148111156113e6576040517f08c379a00000000000000000000000000000000000000000000000000000000081526004016113dd90614409565b60405180910390fd5b6113f282826002612853565b5050565b6000803360405160200161140a9190614471565b604051602081830303815290604052805190602001209050611470848480806020026020016040519081016040528093929190818152602001838360200280828437600081840152601f19601f8201169050808301925050505050505060085483612a2b565b1561147f5760019150506114e2565b6114cd848480806020026020016040519081016040528093929190818152602001838360200280828437600081840152601f19601f8201169050808301925050505050505060095483612a2b565b156114dc5760019150506114e2565b60009150505b92915050565b6114f061248d565b6001601460016101000a81548160ff02191690831515021790555080600d908161151a9190614638565b507f09aeffebf08fc44a38a139bbfafcc95e27b04cc8690c84246a34c2bd67f3d9b98160405161154a9190613787565b60405180910390a150565b601460019054906101000a900460ff1681565b61157061248d565b8060108190555050565b60115481565b600061158b82612514565b9050919050565b600381565b6103e781565b6115a561248d565b80600d90816115b49190614638565b507f287fb35d24416ff0dd04e0934f29883f30a8ed9a5a8aef3bf65d165b01aa0e4281336040516115e692919061470a565b60405180910390a150565b60008073ffffffffffffffffffffffffffffffffffffffff168273ffffffffffffffffffffffffffffffffffffffff16036116645760006040517f89c62b6400000000000000000000000000000000000000000000000000000000815260040161165b9190613802565b60405180910390fd5b600360008373ffffffffffffffffffffffffffffffffffffffff1673ffffffffffffffffffffffffffffffffffffffff168152602001908152602001600020549050919050565b6116b361248d565b6116bd6000612a42565b565b601460029054906101000a900460ff1681565b60085481565b6116e061248d565b6001601460006101000a81548160ff021916908315150217905550565b61170561248d565b8060118190555050565b600a6020528060005260406000206000915090505481565b6000600660009054906101000a900473ffffffffffffffffffffffffffffffffffffffff16905090565b60606001805461176090613f70565b80601f016020809104026020016040519081016040528092919081815260200182805461178c90613f70565b80156117d95780601f106117ae576101008083540402835291602001916117d9565b820191906000526020600020905b8154815290600101906020018083116117bc57829003601f168201915b5050505050905090565b6117eb61248d565b6117f481612b08565b50565b6117ff61248d565b601460009054906101000a900460ff161561184f576040517f08c379a000000000000000000000000000000000000000000000000000000000815260040161184690614024565b60405180910390fd5b6103e782829050601354611863919061414b565b11156118a4576040517f08c379a000000000000000000000000000000000000000000000000000000000815260040161189b90614377565b60405180910390fd5b60005b828290508110156119705760008383838181106118c7576118c661473a565b5b90506020020160208101906118dc919061392b565b9050600060016013546118ef919061414b565b90506118fb8282612b1a565b6013600081548092919061190e90614769565b91905055508173ffffffffffffffffffffffffffffffffffffffff167f8948190f8a410df5d2482307c1bcf45b2452c4c52e341e8bbd80b0190bfb78058260405161195991906138bd565b60405180910390a2505080806001019150506118a7565b505050565b6119876119806125d9565b8383612c13565b5050565b60135481565b600b6020528060005260406000206000915090505481565b601460009054906101000a900460ff1681565b6119c7848484610eac565b6119d384848484612d82565b50505050565b601460039054906101000a900460ff1681565b6119f461248d565b6119fd81612f39565b50565b600281565b6060611a1082612514565b506000601460019054906101000a900460ff16611a2e57600e611a31565b600d5b8054611a3c90613f70565b80601f0160208091040260200160405190810160405280929190818152602001828054611a6890613f70565b8015611ab55780601f10611a8a57610100808354040283529160200191611ab5565b820191906000526020600020905b815481529060010190602001808311611a9857829003601f168201915b505050505090506000815111611ada5760405180602001604052806000815250611b05565b80611ae484612f4b565b604051602001611af5929190614839565b6040516020818303038152906040525b915050919050565b611b1561248d565b6000601460036101000a81548160ff021916908315150217905550565b60105481565b6000600560008473ffffffffffffffffffffffffffffffffffffffff1673ffffffffffffffffffffffffffffffffffffffff16815260200190815260200160002060008373ffffffffffffffffffffffffffffffffffffffff1673ffffffffffffffffffffffffffffffffffffffff16815260200190815260200160002060009054906101000a900460ff16905092915050565b611bd461248d565b600073ffffffffffffffffffffffffffffffffffffffff168173ffffffffffffffffffffffffffffffffffffffff1603611c465760006040517f1e4fbdf7000000000000000000000000000000000000000000000000000000008152600401611c3d9190613802565b60405180910390fd5b611c4f81612a42565b50565b611c5a61248d565b611c6261280d565b600073ffffffffffffffffffffffffffffffffffffffff168273ffffffffffffffffffffffffffffffffffffffff1603611cd1576040517f08c379a0000000000000000000000000000000000000000000000000000000008152600401611cc8906148b4565b60405180910390fd5b60008111611d14576040517f08c379a0000000000000000000000000000000000000000000000000000000008152600401611d0b90614920565b60405180910390fd5b80471015611d57576040517f08c379a0000000000000000000000000000000000000000000000000000000008152600401611d4e9061498c565b60405180910390fd5b60008273ffffffffffffffffffffffffffffffffffffffff1682604051611d7d906149dd565b60006040518083038185875af1925050503d8060008114611dba576040519150601f19603f3d011682016040523d82523d6000602084013e611dbf565b606091505b5050905080611e03576040517f08c379a0000000000000000000000000000000000000000000000000000000008152600401611dfa90614a3e565b60405180910390fd5b7f8c7cdad0d12a8db3e23561b42da6f10c8137914c97beff202213a410e1f520a38284604051611e34929190614ab3565b60405180910390a150611e45612a21565b5050565b611e5161280d565b601460009054906101000a900460ff1615611ea1576040517f08c379a0000000000000000000000000000000000000000000000000000000008152600401611e9890614024565b60405180910390fd5b601460029054906101000a900460ff16611ef0576040517f08c379a0000000000000000000000000000000000000000000000000000000008152600401611ee790614b28565b60405180910390fd5b6001811480611eff5750600281145b611f3e576040517f08c379a0000000000000000000000000000000000000000000000000000000008152600401611f3590614b94565b60405180910390fd5b6103e782601354611f4f919061414b565b1115611f90576040517f08c379a0000000000000000000000000000000000000000000000000000000008152600401611f87906141cb565b60405180910390fd5b600060018203611fa4576011549050611fb2565b60028203611fb157600290505b5b600083118015611fc25750808311155b612001576040517f08c379a0000000000000000000000000000000000000000000000000000000008152600401611ff890614c00565b60405180910390fd5b6000336040516020016120149190614471565b60405160208183030381529060405280519060200120905060006001841461203e57600954612042565b6008545b9050612090878780806020026020016040519081016040528093929190818152602001838360200280828437600081840152601f19601f820116905080830192505050505050508284612a2b565b600185146120b657604051806060016040528060228152602001614ea6602291396120ed565b6040518060400160405280601f81526020017f496e76616c696420416464726573733a204f6861796f20574c2047726f7570008152505b9061212e576040517f08c379a00000000000000000000000000000000000000000000000000000000081526004016121259190613787565b60405180910390fd5b506001840361221d5760115485600a60003373ffffffffffffffffffffffffffffffffffffffff1673ffffffffffffffffffffffffffffffffffffffff16815260200190815260200160002054612185919061414b565b11156121c6576040517f08c379a00000000000000000000000000000000000000000000000000000000081526004016121bd90614c6c565b60405180910390fd5b61012c856012546121d7919061414b565b1115612218576040517f08c379a000000000000000000000000000000000000000000000000000000000815260040161220f90614cd8565b60405180910390fd5b6122b5565b600284036122b457600285600b60003373ffffffffffffffffffffffffffffffffffffffff1673ffffffffffffffffffffffffffffffffffffffff16815260200190815260200160002054612272919061414b565b11156122b3576040517f08c379a00000000000000000000000000000000000000000000000000000000081526004016122aa90614d44565b60405180910390fd5b5b5b60006122c086613019565b9050803414612304576040517f08c379a00000000000000000000000000000000000000000000000000000000081526004016122fb9061430b565b60405180910390fd5b61231033876001612853565b6001850361238c5785600a60003373ffffffffffffffffffffffffffffffffffffffff1673ffffffffffffffffffffffffffffffffffffffff1681526020019081526020016000206000828254612367919061414b565b925050819055508560126000828254612380919061414b565b925050819055506123ec565b600285036123eb5785600b60003373ffffffffffffffffffffffffffffffffffffffff1673ffffffffffffffffffffffffffffffffffffffff16815260200190815260200160002060008282546123e3919061414b565b925050819055505b5b505050506123f8612a21565b50505050565b61240661248d565b6001601460026101000a81548160ff021916908315150217905550565b60007f01ffc9a7000000000000000000000000000000000000000000000000000000007bffffffffffffffffffffffffffffffffffffffffffffffffffffffff1916827bffffffffffffffffffffffffffffffffffffffffffffffffffffffff1916149050919050565b6124956125d9565b73ffffffffffffffffffffffffffffffffffffffff166124b3611727565b73ffffffffffffffffffffffffffffffffffffffff1614612512576124d66125d9565b6040517f118cdaa70000000000000000000000000000000000000000000000000000000081526004016125099190613802565b60405180910390fd5b565b60008061252083613039565b9050600073ffffffffffffffffffffffffffffffffffffffff168173ffffffffffffffffffffffffffffffffffffffff160361259357826040517f7e27328900000000000000000000000000000000000000000000000000000000815260040161258a91906138bd565b60405180910390fd5b80915050919050565b60006004600083815260200190815260200160002060009054906101000a900473ffffffffffffffffffffffffffffffffffffffff169050919050565b600033905090565b6125ee8383836001613076565b505050565b6000806125ff84613039565b9050600073ffffffffffffffffffffffffffffffffffffffff168373ffffffffffffffffffffffffffffffffffffffff16146126415761264081848661323b565b5b600073ffffffffffffffffffffffffffffffffffffffff168173ffffffffffffffffffffffffffffffffffffffff16146126d257612683600085600080613076565b6001600360008373ffffffffffffffffffffffffffffffffffffffff1673ffffffffffffffffffffffffffffffffffffffff168152602001908152602001600020600082825403925050819055505b600073ffffffffffffffffffffffffffffffffffffffff168573ffffffffffffffffffffffffffffffffffffffff1614612755576001600360008773ffffffffffffffffffffffffffffffffffffffff1673ffffffffffffffffffffffffffffffffffffffff168152602001908152602001600020600082825401925050819055505b846002600086815260200190815260200160002060006101000a81548173ffffffffffffffffffffffffffffffffffffffff021916908373ffffffffffffffffffffffffffffffffffffffff160217905550838573ffffffffffffffffffffffffffffffffffffffff168273ffffffffffffffffffffffffffffffffffffffff167fddf252ad1be2c89b69c2b068fc378daa952ba7f163c4a11628f55a4df523b3ef60405160405180910390a4809150509392505050565b600260075403612849576040517f3ee5aeb500000000000000000000000000000000000000000000000000000000815260040160405180910390fd5b6002600781905550565b60005b82811015612a1b576000600160135461286f919061414b565b905061287b8582612b1a565b6013600081548092919061288e90614769565b9190505550600060028111156128a7576128a6614d64565b5b8360028111156128ba576128b9614d64565b5b03612912578473ffffffffffffffffffffffffffffffffffffffff167fab9980fb1d2916bce9017edd1be458e3f56d0899b3367cb3a8be97483fbe069b8260405161290591906138bd565b60405180910390a2612a0d565b6001600281111561292657612925614d64565b5b83600281111561293957612938614d64565b5b03612991578473ffffffffffffffffffffffffffffffffffffffff167fce77e469b386be007f957632f6f65216f2e74c5daa303aff682e8296f628d0108260405161298491906138bd565b60405180910390a2612a0c565b6002808111156129a4576129a3614d64565b5b8360028111156129b7576129b6614d64565b5b03612a0b578473ffffffffffffffffffffffffffffffffffffffff167fb50eb0c1f59aa2c3398e720d868b9224179e36125bff674d6df4bae98b2591a582604051612a0291906138bd565b60405180910390a25b5b5b508080600101915050612856565b50505050565b6001600781905550565b600082612a3885846132ff565b1490509392505050565b6000600660009054906101000a900473ffffffffffffffffffffffffffffffffffffffff16905081600660006101000a81548173ffffffffffffffffffffffffffffffffffffffff021916908373ffffffffffffffffffffffffffffffffffffffff1602179055508173ffffffffffffffffffffffffffffffffffffffff168173ffffffffffffffffffffffffffffffffffffffff167f8be0079c531659141344cd1fd0a4f28419497f9722a3daafe3b4186f6b6457e060405160405180910390a35050565b612b1061248d565b8060098190555050565b600073ffffffffffffffffffffffffffffffffffffffff168273ffffffffffffffffffffffffffffffffffffffff1603612b8c5760006040517f64a0ae92000000000000000000000000000000000000000000000000000000008152600401612b839190613802565b60405180910390fd5b6000612b9a838360006125f3565b9050600073ffffffffffffffffffffffffffffffffffffffff168173ffffffffffffffffffffffffffffffffffffffff1614612c0e5760006040517f73c6ac6e000000000000000000000000000000000000000000000000000000008152600401612c059190613802565b60405180910390fd5b505050565b600073ffffffffffffffffffffffffffffffffffffffff168273ffffffffffffffffffffffffffffffffffffffff1603612c8457816040517f5b08ba18000000000000000000000000000000000000000000000000000000008152600401612c7b9190613802565b60405180910390fd5b80600560008573ffffffffffffffffffffffffffffffffffffffff1673ffffffffffffffffffffffffffffffffffffffff16815260200190815260200160002060008473ffffffffffffffffffffffffffffffffffffffff1673ffffffffffffffffffffffffffffffffffffffff16815260200190815260200160002060006101000a81548160ff0219169083151502179055508173ffffffffffffffffffffffffffffffffffffffff168373ffffffffffffffffffffffffffffffffffffffff167f17307eab39ab6107e8899845ad3d59bd9653f200f220920489ca2b5937696c3183604051612d7591906136dc565b60405180910390a3505050565b60008373ffffffffffffffffffffffffffffffffffffffff163b1115612f33578273ffffffffffffffffffffffffffffffffffffffff1663150b7a02612dc66125d9565b8685856040518563ffffffff1660e01b8152600401612de89493929190614de8565b6020604051808303816000875af1925050508015612e2457506040513d601f19601f82011682018060405250810190612e219190614e49565b60015b612ea8573d8060008114612e54576040519150601f19603f3d011682016040523d82523d6000602084013e612e59565b606091505b506000815103612ea057836040517f64a0ae92000000000000000000000000000000000000000000000000000000008152600401612e979190613802565b60405180910390fd5b805181602001fd5b63150b7a0260e01b7bffffffffffffffffffffffffffffffffffffffffffffffffffffffff1916817bffffffffffffffffffffffffffffffffffffffffffffffffffffffff191614612f3157836040517f64a0ae92000000000000000000000000000000000000000000000000000000008152600401612f289190613802565b60405180910390fd5b505b50505050565b612f4161248d565b8060088190555050565b606060006001612f5a8461334f565b01905060008167ffffffffffffffff811115612f7957612f78613a0f565b5b6040519080825280601f01601f191660200182016040528015612fab5781602001600182028036833780820191505090505b509050600082602001820190505b60011561300e578080600190039150507f3031323334353637383961626364656600000000000000000000000000000000600a86061a8153600a858161300257613001614e76565b5b04945060008503612fb9575b819350505050919050565b60008060009050600f548361302e919061427d565b905080915050919050565b60006002600083815260200190815260200160002060009054906101000a900473ffffffffffffffffffffffffffffffffffffffff169050919050565b80806130af5750600073ffffffffffffffffffffffffffffffffffffffff168273ffffffffffffffffffffffffffffffffffffffff1614155b156131e35760006130bf84612514565b9050600073ffffffffffffffffffffffffffffffffffffffff168373ffffffffffffffffffffffffffffffffffffffff161415801561312a57508273ffffffffffffffffffffffffffffffffffffffff168173ffffffffffffffffffffffffffffffffffffffff1614155b801561313d575061313b8184611b38565b155b1561317f57826040517fa9fbf51f0000000000000000000000000000000000000000000000000000000081526004016131769190613802565b60405180910390fd5b81156131e157838573ffffffffffffffffffffffffffffffffffffffff168273ffffffffffffffffffffffffffffffffffffffff167f8c5be1e5ebec7d5bd14f71427d1e84f3dd0314c0f7b2291e5b200ac8c7c3b92560405160405180910390a45b505b836004600085815260200190815260200160002060006101000a81548173ffffffffffffffffffffffffffffffffffffffff021916908373ffffffffffffffffffffffffffffffffffffffff16021790555050505050565b6132468383836134a2565b6132fa57600073ffffffffffffffffffffffffffffffffffffffff168373ffffffffffffffffffffffffffffffffffffffff16036132bb57806040517f7e2732890000000000000000000000000000000000000000000000000000000081526004016132b291906138bd565b60405180910390fd5b81816040517f177e802f0000000000000000000000000000000000000000000000000000000081526004016132f19291906135ff565b60405180910390fd5b505050565b60008082905060005b845181101561334457613335828683815181106133285761332761473a565b5b6020026020010151613563565b91508080600101915050613308565b508091505092915050565b600080600090507a184f03e93ff9f4daa797ed6e38ed64bf6a1f01000000000000000083106133ad577a184f03e93ff9f4daa797ed6e38ed64bf6a1f01000000000000000083816133a3576133a2614e76565b5b0492506040810190505b6d04ee2d6d415b85acef810000000083106133ea576d04ee2d6d415b85acef810000000083816133e0576133df614e76565b5b0492506020810190505b662386f26fc10000831061341957662386f26fc10000838161340f5761340e614e76565b5b0492506010810190505b6305f5e1008310613442576305f5e100838161343857613437614e76565b5b0492506008810190505b612710831061346757612710838161345d5761345c614e76565b5b0492506004810190505b6064831061348a57606483816134805761347f614e76565b5b0492506002810190505b600a8310613499576001810190505b80915050919050565b60008073ffffffffffffffffffffffffffffffffffffffff168373ffffffffffffffffffffffffffffffffffffffff161415801561355a57508273ffffffffffffffffffffffffffffffffffffffff168473ffffffffffffffffffffffffffffffffffffffff16148061351b575061351a8484611b38565b5b8061355957508273ffffffffffffffffffffffffffffffffffffffff166135418361259c565b73ffffffffffffffffffffffffffffffffffffffff16145b5b90509392505050565b600081831061357b57613576828461358e565b613586565b613585838361358e565b5b905092915050565b600082600052816020526040600020905092915050565b600073ffffffffffffffffffffffffffffffffffffffff82169050919050565b60006135d0826135a5565b9050919050565b6135e0816135c5565b82525050565b6000819050919050565b6135f9816135e6565b82525050565b600060408201905061361460008301856135d7565b61362160208301846135f0565b9392505050565b6000604051905090565b600080fd5b600080fd5b60007fffffffff0000000000000000000000000000000000000000000000000000000082169050919050565b6136718161363c565b811461367c57600080fd5b50565b60008135905061368e81613668565b92915050565b6000602082840312156136aa576136a9613632565b5b60006136b88482850161367f565b91505092915050565b60008115159050919050565b6136d6816136c1565b82525050565b60006020820190506136f160008301846136cd565b92915050565b600081519050919050565b600082825260208201905092915050565b60005b83811015613731578082015181840152602081019050613716565b60008484015250505050565b6000601f19601f8301169050919050565b6000613759826136f7565b6137638185613702565b9350613773818560208601613713565b61377c8161373d565b840191505092915050565b600060208201905081810360008301526137a1818461374e565b905092915050565b6137b2816135e6565b81146137bd57600080fd5b50565b6000813590506137cf816137a9565b92915050565b6000602082840312156137eb576137ea613632565b5b60006137f9848285016137c0565b91505092915050565b600060208201905061381760008301846135d7565b92915050565b6000819050919050565b6138308161381d565b82525050565b600060208201905061384b6000830184613827565b92915050565b61385a816135c5565b811461386557600080fd5b50565b60008135905061387781613851565b92915050565b6000806040838503121561389457613893613632565b5b60006138a285828601613868565b92505060206138b3858286016137c0565b9150509250929050565b60006020820190506138d260008301846135f0565b92915050565b6000806000606084860312156138f1576138f0613632565b5b60006138ff86828701613868565b935050602061391086828701613868565b9250506040613921868287016137c0565b9150509250925092565b60006020828403121561394157613940613632565b5b600061394f84828501613868565b91505092915050565b600080fd5b600080fd5b600080fd5b60008083601f84011261397d5761397c613958565b5b8235905067ffffffffffffffff81111561399a5761399961395d565b5b6020830191508360208202830111156139b6576139b5613962565b5b9250929050565b600080602083850312156139d4576139d3613632565b5b600083013567ffffffffffffffff8111156139f2576139f1613637565b5b6139fe85828601613967565b92509250509250929050565b600080fd5b7f4e487b7100000000000000000000000000000000000000000000000000000000600052604160045260246000fd5b613a478261373d565b810181811067ffffffffffffffff82111715613a6657613a65613a0f565b5b80604052505050565b6000613a79613628565b9050613a858282613a3e565b919050565b600067ffffffffffffffff821115613aa557613aa4613a0f565b5b613aae8261373d565b9050602081019050919050565b82818337600083830152505050565b6000613add613ad884613a8a565b613a6f565b905082815260208101848484011115613af957613af8613a0a565b5b613b04848285613abb565b509392505050565b600082601f830112613b2157613b20613958565b5b8135613b31848260208601613aca565b91505092915050565b600060208284031215613b5057613b4f613632565b5b600082013567ffffffffffffffff811115613b6e57613b6d613637565b5b613b7a84828501613b0c565b91505092915050565b613b8c8161381d565b8114613b9757600080fd5b50565b600081359050613ba981613b83565b92915050565b600060208284031215613bc557613bc4613632565b5b6000613bd384828501613b9a565b91505092915050565b60008083601f840112613bf257613bf1613958565b5b8235905067ffffffffffffffff811115613c0f57613c0e61395d565b5b602083019150836020820283011115613c2b57613c2a613962565b5b9250929050565b60008060208385031215613c4957613c48613632565b5b600083013567ffffffffffffffff811115613c6757613c66613637565b5b613c7385828601613bdc565b92509250509250929050565b613c88816136c1565b8114613c9357600080fd5b50565b600081359050613ca581613c7f565b92915050565b60008060408385031215613cc257613cc1613632565b5b6000613cd085828601613868565b9250506020613ce185828601613c96565b9150509250929050565b600067ffffffffffffffff821115613d0657613d05613a0f565b5b613d0f8261373d565b9050602081019050919050565b6000613d2f613d2a84613ceb565b613a6f565b905082815260208101848484011115613d4b57613d4a613a0a565b5b613d56848285613abb565b509392505050565b600082601f830112613d7357613d72613958565b5b8135613d83848260208601613d1c565b91505092915050565b60008060008060808587031215613da657613da5613632565b5b6000613db487828801613868565b9450506020613dc587828801613868565b9350506040613dd6878288016137c0565b925050606085013567ffffffffffffffff811115613df757613df6613637565b5b613e0387828801613d5e565b91505092959194509250565b60008060408385031215613e2657613e25613632565b5b6000613e3485828601613868565b9250506020613e4585828601613868565b9150509250929050565b6000613e5a826135a5565b9050919050565b613e6a81613e4f565b8114613e7557600080fd5b50565b600081359050613e8781613e61565b92915050565b60008060408385031215613ea457613ea3613632565b5b6000613eb285828601613e78565b9250506020613ec3858286016137c0565b9150509250929050565b60008060008060608587031215613ee757613ee6613632565b5b600085013567ffffffffffffffff811115613f0557613f04613637565b5b613f1187828801613967565b94509450506020613f24878288016137c0565b9250506040613f35878288016137c0565b91505092959194509250565b7f4e487b7100000000000000000000000000000000000000000000000000000000600052602260045260246000fd5b60006002820490506001821680613f8857607f821691505b602082108103613f9b57613f9a613f41565b5b50919050565b6000606082019050613fb660008301866135d7565b613fc360208301856135f0565b613fd060408301846135d7565b949350505050565b7f436f6e7472616374206973207061757365640000000000000000000000000000600082015250565b600061400e601283613702565b915061401982613fd8565b602082019050919050565b6000602082019050818103600083015261403d81614001565b9050919050565b7f5075626c69632073616c65206973206e6f74206f70656e000000000000000000600082015250565b600061407a601783613702565b915061408582614044565b602082019050919050565b600060208201905081810360008301526140a98161406d565b9050919050565b7f4d757374206d696e74206174206c65617374206f6e6520746f6b656e00000000600082015250565b60006140e6601c83613702565b91506140f1826140b0565b602082019050919050565b60006020820190508181036000830152614115816140d9565b9050919050565b7f4e487b7100000000000000000000000000000000000000000000000000000000600052601160045260246000fd5b6000614156826135e6565b9150614161836135e6565b92508282019050808211156141795761417861411c565b5b92915050565b7f45786365656473206d617820737570706c790000000000000000000000000000600082015250565b60006141b5601283613702565b91506141c08261417f565b602082019050919050565b600060208201905081810360008301526141e4816141a8565b9050919050565b7f4d61782033204e46547320706572206164647265737320696e207075626c696360008201527f206d696e74000000000000000000000000000000000000000000000000000000602082015250565b6000614247602583613702565b9150614252826141eb565b604082019050919050565b600060208201905081810360008301526142768161423a565b9050919050565b6000614288826135e6565b9150614293836135e6565b92508282026142a1816135e6565b915082820484148315176142b8576142b761411c565b5b5092915050565b7f496e636f7272656374204554482076616c75652073656e740000000000000000600082015250565b60006142f5601883613702565b9150614300826142bf565b602082019050919050565b60006020820190508181036000830152614324816142e8565b9050919050565b7f4d696e74696e6720776f756c6420657863656564206d617820737570706c7900600082015250565b6000614361601f83613702565b915061436c8261432b565b602082019050919050565b6000602082019050818103600083015261439081614354565b9050919050565b7f4f776e65722063616e206f6e6c79206d696e7420757020746f20313020746f6b60008201527f656e7320617420612074696d6500000000000000000000000000000000000000602082015250565b60006143f3602d83613702565b91506143fe82614397565b604082019050919050565b60006020820190508181036000830152614422816143e6565b9050919050565b60008160601b9050919050565b600061444182614429565b9050919050565b600061445382614436565b9050919050565b61446b614466826135c5565b614448565b82525050565b600061447d828461445a565b60148201915081905092915050565b60008190508160005260206000209050919050565b60006020601f8301049050919050565b600082821b905092915050565b6000600883026144ee7fffffffffffffffffffffffffffffffffffffffffffffffffffffffffffffffff826144b1565b6144f886836144b1565b95508019841693508086168417925050509392505050565b6000819050919050565b600061453561453061452b846135e6565b614510565b6135e6565b9050919050565b6000819050919050565b61454f8361451a565b61456361455b8261453c565b8484546144be565b825550505050565b600090565b61457861456b565b614583818484614546565b505050565b5b818110156145a75761459c600082614570565b600181019050614589565b5050565b601f8211156145ec576145bd8161448c565b6145c6846144a1565b810160208510156145d5578190505b6145e96145e1856144a1565b830182614588565b50505b505050565b600082821c905092915050565b600061460f600019846008026145f1565b1980831691505092915050565b600061462883836145fe565b9150826002028217905092915050565b614641826136f7565b67ffffffffffffffff81111561465a57614659613a0f565b5b6146648254613f70565b61466f8282856145ab565b600060209050601f8311600181146146a25760008415614690578287015190505b61469a858261461c565b865550614702565b601f1984166146b08661448c565b60005b828110156146d8578489015182556001820191506020850194506020810190506146b3565b868310156146f557848901516146f1601f8916826145fe565b8355505b6001600288020188555050505b505050505050565b60006040820190508181036000830152614724818561374e565b905061473360208301846135d7565b9392505050565b7f4e487b7100000000000000000000000000000000000000000000000000000000600052603260045260246000fd5b6000614774826135e6565b91507fffffffffffffffffffffffffffffffffffffffffffffffffffffffffffffffff82036147a6576147a561411c565b5b600182019050919050565b600081905092915050565b60006147c7826136f7565b6147d181856147b1565b93506147e1818560208601613713565b80840191505092915050565b7f2e6a736f6e000000000000000000000000000000000000000000000000000000600082015250565b60006148236005836147b1565b915061482e826147ed565b600582019050919050565b600061484582856147bc565b915061485182846147bc565b915061485c82614816565b91508190509392505050565b7f496e76616c6964207769746864726177616c2061646472657373000000000000600082015250565b600061489e601a83613702565b91506148a982614868565b602082019050919050565b600060208201905081810360008301526148cd81614891565b9050919050565b7f416d6f756e74206d7573742062652067726561746572207468616e2030000000600082015250565b600061490a601d83613702565b9150614915826148d4565b602082019050919050565b60006020820190508181036000830152614939816148fd565b9050919050565b7f496e73756666696369656e7420636f6e74726163742062616c616e6365000000600082015250565b6000614976601d83613702565b915061498182614940565b602082019050919050565b600060208201905081810360008301526149a581614969565b9050919050565b600081905092915050565b50565b60006149c76000836149ac565b91506149d2826149b7565b600082019050919050565b60006149e8826149ba565b9150819050919050565b7f4661696c656420746f2073656e64204574686572000000000000000000000000600082015250565b6000614a28601483613702565b9150614a33826149f2565b602082019050919050565b60006020820190508181036000830152614a5781614a1b565b9050919050565b6000614a79614a74614a6f846135a5565b614510565b6135a5565b9050919050565b6000614a8b82614a5e565b9050919050565b6000614a9d82614a80565b9050919050565b614aad81614a92565b82525050565b6000604082019050614ac860008301856135f0565b614ad56020830184614aa4565b9392505050565b7f57686974656c6973742073616c65206973206e6f74206f70656e000000000000600082015250565b6000614b12601a83613702565b9150614b1d82614adc565b602082019050919050565b60006020820190508181036000830152614b4181614b05565b9050919050565b7f496e76616c69642067726f757020737065636966696564000000000000000000600082015250565b6000614b7e601783613702565b9150614b8982614b48565b602082019050919050565b60006020820190508181036000830152614bad81614b71565b9050919050565b7f43616e6e6f74206d696e74206d6f7265207468616e20616c6c6f776564000000600082015250565b6000614bea601d83613702565b9150614bf582614bb4565b602082019050919050565b60006020820190508181036000830152614c1981614bdd565b9050919050565b7f45786365656473204f6861796f20574c206c696d697400000000000000000000600082015250565b6000614c56601683613702565b9150614c6182614c20565b602082019050919050565b60006020820190508181036000830152614c8581614c49565b9050919050565b7f45786365656473204f6861796f206d617820737570706c790000000000000000600082015250565b6000614cc2601883613702565b9150614ccd82614c8c565b602082019050919050565b60006020820190508181036000830152614cf181614cb5565b9050919050565b7f45786365656473204368696d6b656e20574c206c696d69740000000000000000600082015250565b6000614d2e601883613702565b9150614d3982614cf8565b602082019050919050565b60006020820190508181036000830152614d5d81614d21565b9050919050565b7f4e487b7100000000000000000000000000000000000000000000000000000000600052602160045260246000fd5b600081519050919050565b600082825260208201905092915050565b6000614dba82614d93565b614dc48185614d9e565b9350614dd4818560208601613713565b614ddd8161373d565b840191505092915050565b6000608082019050614dfd60008301876135d7565b614e0a60208301866135d7565b614e1760408301856135f0565b8181036060830152614e298184614daf565b905095945050505050565b600081519050614e4381613668565b92915050565b600060208284031215614e5f57614e5e613632565b5b6000614e6d84828501614e34565b91505092915050565b7f4e487b7100000000000000000000000000000000000000000000000000000000600052601260045260246000fdfe496e76616c696420416464726573733a204368696d6b656e6c6973742047726f7570a2646970667358221220e322b7af88a5ee165f63f18ee6e78abe6f924fe1afce15c28e8c2f0385e12fee64736f6c6343000818003368747470733a2f2f617277656176652e6e65742f616b306e38345059447a77493446596a3438313076302d6c614879346f6b51667a62444f313276347373732f",
  "devdoc": {
    "errors": {
      "ERC721IncorrectOwner(address,uint256,address)": [
        {
          "details": "Indicates an error related to the ownership over a particular token. Used in transfers.",
          "params": {
            "owner": "Address of the current owner of a token.",
            "sender": "Address whose tokens are being transferred.",
            "tokenId": "Identifier number of a token."
          }
        }
      ],
      "ERC721InsufficientApproval(address,uint256)": [
        {
          "details": "Indicates a failure with the `operator`s approval. Used in transfers.",
          "params": {
            "operator": "Address that may be allowed to operate on tokens without being their owner.",
            "tokenId": "Identifier number of a token."
          }
        }
      ],
      "ERC721InvalidApprover(address)": [
        {
          "details": "Indicates a failure with the `approver` of a token to be approved. Used in approvals.",
          "params": {
            "approver": "Address initiating an approval operation."
          }
        }
      ],
      "ERC721InvalidOperator(address)": [
        {
          "details": "Indicates a failure with the `operator` to be approved. Used in approvals.",
          "params": {
            "operator": "Address that may be allowed to operate on tokens without being their owner."
          }
        }
      ],
      "ERC721InvalidOwner(address)": [
        {
          "details": "Indicates that an address can't be an owner. For example, `address(0)` is a forbidden owner in EIP-20. Used in balance queries.",
          "params": {
            "owner": "Address of the current owner of a token."
          }
        }
      ],
      "ERC721InvalidReceiver(address)": [
        {
          "details": "Indicates a failure with the token `receiver`. Used in transfers.",
          "params": {
            "receiver": "Address to which tokens are being transferred."
          }
        }
      ],
      "ERC721InvalidSender(address)": [
        {
          "details": "Indicates a failure with the token `sender`. Used in transfers.",
          "params": {
            "sender": "Address whose tokens are being transferred."
          }
        }
      ],
      "ERC721NonexistentToken(uint256)": [
        {
          "details": "Indicates a `tokenId` whose `owner` is the zero address.",
          "params": {
            "tokenId": "Identifier number of a token."
          }
        }
      ],
      "OwnableInvalidOwner(address)": [
        {
          "details": "The owner is not a valid owner account. (eg. `address(0)`)"
        }
      ],
      "OwnableUnauthorizedAccount(address)": [
        {
          "details": "The caller account is not authorized to perform an operation."
        }
      ],
      "ReentrancyGuardReentrantCall()": [
        {
          "details": "Unauthorized reentrant call."
        }
      ]
    },
    "events": {
      "Approval(address,address,uint256)": {
        "details": "Emitted when `owner` enables `approved` to manage the `tokenId` token."
      },
      "ApprovalForAll(address,address,bool)": {
        "details": "Emitted when `owner` enables or disables (`approved`) `operator` to manage all of its assets."
      },
      "Transfer(address,address,uint256)": {
        "details": "Emitted when `tokenId` token is transferred from `from` to `to`."
      }
    },
    "kind": "dev",
    "methods": {
      "approve(address,uint256)": {
        "details": "See {IERC721-approve}."
      },
      "balanceOf(address)": {
        "details": "See {IERC721-balanceOf}."
      },
      "getApproved(uint256)": {
        "details": "See {IERC721-getApproved}."
      },
      "isApprovedForAll(address,address)": {
        "details": "See {IERC721-isApprovedForAll}."
      },
      "name()": {
        "details": "See {IERC721Metadata-name}."
      },
      "owner()": {
        "details": "Returns the address of the current owner."
      },
      "ownerOf(uint256)": {
        "details": "See {IERC721-ownerOf}."
      },
      "renounceOwnership()": {
        "details": "Leaves the contract without owner. It will not be possible to call `onlyOwner` functions. Can only be called by the current owner. NOTE: Renouncing ownership will leave the contract without an owner, thereby disabling any functionality that is only available to the owner."
      },
      "safeTransferFrom(address,address,uint256)": {
        "details": "See {IERC721-safeTransferFrom}."
      },
      "safeTransferFrom(address,address,uint256,bytes)": {
        "details": "See {IERC721-safeTransferFrom}."
      },
      "setApprovalForAll(address,bool)": {
        "details": "See {IERC721-setApprovalForAll}."
      },
      "supportsInterface(bytes4)": {
        "details": "See {IERC165-supportsInterface}."
      },
      "symbol()": {
        "details": "See {IERC721Metadata-symbol}."
      },
      "tokenURI(uint256)": {
        "details": "See {IERC721Metadata-tokenURI}."
      },
      "transferFrom(address,address,uint256)": {
        "details": "See {IERC721-transferFrom}."
      },
      "transferOwnership(address)": {
        "details": "Transfers ownership of the contract to a new account (`newOwner`). Can only be called by the current owner."
      }
    },
    "version": 1
  },
  "userdoc": {
    "kind": "user",
    "methods": {},
    "version": 1
  },
  "storageLayout": {
    "storage": [
      {
        "astId": 317,
        "contract": "contracts/Chimkens.sol:Chimkens",
        "label": "_name",
        "offset": 0,
        "slot": "0",
        "type": "t_string_storage"
      },
      {
        "astId": 319,
        "contract": "contracts/Chimkens.sol:Chimkens",
        "label": "_symbol",
        "offset": 0,
        "slot": "1",
        "type": "t_string_storage"
      },
      {
        "astId": 323,
        "contract": "contracts/Chimkens.sol:Chimkens",
        "label": "_owners",
        "offset": 0,
        "slot": "2",
        "type": "t_mapping(t_uint256,t_address)"
      },
      {
        "astId": 327,
        "contract": "contracts/Chimkens.sol:Chimkens",
        "label": "_balances",
        "offset": 0,
        "slot": "3",
        "type": "t_mapping(t_address,t_uint256)"
      },
      {
        "astId": 331,
        "contract": "contracts/Chimkens.sol:Chimkens",
        "label": "_tokenApprovals",
        "offset": 0,
        "slot": "4",
        "type": "t_mapping(t_uint256,t_address)"
      },
      {
        "astId": 337,
        "contract": "contracts/Chimkens.sol:Chimkens",
        "label": "_operatorApprovals",
        "offset": 0,
        "slot": "5",
        "type": "t_mapping(t_address,t_mapping(t_address,t_bool))"
      },
      {
        "astId": 8,
        "contract": "contracts/Chimkens.sol:Chimkens",
        "label": "_owner",
        "offset": 0,
        "slot": "6",
        "type": "t_address"
      },
      {
        "astId": 1497,
        "contract": "contracts/Chimkens.sol:Chimkens",
        "label": "_status",
        "offset": 0,
        "slot": "7",
        "type": "t_uint256"
      },
      {
        "astId": 3556,
        "contract": "contracts/Chimkens.sol:Chimkens",
        "label": "ohayoMerkleRoot",
        "offset": 0,
        "slot": "8",
        "type": "t_bytes32"
      },
      {
        "astId": 3558,
        "contract": "contracts/Chimkens.sol:Chimkens",
        "label": "chimkenMerkleRoot",
        "offset": 0,
        "slot": "9",
        "type": "t_bytes32"
      },
      {
        "astId": 3562,
        "contract": "contracts/Chimkens.sol:Chimkens",
        "label": "ohayoMintedCount",
        "offset": 0,
        "slot": "10",
        "type": "t_mapping(t_address,t_uint256)"
      },
      {
        "astId": 3566,
        "contract": "contracts/Chimkens.sol:Chimkens",
        "label": "chimkenlistMintedCount",
        "offset": 0,
        "slot": "11",
        "type": "t_mapping(t_address,t_uint256)"
      },
      {
        "astId": 3570,
        "contract": "contracts/Chimkens.sol:Chimkens",
        "label": "publicMintedCount",
        "offset": 0,
        "slot": "12",
        "type": "t_mapping(t_address,t_uint256)"
      },
      {
        "astId": 3572,
        "contract": "contracts/Chimkens.sol:Chimkens",
        "label": "revealedBaseURI",
        "offset": 0,
        "slot": "13",
        "type": "t_string_storage"
      },
      {
        "astId": 3574,
        "contract": "contracts/Chimkens.sol:Chimkens",
        "label": "unrevealedURI",
        "offset": 0,
        "slot": "14",
        "type": "t_string_storage"
      },
      {
        "astId": 3577,
        "contract": "contracts/Chimkens.sol:Chimkens",
        "label": "wlMintPrice",
        "offset": 0,
        "slot": "15",
        "type": "t_uint256"
      },
      {
        "astId": 3580,
        "contract": "contracts/Chimkens.sol:Chimkens",
        "label": "publicMintPrice",
        "offset": 0,
        "slot": "16",
        "type": "t_uint256"
      },
      {
        "astId": 3583,
        "contract": "contracts/Chimkens.sol:Chimkens",
        "label": "MAX_OHAYO_MINT",
        "offset": 0,
        "slot": "17",
        "type": "t_uint256"
      },
      {
        "astId": 3589,
        "contract": "contracts/Chimkens.sol:Chimkens",
        "label": "totalOhayoMinted",
        "offset": 0,
        "slot": "18",
        "type": "t_uint256"
      },
      {
        "astId": 3604,
        "contract": "contracts/Chimkens.sol:Chimkens",
        "label": "totalMinted",
        "offset": 0,
        "slot": "19",
        "type": "t_uint256"
      },
      {
        "astId": 3607,
        "contract": "contracts/Chimkens.sol:Chimkens",
        "label": "isPaused",
        "offset": 0,
        "slot": "20",
        "type": "t_bool"
      },
      {
        "astId": 3610,
        "contract": "contracts/Chimkens.sol:Chimkens",
        "label": "revealed",
        "offset": 1,
        "slot": "20",
        "type": "t_bool"
      },
      {
        "astId": 3613,
        "contract": "contracts/Chimkens.sol:Chimkens",
        "label": "whitelistOpen",
        "offset": 2,
        "slot": "20",
        "type": "t_bool"
      },
      {
        "astId": 3616,
        "contract": "contracts/Chimkens.sol:Chimkens",
        "label": "publicOpen",
        "offset": 3,
        "slot": "20",
        "type": "t_bool"
      }
    ],
    "types": {
      "t_address": {
        "encoding": "inplace",
        "label": "address",
        "numberOfBytes": "20"
      },
      "t_bool": {
        "encoding": "inplace",
        "label": "bool",
        "numberOfBytes": "1"
      },
      "t_bytes32": {
        "encoding": "inplace",
        "label": "bytes32",
        "numberOfBytes": "32"
      },
      "t_mapping(t_address,t_bool)": {
        "encoding": "mapping",
        "key": "t_address",
        "label": "mapping(address => bool)",
        "numberOfBytes": "32",
        "value": "t_bool"
      },
      "t_mapping(t_address,t_mapping(t_address,t_bool))": {
        "encoding": "mapping",
        "key": "t_address",
        "label": "mapping(address => mapping(address => bool))",
        "numberOfBytes": "32",
        "value": "t_mapping(t_address,t_bool)"
      },
      "t_mapping(t_address,t_uint256)": {
        "encoding": "mapping",
        "key": "t_address",
        "label": "mapping(address => uint256)",
        "numberOfBytes": "32",
        "value": "t_uint256"
      },
      "t_mapping(t_uint256,t_address)": {
        "encoding": "mapping",
        "key": "t_uint256",
        "label": "mapping(uint256 => address)",
        "numberOfBytes": "32",
        "value": "t_address"
      },
      "t_string_storage": {
        "encoding": "bytes",
        "label": "string",
        "numberOfBytes": "32"
      },
      "t_uint256": {
        "encoding": "inplace",
        "label": "uint256",
        "numberOfBytes": "32"
      }
    }
  }
}