{
  "address": "0x77ccfac0cE336bc3468fca251e7c3df29E66386D",
  "abi": [
    {
      "inputs": [
        {
          "internalType": "bytes32",
          "name": "wlMerkleRoot_",
          "type": "bytes32"
        },
        {
          "internalType": "bytes32",
          "name": "fcfsMerkleRoot_",
          "type": "bytes32"
        },
        {
          "internalType": "address",
          "name": "initialOwner",
          "type": "address"
        }
      ],
      "stateMutability": "nonpayable",
      "type": "constructor"
    },
    {
      "inputs": [
        {
          "internalType": "address",
          "name": "sender",
          "type": "address"
        },
        {
          "internalType": "uint256",
          "name": "tokenId",
          "type": "uint256"
        },
        {
          "internalType": "address",
          "name": "owner",
          "type": "address"
        }
      ],
      "name": "ERC721IncorrectOwner",
      "type": "error"
    },
    {
      "inputs": [
        {
          "internalType": "address",
          "name": "operator",
          "type": "address"
        },
        {
          "internalType": "uint256",
          "name": "tokenId",
          "type": "uint256"
        }
      ],
      "name": "ERC721InsufficientApproval",
      "type": "error"
    },
    {
      "inputs": [
        {
          "internalType": "address",
          "name": "approver",
          "type": "address"
        }
      ],
      "name": "ERC721InvalidApprover",
      "type": "error"
    },
    {
      "inputs": [
        {
          "internalType": "address",
          "name": "operator",
          "type": "address"
        }
      ],
      "name": "ERC721InvalidOperator",
      "type": "error"
    },
    {
      "inputs": [
        {
          "internalType": "address",
          "name": "owner",
          "type": "address"
        }
      ],
      "name": "ERC721InvalidOwner",
      "type": "error"
    },
    {
      "inputs": [
        {
          "internalType": "address",
          "name": "receiver",
          "type": "address"
        }
      ],
      "name": "ERC721InvalidReceiver",
      "type": "error"
    },
    {
      "inputs": [
        {
          "internalType": "address",
          "name": "sender",
          "type": "address"
        }
      ],
      "name": "ERC721InvalidSender",
      "type": "error"
    },
    {
      "inputs": [
        {
          "internalType": "uint256",
          "name": "tokenId",
          "type": "uint256"
        }
      ],
      "name": "ERC721NonexistentToken",
      "type": "error"
    },
    {
      "inputs": [
        {
          "internalType": "address",
          "name": "owner",
          "type": "address"
        }
      ],
      "name": "OwnableInvalidOwner",
      "type": "error"
    },
    {
      "inputs": [
        {
          "internalType": "address",
          "name": "account",
          "type": "address"
        }
      ],
      "name": "OwnableUnauthorizedAccount",
      "type": "error"
    },
    {
      "inputs": [],
      "name": "ReentrancyGuardReentrantCall",
      "type": "error"
    },
    {
      "anonymous": false,
      "inputs": [
        {
          "indexed": true,
          "internalType": "address",
          "name": "to",
          "type": "address"
        },
        {
          "indexed": false,
          "internalType": "uint256",
          "name": "tokenId",
          "type": "uint256"
        }
      ],
      "name": "Airdrop",
      "type": "event"
    },
    {
      "anonymous": false,
      "inputs": [
        {
          "indexed": true,
          "internalType": "address",
          "name": "owner",
          "type": "address"
        },
        {
          "indexed": true,
          "internalType": "address",
          "name": "approved",
          "type": "address"
        },
        {
          "indexed": true,
          "internalType": "uint256",
          "name": "tokenId",
          "type": "uint256"
        }
      ],
      "name": "Approval",
      "type": "event"
    },
    {
      "anonymous": false,
      "inputs": [
        {
          "indexed": true,
          "internalType": "address",
          "name": "owner",
          "type": "address"
        },
        {
          "indexed": true,
          "internalType": "address",
          "name": "operator",
          "type": "address"
        },
        {
          "indexed": false,
          "internalType": "bool",
          "name": "approved",
          "type": "bool"
        }
      ],
      "name": "ApprovalForAll",
      "type": "event"
    },
    {
      "anonymous": false,
      "inputs": [
        {
          "indexed": false,
          "internalType": "string",
          "name": "newBaseURI",
          "type": "string"
        },
        {
          "indexed": false,
          "internalType": "address",
          "name": "updatedBy",
          "type": "address"
        }
      ],
      "name": "BaseURIUpdated",
      "type": "event"
    },
    {
      "anonymous": false,
      "inputs": [
        {
          "indexed": false,
          "internalType": "string",
          "name": "newBaseURI",
          "type": "string"
        }
      ],
      "name": "CollectionRevealed",
      "type": "event"
    },
    {
      "anonymous": false,
      "inputs": [
        {
          "indexed": false,
          "internalType": "address",
          "name": "sender",
          "type": "address"
        },
        {
          "indexed": false,
          "internalType": "uint256",
          "name": "amount",
          "type": "uint256"
        }
      ],
      "name": "EtherReceived",
      "type": "event"
    },
    {
      "anonymous": false,
      "inputs": [
        {
          "indexed": true,
          "internalType": "address",
          "name": "to",
          "type": "address"
        },
        {
          "indexed": false,
          "internalType": "uint256",
          "name": "tokenId",
          "type": "uint256"
        }
      ],
      "name": "FcfsMinted",
      "type": "event"
    },
    {
      "anonymous": false,
      "inputs": [
        {
          "indexed": true,
          "internalType": "address",
          "name": "to",
          "type": "address"
        },
        {
          "indexed": false,
          "internalType": "uint256",
          "name": "tokenId",
          "type": "uint256"
        }
      ],
      "name": "OwnerMinted",
      "type": "event"
    },
    {
      "anonymous": false,
      "inputs": [
        {
          "indexed": true,
          "internalType": "address",
          "name": "to",
          "type": "address"
        },
        {
          "indexed": false,
          "internalType": "uint256",
          "name": "tokenId",
          "type": "uint256"
        }
      ],
      "name": "OwnerMintedToFriends",
      "type": "event"
    },
    {
      "anonymous": false,
      "inputs": [
        {
          "indexed": true,
          "internalType": "address",
          "name": "previousOwner",
          "type": "address"
        },
        {
          "indexed": true,
          "internalType": "address",
          "name": "newOwner",
          "type": "address"
        }
      ],
      "name": "OwnershipTransferred",
      "type": "event"
    },
    {
      "anonymous": false,
      "inputs": [
        {
          "indexed": true,
          "internalType": "address",
          "name": "to",
          "type": "address"
        },
        {
          "indexed": false,
          "internalType": "uint256",
          "name": "tokenId",
          "type": "uint256"
        }
      ],
      "name": "PublicMinted",
      "type": "event"
    },
    {
      "anonymous": false,
      "inputs": [
        {
          "indexed": true,
          "internalType": "address",
          "name": "from",
          "type": "address"
        },
        {
          "indexed": true,
          "internalType": "address",
          "name": "to",
          "type": "address"
        },
        {
          "indexed": true,
          "internalType": "uint256",
          "name": "tokenId",
          "type": "uint256"
        }
      ],
      "name": "Transfer",
      "type": "event"
    },
    {
      "anonymous": false,
      "inputs": [
        {
          "indexed": true,
          "internalType": "address",
          "name": "to",
          "type": "address"
        },
        {
          "indexed": false,
          "internalType": "uint256",
          "name": "tokenId",
          "type": "uint256"
        }
      ],
      "name": "WhitelistMinted",
      "type": "event"
    },
    {
      "anonymous": false,
      "inputs": [
        {
          "indexed": false,
          "internalType": "uint256",
          "name": "amount",
          "type": "uint256"
        },
        {
          "indexed": false,
          "internalType": "address",
          "name": "withdrawnTo",
          "type": "address"
        }
      ],
      "name": "Withdrawn",
      "type": "event"
    },
    {
      "stateMutability": "payable",
      "type": "fallback"
    },
    {
      "inputs": [],
      "name": "MAX_FCFS_MINT",
      "outputs": [
        {
          "internalType": "uint256",
          "name": "",
          "type": "uint256"
        }
      ],
      "stateMutability": "view",
      "type": "function"
    },
    {
      "inputs": [],
      "name": "MAX_PUBLIC_MINT",
      "outputs": [
        {
          "internalType": "uint256",
          "name": "",
          "type": "uint256"
        }
      ],
      "stateMutability": "view",
      "type": "function"
    },
    {
      "inputs": [],
      "name": "MAX_SUPPLY",
      "outputs": [
        {
          "internalType": "uint256",
          "name": "",
          "type": "uint256"
        }
      ],
      "stateMutability": "view",
      "type": "function"
    },
    {
      "inputs": [],
      "name": "MAX_WL_MINT",
      "outputs": [
        {
          "internalType": "uint256",
          "name": "",
          "type": "uint256"
        }
      ],
      "stateMutability": "view",
      "type": "function"
    },
    {
      "inputs": [],
      "name": "WHITELIST_SALE_SUPPLY",
      "outputs": [
        {
          "internalType": "uint256",
          "name": "",
          "type": "uint256"
        }
      ],
      "stateMutability": "view",
      "type": "function"
    },
    {
      "inputs": [
        {
          "internalType": "address[]",
          "name": "toAddresses",
          "type": "address[]"
        }
      ],
      "name": "airdrop",
      "outputs": [],
      "stateMutability": "nonpayable",
      "type": "function"
    },
    {
      "inputs": [
        {
          "internalType": "address",
          "name": "to",
          "type": "address"
        },
        {
          "internalType": "uint256",
          "name": "tokenId",
          "type": "uint256"
        }
      ],
      "name": "approve",
      "outputs": [],
      "stateMutability": "nonpayable",
      "type": "function"
    },
    {
      "inputs": [
        {
          "internalType": "address",
          "name": "owner",
          "type": "address"
        }
      ],
      "name": "balanceOf",
      "outputs": [
        {
          "internalType": "uint256",
          "name": "",
          "type": "uint256"
        }
      ],
      "stateMutability": "view",
      "type": "function"
    },
    {
      "inputs": [
        {
          "internalType": "bytes32[]",
          "name": "_merkleProof",
          "type": "bytes32[]"
        }
      ],
      "name": "checkIsWhitelisted",
      "outputs": [
        {
          "internalType": "bool",
          "name": "",
          "type": "bool"
        }
      ],
      "stateMutability": "view",
      "type": "function"
    },
    {
      "inputs": [],
      "name": "fcfsMerkleRoot",
      "outputs": [
        {
          "internalType": "bytes32",
          "name": "",
          "type": "bytes32"
        }
      ],
      "stateMutability": "view",
      "type": "function"
    },
    {
      "inputs": [
        {
          "internalType": "bytes32[]",
          "name": "_merkleProof",
          "type": "bytes32[]"
        },
        {
          "internalType": "uint256",
          "name": "numTokens",
          "type": "uint256"
        }
      ],
      "name": "fcfsMint",
      "outputs": [],
      "stateMutability": "payable",
      "type": "function"
    },
    {
      "inputs": [],
      "name": "fcfsMinted",
      "outputs": [
        {
          "internalType": "uint256",
          "name": "",
          "type": "uint256"
        }
      ],
      "stateMutability": "view",
      "type": "function"
    },
    {
      "inputs": [
        {
          "internalType": "address",
          "name": "",
          "type": "address"
        }
      ],
      "name": "fcfsMintedCount",
      "outputs": [
        {
          "internalType": "uint256",
          "name": "",
          "type": "uint256"
        }
      ],
      "stateMutability": "view",
      "type": "function"
    },
    {
      "inputs": [],
      "name": "fcfsOpen",
      "outputs": [
        {
          "internalType": "bool",
          "name": "",
          "type": "bool"
        }
      ],
      "stateMutability": "view",
      "type": "function"
    },
    {
      "inputs": [
        {
          "internalType": "uint256",
          "name": "tokenId",
          "type": "uint256"
        }
      ],
      "name": "getApproved",
      "outputs": [
        {
          "internalType": "address",
          "name": "",
          "type": "address"
        }
      ],
      "stateMutability": "view",
      "type": "function"
    },
    {
      "inputs": [
        {
          "internalType": "address",
          "name": "owner",
          "type": "address"
        },
        {
          "internalType": "address",
          "name": "operator",
          "type": "address"
        }
      ],
      "name": "isApprovedForAll",
      "outputs": [
        {
          "internalType": "bool",
          "name": "",
          "type": "bool"
        }
      ],
      "stateMutability": "view",
      "type": "function"
    },
    {
      "inputs": [],
      "name": "isPaused",
      "outputs": [
        {
          "internalType": "bool",
          "name": "",
          "type": "bool"
        }
      ],
      "stateMutability": "view",
      "type": "function"
    },
    {
      "inputs": [],
      "name": "name",
      "outputs": [
        {
          "internalType": "string",
          "name": "",
          "type": "string"
        }
      ],
      "stateMutability": "view",
      "type": "function"
    },
    {
      "inputs": [],
      "name": "owner",
      "outputs": [
        {
          "internalType": "address",
          "name": "",
          "type": "address"
        }
      ],
      "stateMutability": "view",
      "type": "function"
    },
    {
      "inputs": [
        {
          "internalType": "address",
          "name": "to",
          "type": "address"
        },
        {
          "internalType": "uint256",
          "name": "numTokens",
          "type": "uint256"
        }
      ],
      "name": "ownerMint",
      "outputs": [],
      "stateMutability": "nonpayable",
      "type": "function"
    },
    {
      "inputs": [
        {
          "internalType": "uint256",
          "name": "tokenId",
          "type": "uint256"
        }
      ],
      "name": "ownerOf",
      "outputs": [
        {
          "internalType": "address",
          "name": "",
          "type": "address"
        }
      ],
      "stateMutability": "view",
      "type": "function"
    },
    {
      "inputs": [],
      "name": "pause",
      "outputs": [],
      "stateMutability": "nonpayable",
      "type": "function"
    },
    {
      "inputs": [
        {
          "internalType": "uint256",
          "name": "numTokens",
          "type": "uint256"
        }
      ],
      "name": "publicMint",
      "outputs": [],
      "stateMutability": "payable",
      "type": "function"
    },
    {
      "inputs": [],
      "name": "publicMintPrice",
      "outputs": [
        {
          "internalType": "uint256",
          "name": "",
          "type": "uint256"
        }
      ],
      "stateMutability": "view",
      "type": "function"
    },
    {
      "inputs": [],
      "name": "publicMinted",
      "outputs": [
        {
          "internalType": "uint256",
          "name": "",
          "type": "uint256"
        }
      ],
      "stateMutability": "view",
      "type": "function"
    },
    {
      "inputs": [
        {
          "internalType": "address",
          "name": "",
          "type": "address"
        }
      ],
      "name": "publicMintedCount",
      "outputs": [
        {
          "internalType": "uint256",
          "name": "",
          "type": "uint256"
        }
      ],
      "stateMutability": "view",
      "type": "function"
    },
    {
      "inputs": [],
      "name": "publicOpen",
      "outputs": [
        {
          "internalType": "bool",
          "name": "",
          "type": "bool"
        }
      ],
      "stateMutability": "view",
      "type": "function"
    },
    {
      "inputs": [],
      "name": "renounceOwnership",
      "outputs": [],
      "stateMutability": "nonpayable",
      "type": "function"
    },
    {
      "inputs": [
        {
          "internalType": "string",
          "name": "_newBaseURI",
          "type": "string"
        }
      ],
      "name": "reveal",
      "outputs": [],
      "stateMutability": "nonpayable",
      "type": "function"
    },
    {
      "inputs": [],
      "name": "revealed",
      "outputs": [
        {
          "internalType": "bool",
          "name": "",
          "type": "bool"
        }
      ],
      "stateMutability": "view",
      "type": "function"
    },
    {
      "inputs": [
        {
          "internalType": "address",
          "name": "from",
          "type": "address"
        },
        {
          "internalType": "address",
          "name": "to",
          "type": "address"
        },
        {
          "internalType": "uint256",
          "name": "tokenId",
          "type": "uint256"
        }
      ],
      "name": "safeTransferFrom",
      "outputs": [],
      "stateMutability": "nonpayable",
      "type": "function"
    },
    {
      "inputs": [
        {
          "internalType": "address",
          "name": "from",
          "type": "address"
        },
        {
          "internalType": "address",
          "name": "to",
          "type": "address"
        },
        {
          "internalType": "uint256",
          "name": "tokenId",
          "type": "uint256"
        },
        {
          "internalType": "bytes",
          "name": "data",
          "type": "bytes"
        }
      ],
      "name": "safeTransferFrom",
      "outputs": [],
      "stateMutability": "nonpayable",
      "type": "function"
    },
    {
      "inputs": [
        {
          "internalType": "address",
          "name": "operator",
          "type": "address"
        },
        {
          "internalType": "bool",
          "name": "approved",
          "type": "bool"
        }
      ],
      "name": "setApprovalForAll",
      "outputs": [],
      "stateMutability": "nonpayable",
      "type": "function"
    },
    {
      "inputs": [
        {
          "internalType": "bytes32",
          "name": "fcfsMerkleRoot_",
          "type": "bytes32"
        }
      ],
      "name": "setFcfs",
      "outputs": [],
      "stateMutability": "nonpayable",
      "type": "function"
    },
    {
      "inputs": [
        {
          "internalType": "uint256",
          "name": "newPublicMintPrice",
          "type": "uint256"
        }
      ],
      "name": "setPublicMintPrice",
      "outputs": [],
      "stateMutability": "nonpayable",
      "type": "function"
    },
    {
      "inputs": [
        {
          "internalType": "string",
          "name": "newBaseURI",
          "type": "string"
        }
      ],
      "name": "setRevealedBaseURI",
      "outputs": [],
      "stateMutability": "nonpayable",
      "type": "function"
    },
    {
      "inputs": [
        {
          "internalType": "bytes32",
          "name": "wlMerkleRoot_",
          "type": "bytes32"
        }
      ],
      "name": "setWl",
      "outputs": [],
      "stateMutability": "nonpayable",
      "type": "function"
    },
    {
      "inputs": [
        {
          "internalType": "uint256",
          "name": "newWlMintPrice",
          "type": "uint256"
        }
      ],
      "name": "setWlMintPrice",
      "outputs": [],
      "stateMutability": "nonpayable",
      "type": "function"
    },
    {
      "inputs": [],
      "name": "startFcfsSale",
      "outputs": [],
      "stateMutability": "nonpayable",
      "type": "function"
    },
    {
      "inputs": [],
      "name": "startPublicSale",
      "outputs": [],
      "stateMutability": "nonpayable",
      "type": "function"
    },
    {
      "inputs": [],
      "name": "startWhitelistSale",
      "outputs": [],
      "stateMutability": "nonpayable",
      "type": "function"
    },
    {
      "inputs": [],
      "name": "stopFcfsSale",
      "outputs": [],
      "stateMutability": "nonpayable",
      "type": "function"
    },
    {
      "inputs": [],
      "name": "stopPublicSale",
      "outputs": [],
      "stateMutability": "nonpayable",
      "type": "function"
    },
    {
      "inputs": [],
      "name": "stopWhitelistSale",
      "outputs": [],
      "stateMutability": "nonpayable",
      "type": "function"
    },
    {
      "inputs": [
        {
          "internalType": "bytes4",
          "name": "interfaceId",
          "type": "bytes4"
        }
      ],
      "name": "supportsInterface",
      "outputs": [
        {
          "internalType": "bool",
          "name": "",
          "type": "bool"
        }
      ],
      "stateMutability": "view",
      "type": "function"
    },
    {
      "inputs": [],
      "name": "symbol",
      "outputs": [
        {
          "internalType": "string",
          "name": "",
          "type": "string"
        }
      ],
      "stateMutability": "view",
      "type": "function"
    },
    {
      "inputs": [
        {
          "internalType": "uint256",
          "name": "tokenId",
          "type": "uint256"
        }
      ],
      "name": "tokenURI",
      "outputs": [
        {
          "internalType": "string",
          "name": "",
          "type": "string"
        }
      ],
      "stateMutability": "view",
      "type": "function"
    },
    {
      "inputs": [],
      "name": "totalMinted",
      "outputs": [
        {
          "internalType": "uint256",
          "name": "",
          "type": "uint256"
        }
      ],
      "stateMutability": "view",
      "type": "function"
    },
    {
      "inputs": [
        {
          "internalType": "address",
          "name": "from",
          "type": "address"
        },
        {
          "internalType": "address",
          "name": "to",
          "type": "address"
        },
        {
          "internalType": "uint256",
          "name": "tokenId",
          "type": "uint256"
        }
      ],
      "name": "transferFrom",
      "outputs": [],
      "stateMutability": "nonpayable",
      "type": "function"
    },
    {
      "inputs": [
        {
          "internalType": "address",
          "name": "newOwner",
          "type": "address"
        }
      ],
      "name": "transferOwnership",
      "outputs": [],
      "stateMutability": "nonpayable",
      "type": "function"
    },
    {
      "inputs": [],
      "name": "unpause",
      "outputs": [],
      "stateMutability": "nonpayable",
      "type": "function"
    },
    {
      "inputs": [
        {
          "internalType": "bytes32[]",
          "name": "_merkleProof",
          "type": "bytes32[]"
        },
        {
          "internalType": "uint256",
          "name": "numTokens",
          "type": "uint256"
        }
      ],
      "name": "whitelistMint",
      "outputs": [],
      "stateMutability": "payable",
      "type": "function"
    },
    {
      "inputs": [],
      "name": "whitelistOpen",
      "outputs": [
        {
          "internalType": "bool",
          "name": "",
          "type": "bool"
        }
      ],
      "stateMutability": "view",
      "type": "function"
    },
    {
      "inputs": [
        {
          "internalType": "address payable",
          "name": "withdrawalAddress",
          "type": "address"
        },
        {
          "internalType": "uint256",
          "name": "amount",
          "type": "uint256"
        }
      ],
      "name": "withdraw",
      "outputs": [],
      "stateMutability": "nonpayable",
      "type": "function"
    },
    {
      "inputs": [],
      "name": "wlMerkleRoot",
      "outputs": [
        {
          "internalType": "bytes32",
          "name": "",
          "type": "bytes32"
        }
      ],
      "stateMutability": "view",
      "type": "function"
    },
    {
      "inputs": [],
      "name": "wlMintPrice",
      "outputs": [
        {
          "internalType": "uint256",
          "name": "",
          "type": "uint256"
        }
      ],
      "stateMutability": "view",
      "type": "function"
    },
    {
      "inputs": [],
      "name": "wlMinted",
      "outputs": [
        {
          "internalType": "uint256",
          "name": "",
          "type": "uint256"
        }
      ],
      "stateMutability": "view",
      "type": "function"
    },
    {
      "inputs": [
        {
          "internalType": "address",
          "name": "",
          "type": "address"
        }
      ],
      "name": "wlMintedCount",
      "outputs": [
        {
          "internalType": "uint256",
          "name": "",
          "type": "uint256"
        }
      ],
      "stateMutability": "view",
      "type": "function"
    },
    {
      "stateMutability": "payable",
      "type": "receive"
    }
  ],
  "transactionHash": "0xd5cd67952a9273d238f30ffd499a6d82dae70947394f4b4578402fee1bff411a",
  "args": [
    "0x337ae93572023fe44c88c5fca4ea9e53eeefd971494d9463033d5c4dd787437f",
    "0x0391d218662af09b9122f8f1750b9eeb38bf4a8b0c29fe15ea763e352737bc5b",
    "0x7CE4FA787582C9e5c9fEe9F1B6803Fd794359A69"
  ],
  "numDeployments": 2,
  "solcInputHash": "c0dc9e61db0a174cb96536d170106c94",
  "bytecode": "0x6080604052660eebe0b40e8000600f556611c37937e0800060105560006011556000601255600060135560006014556000601560006101000a81548160ff0219169083151502179055506000601560016101000a81548160ff0219169083151502179055506000601560026101000a81548160ff0219169083151502179055506000601560036101000a81548160ff0219169083151502179055506000601560046101000a81548160ff0219169083151502179055503480156100c157600080fd5b5060405161592c38038061592c83398181016040528101906100e39190610399565b806040518060400160405280600781526020017f486f6f6d616e73000000000000000000000000000000000000000000000000008152506040518060400160405280600781526020017f484f4f4d414e5300000000000000000000000000000000000000000000000000815250816000908161015f919061063c565b50806001908161016f919061063c565b505050600073ffffffffffffffffffffffffffffffffffffffff168173ffffffffffffffffffffffffffffffffffffffff16036101e45760006040517f1e4fbdf70000000000000000000000000000000000000000000000000000000081526004016101db919061071d565b60405180910390fd5b6101f38161023a60201b60201c565b5060016007819055506040518060600160405280604081526020016158ec60409139600e9081610223919061063c565b508260088190555081600981905550505050610738565b6000600660009054906101000a900473ffffffffffffffffffffffffffffffffffffffff16905081600660006101000a81548173ffffffffffffffffffffffffffffffffffffffff021916908373ffffffffffffffffffffffffffffffffffffffff1602179055508173ffffffffffffffffffffffffffffffffffffffff168173ffffffffffffffffffffffffffffffffffffffff167f8be0079c531659141344cd1fd0a4f28419497f9722a3daafe3b4186f6b6457e060405160405180910390a35050565b600080fd5b6000819050919050565b61031881610305565b811461032357600080fd5b50565b6000815190506103358161030f565b92915050565b600073ffffffffffffffffffffffffffffffffffffffff82169050919050565b60006103668261033b565b9050919050565b6103768161035b565b811461038157600080fd5b50565b6000815190506103938161036d565b92915050565b6000806000606084860312156103b2576103b1610300565b5b60006103c086828701610326565b93505060206103d186828701610326565b92505060406103e286828701610384565b9150509250925092565b600081519050919050565b7f4e487b7100000000000000000000000000000000000000000000000000000000600052604160045260246000fd5b7f4e487b7100000000000000000000000000000000000000000000000000000000600052602260045260246000fd5b6000600282049050600182168061046d57607f821691505b6020821081036104805761047f610426565b5b50919050565b60008190508160005260206000209050919050565b60006020601f8301049050919050565b600082821b905092915050565b6000600883026104e87fffffffffffffffffffffffffffffffffffffffffffffffffffffffffffffffff826104ab565b6104f286836104ab565b95508019841693508086168417925050509392505050565b6000819050919050565b6000819050919050565b600061053961053461052f8461050a565b610514565b61050a565b9050919050565b6000819050919050565b6105538361051e565b61056761055f82610540565b8484546104b8565b825550505050565b600090565b61057c61056f565b61058781848461054a565b505050565b5b818110156105ab576105a0600082610574565b60018101905061058d565b5050565b601f8211156105f0576105c181610486565b6105ca8461049b565b810160208510156105d9578190505b6105ed6105e58561049b565b83018261058c565b50505b505050565b600082821c905092915050565b6000610613600019846008026105f5565b1980831691505092915050565b600061062c8383610602565b9150826002028217905092915050565b610645826103ec565b67ffffffffffffffff81111561065e5761065d6103f7565b5b6106688254610455565b6106738282856105af565b600060209050601f8311600181146106a65760008415610694578287015190505b61069e8582610620565b865550610706565b601f1984166106b486610486565b60005b828110156106dc578489015182556001820191506020850194506020810190506106b7565b868310156106f957848901516106f5601f891682610602565b8355505b6001600288020188555050505b505050505050565b6107178161035b565b82525050565b6000602082019050610732600083018461070e565b92915050565b6151a5806107476000396000f3fe6080604052600436106103855760003560e01c806368e076b4116101d1578063a4f4f8af11610102578063da1b91c3116100a0578063e9b747291161006f578063e9b7472914610cf3578063f2fde38b14610d0a578063f3fef3a314610d33578063ff44e91514610d5c576103c5565b8063da1b91c314610c49578063dc53fd9214610c60578063e81e1c8314610c8b578063e985e9c514610cb6576103c5565b8063b88d4fde116100dc578063b88d4fde14610b8d578063ba70c51514610bb6578063c40af69914610be1578063c87b56dd14610c0c576103c5565b8063a4f4f8af14610b0e578063b187bd2614610b39578063b2aa4c9214610b64576103c5565b80638456cb591161016f57806395d89b411161014957806395d89b4114610a665780639cc1de1a14610a91578063a22cb46514610aba578063a2309ff814610ae3576103c5565b80638456cb5914610a085780638da5cb5b14610a1f578063922886af14610a4a576103c5565b8063715018a6116101ab578063715018a614610972578063729ad39e146109895780637bb23e3a146109b25780637db3aecc146109dd576103c5565b806368e076b4146108e15780636e83843a1461090c57806370a0823114610935576103c5565b806334c48943116102b65780634c261247116102545780635d82cf6e116102235780635d82cf6e146108135780636352211e1461083c578063646318831461087957806365f13097146108b6576103c5565b80634c261247146107575780634e8914001461078057806351830227146107bd57806354c06aee146107e8576103c5565b806342842e0e1161029057806342842e0e1461069d578063463fb323146106c6578063484b973c146106f157806348571b351461071a576103c5565b806334c48943146106205780633d2722941461065d5780633f4ba83a14610686576103c5565b80630fd5fc72116103235780632904e6d9116102fd5780632904e6d9146105925780632c4e9fc6146105ae5780632db11544146105d957806332cb6b0c146105f5576103c5565b80630fd5fc721461052757806321b853991461055257806323b872dd14610569576103c5565b806306fdde031161035f57806306fdde031461047f578063081812fc146104aa578063095ea7b3146104e75780630c1c972a14610510576103c5565b80630109c52e1461040057806301ffc9a71461042b5780630474b69614610468576103c5565b366103c5577f1e57e3bb474320be3d2c77138f75b7c3941292d647f5f9634e33a8e94e0e069b33346040516103bb929190613903565b60405180910390a1005b7f1e57e3bb474320be3d2c77138f75b7c3941292d647f5f9634e33a8e94e0e069b33346040516103f6929190613903565b60405180910390a1005b34801561040c57600080fd5b50610415610d73565b604051610422919061392c565b60405180910390f35b34801561043757600080fd5b50610452600480360381019061044d91906139b3565b610d78565b60405161045f91906139fb565b60405180910390f35b34801561047457600080fd5b5061047d610e5a565b005b34801561048b57600080fd5b50610494610e7f565b6040516104a19190613aa6565b60405180910390f35b3480156104b657600080fd5b506104d160048036038101906104cc9190613af4565b610f11565b6040516104de9190613b21565b60405180910390f35b3480156104f357600080fd5b5061050e60048036038101906105099190613b68565b610f2d565b005b34801561051c57600080fd5b50610525610f43565b005b34801561053357600080fd5b5061053c610f68565b60405161054991906139fb565b60405180910390f35b34801561055e57600080fd5b50610567610f7b565b005b34801561057557600080fd5b50610590600480360381019061058b9190613ba8565b610fa0565b005b6105ac60048036038101906105a79190613c60565b6110a2565b005b3480156105ba57600080fd5b506105c3611410565b6040516105d0919061392c565b60405180910390f35b6105f360048036038101906105ee9190613af4565b611416565b005b34801561060157600080fd5b5061060a611705565b604051610617919061392c565b60405180910390f35b34801561062c57600080fd5b5061064760048036038101906106429190613cc0565b61170b565b604051610654919061392c565b60405180910390f35b34801561066957600080fd5b50610684600480360381019061067f9190613af4565b611723565b005b34801561069257600080fd5b5061069b611735565b005b3480156106a957600080fd5b506106c460048036038101906106bf9190613ba8565b61175a565b005b3480156106d257600080fd5b506106db61177a565b6040516106e8919061392c565b60405180910390f35b3480156106fd57600080fd5b5061071860048036038101906107139190613b68565b611780565b005b34801561072657600080fd5b50610741600480360381019061073c9190613ced565b6118c1565b60405161074e91906139fb565b60405180910390f35b34801561076357600080fd5b5061077e60048036038101906107799190613e6a565b6119b3565b005b34801561078c57600080fd5b506107a760048036038101906107a29190613cc0565b611a20565b6040516107b4919061392c565b60405180910390f35b3480156107c957600080fd5b506107d2611a38565b6040516107df91906139fb565b60405180910390f35b3480156107f457600080fd5b506107fd611a4b565b60405161080a9190613ecc565b60405180910390f35b34801561081f57600080fd5b5061083a60048036038101906108359190613af4565b611a51565b005b34801561084857600080fd5b50610863600480360381019061085e9190613af4565b611a63565b6040516108709190613b21565b60405180910390f35b34801561088557600080fd5b506108a0600480360381019061089b9190613cc0565b611a75565b6040516108ad919061392c565b60405180910390f35b3480156108c257600080fd5b506108cb611a8d565b6040516108d8919061392c565b60405180910390f35b3480156108ed57600080fd5b506108f6611a92565b604051610903919061392c565b60405180910390f35b34801561091857600080fd5b50610933600480360381019061092e9190613e6a565b611a98565b005b34801561094157600080fd5b5061095c60048036038101906109579190613cc0565b611aec565b604051610969919061392c565b60405180910390f35b34801561097e57600080fd5b50610987611ba6565b005b34801561099557600080fd5b506109b060048036038101906109ab9190613f3d565b611bba565b005b3480156109be57600080fd5b506109c7611cc1565b6040516109d49190613ecc565b60405180910390f35b3480156109e957600080fd5b506109f2611cc7565b6040516109ff91906139fb565b60405180910390f35b348015610a1457600080fd5b50610a1d611cda565b005b348015610a2b57600080fd5b50610a34611cff565b604051610a419190613b21565b60405180910390f35b610a646004803603810190610a5f9190613c60565b611d29565b005b348015610a7257600080fd5b50610a7b612097565b604051610a889190613aa6565b60405180910390f35b348015610a9d57600080fd5b50610ab86004803603810190610ab39190613fb6565b612129565b005b348015610ac657600080fd5b50610ae16004803603810190610adc919061400f565b61213b565b005b348015610aef57600080fd5b50610af8612151565b604051610b05919061392c565b60405180910390f35b348015610b1a57600080fd5b50610b23612157565b604051610b30919061392c565b60405180910390f35b348015610b4557600080fd5b50610b4e61215d565b604051610b5b91906139fb565b60405180910390f35b348015610b7057600080fd5b50610b8b6004803603810190610b869190613fb6565b612170565b005b348015610b9957600080fd5b50610bb46004803603810190610baf91906140f0565b612182565b005b348015610bc257600080fd5b50610bcb61219f565b604051610bd891906139fb565b60405180910390f35b348015610bed57600080fd5b50610bf66121b2565b604051610c03919061392c565b60405180910390f35b348015610c1857600080fd5b50610c336004803603810190610c2e9190613af4565b6121b7565b604051610c409190613aa6565b60405180910390f35b348015610c5557600080fd5b50610c5e6122bf565b005b348015610c6c57600080fd5b50610c756122e4565b604051610c82919061392c565b60405180910390f35b348015610c9757600080fd5b50610ca06122ea565b604051610cad919061392c565b60405180910390f35b348015610cc257600080fd5b50610cdd6004803603810190610cd89190614173565b6122f0565b604051610cea91906139fb565b60405180910390f35b348015610cff57600080fd5b50610d08612384565b005b348015610d1657600080fd5b50610d316004803603810190610d2c9190613cc0565b6123a9565b005b348015610d3f57600080fd5b50610d5a6004803603810190610d5591906141f1565b61242f565b005b348015610d6857600080fd5b50610d71612626565b005b600581565b60007f80ac58cd000000000000000000000000000000000000000000000000000000007bffffffffffffffffffffffffffffffffffffffffffffffffffffffff1916827bffffffffffffffffffffffffffffffffffffffffffffffffffffffff19161480610e4357507f5b5e139f000000000000000000000000000000000000000000000000000000007bffffffffffffffffffffffffffffffffffffffffffffffffffffffff1916827bffffffffffffffffffffffffffffffffffffffffffffffffffffffff1916145b80610e535750610e528261264b565b5b9050919050565b610e626126b5565b6000601560026101000a81548160ff021916908315150217905550565b606060008054610e8e90614260565b80601f0160208091040260200160405190810160405280929190818152602001828054610eba90614260565b8015610f075780601f10610edc57610100808354040283529160200191610f07565b820191906000526020600020905b815481529060010190602001808311610eea57829003601f168201915b5050505050905090565b6000610f1c8261273c565b50610f26826127c4565b9050919050565b610f3f8282610f3a612801565b612809565b5050565b610f4b6126b5565b6001601560046101000a81548160ff021916908315150217905550565b601560039054906101000a900460ff1681565b610f836126b5565b6000601560036101000a81548160ff021916908315150217905550565b600073ffffffffffffffffffffffffffffffffffffffff168273ffffffffffffffffffffffffffffffffffffffff16036110125760006040517f64a0ae920000000000000000000000000000000000000000000000000000000081526004016110099190613b21565b60405180910390fd5b60006110268383611021612801565b61281b565b90508373ffffffffffffffffffffffffffffffffffffffff168173ffffffffffffffffffffffffffffffffffffffff161461109c578382826040517f64283d7b00000000000000000000000000000000000000000000000000000000815260040161109393929190614291565b60405180910390fd5b50505050565b6110aa612a35565b601560009054906101000a900460ff16156110fa576040517f08c379a00000000000000000000000000000000000000000000000000000000081526004016110f190614314565b60405180910390fd5b601560029054906101000a900460ff16611149576040517f08c379a000000000000000000000000000000000000000000000000000000000815260040161114090614380565b60405180910390fd5b6107d08160145461115a91906143cf565b111561119b576040517f08c379a00000000000000000000000000000000000000000000000000000000081526004016111929061444f565b60405180910390fd5b6000811180156111ac575060058111155b6111eb576040517f08c379a00000000000000000000000000000000000000000000000000000000081526004016111e2906144bb565b60405180910390fd5b600581600a60003373ffffffffffffffffffffffffffffffffffffffff1673ffffffffffffffffffffffffffffffffffffffff1681526020019081526020016000205461123891906143cf565b1115611279576040517f08c379a000000000000000000000000000000000000000000000000000000000815260040161127090614527565b60405180910390fd5b60003360405160200161128c919061458f565b604051602081830303815290604052805190602001209050600060085490506112f7858580806020026020016040519081016040528093929190818152602001838360200280828437600081840152601f19601f820116905080830192505050505050508284612a7b565b611336576040517f08c379a000000000000000000000000000000000000000000000000000000000815260040161132d906145f6565b60405180910390fd5b600061134184612a92565b9050803414611385576040517f08c379a000000000000000000000000000000000000000000000000000000000815260040161137c90614662565b60405180910390fd5b61139133856001612ab2565b83600a60003373ffffffffffffffffffffffffffffffffffffffff1673ffffffffffffffffffffffffffffffffffffffff16815260200190815260200160002060008282546113e091906143cf565b9250508190555083601160008282546113f991906143cf565b9250508190555050505061140b612d80565b505050565b600f5481565b61141e612a35565b601560009054906101000a900460ff161561146e576040517f08c379a000000000000000000000000000000000000000000000000000000000815260040161146590614314565b60405180910390fd5b601560049054906101000a900460ff166114bd576040517f08c379a00000000000000000000000000000000000000000000000000000000081526004016114b4906146ce565b60405180910390fd5b60008111611500576040517f08c379a00000000000000000000000000000000000000000000000000000000081526004016114f79061473a565b60405180910390fd5b6107d08160145461151191906143cf565b1115611552576040517f08c379a00000000000000000000000000000000000000000000000000000000081526004016115499061444f565b60405180910390fd5b6000811180156115635750600a8111155b6115a2576040517f08c379a0000000000000000000000000000000000000000000000000000000008152600401611599906144bb565b60405180910390fd5b600a81600c60003373ffffffffffffffffffffffffffffffffffffffff1673ffffffffffffffffffffffffffffffffffffffff168152602001908152602001600020546115ef91906143cf565b1115611630576040517f08c379a000000000000000000000000000000000000000000000000000000000815260040161162790614527565b60405180910390fd5b8060105461163e919061475a565b341461167f576040517f08c379a000000000000000000000000000000000000000000000000000000000815260040161167690614662565b60405180910390fd5b61168b33826000612ab2565b80600c60003373ffffffffffffffffffffffffffffffffffffffff1673ffffffffffffffffffffffffffffffffffffffff16815260200190815260200160002060008282546116da91906143cf565b9250508190555080601360008282546116f391906143cf565b92505081905550611702612d80565b50565b6107d081565b600c6020528060005260406000206000915090505481565b61172b6126b5565b80600f8190555050565b61173d6126b5565b6000601560006101000a81548160ff021916908315150217905550565b61177583838360405180602001604052806000815250612182565b505050565b60115481565b6117886126b5565b601560009054906101000a900460ff16156117d8576040517f08c379a00000000000000000000000000000000000000000000000000000000081526004016117cf90614314565b60405180910390fd5b6107d0816014546117e991906143cf565b111561182a576040517f08c379a0000000000000000000000000000000000000000000000000000000008152600401611821906147e8565b60405180910390fd5b6000811161186d576040517f08c379a00000000000000000000000000000000000000000000000000000000081526004016118649061473a565b60405180910390fd5b60148111156118b1576040517f08c379a00000000000000000000000000000000000000000000000000000000081526004016118a89061487a565b60405180910390fd5b6118bd82826003612ab2565b5050565b600080336040516020016118d5919061458f565b60405160208183030381529060405280519060200120905061193b848480806020026020016040519081016040528093929190818152602001838360200280828437600081840152601f19601f8201169050808301925050505050505060085483612a7b565b1561194a5760019150506119ad565b611998848480806020026020016040519081016040528093929190818152602001838360200280828437600081840152601f19601f8201169050808301925050505050505060095483612a7b565b156119a75760019150506119ad565b60009150505b92915050565b6119bb6126b5565b6001601560016101000a81548160ff02191690831515021790555080600d90816119e59190614a46565b507f09aeffebf08fc44a38a139bbfafcc95e27b04cc8690c84246a34c2bd67f3d9b981604051611a159190613aa6565b60405180910390a150565b600b6020528060005260406000206000915090505481565b601560019054906101000a900460ff1681565b60085481565b611a596126b5565b8060108190555050565b6000611a6e8261273c565b9050919050565b600a6020528060005260406000206000915090505481565b600a81565b6107d081565b611aa06126b5565b80600d9081611aaf9190614a46565b507f287fb35d24416ff0dd04e0934f29883f30a8ed9a5a8aef3bf65d165b01aa0e428133604051611ae1929190614b18565b60405180910390a150565b60008073ffffffffffffffffffffffffffffffffffffffff168273ffffffffffffffffffffffffffffffffffffffff1603611b5f5760006040517f89c62b64000000000000000000000000000000000000000000000000000000008152600401611b569190613b21565b60405180910390fd5b600360008373ffffffffffffffffffffffffffffffffffffffff1673ffffffffffffffffffffffffffffffffffffffff168152602001908152602001600020549050919050565b611bae6126b5565b611bb86000612d8a565b565b611bc26126b5565b601560009054906101000a900460ff1615611c12576040517f08c379a0000000000000000000000000000000000000000000000000000000008152600401611c0990614314565b60405180910390fd5b6107d082829050601454611c2691906143cf565b1115611c67576040517f08c379a0000000000000000000000000000000000000000000000000000000008152600401611c5e906147e8565b60405180910390fd5b60005b82829050811015611cbc576000838383818110611c8a57611c89614b48565b5b9050602002016020810190611c9f9190613cc0565b9050611cae8160016004612ab2565b508080600101915050611c6a565b505050565b60095481565b601560029054906101000a900460ff1681565b611ce26126b5565b6001601560006101000a81548160ff021916908315150217905550565b6000600660009054906101000a900473ffffffffffffffffffffffffffffffffffffffff16905090565b611d31612a35565b601560009054906101000a900460ff1615611d81576040517f08c379a0000000000000000000000000000000000000000000000000000000008152600401611d7890614314565b60405180910390fd5b601560039054906101000a900460ff16611dd0576040517f08c379a0000000000000000000000000000000000000000000000000000000008152600401611dc790614bc3565b60405180910390fd5b6107d081601454611de191906143cf565b1115611e22576040517f08c379a0000000000000000000000000000000000000000000000000000000008152600401611e199061444f565b60405180910390fd5b600081118015611e335750600a8111155b611e72576040517f08c379a0000000000000000000000000000000000000000000000000000000008152600401611e69906144bb565b60405180910390fd5b600a81600b60003373ffffffffffffffffffffffffffffffffffffffff1673ffffffffffffffffffffffffffffffffffffffff16815260200190815260200160002054611ebf91906143cf565b1115611f00576040517f08c379a0000000000000000000000000000000000000000000000000000000008152600401611ef790614c2f565b60405180910390fd5b600033604051602001611f13919061458f565b60405160208183030381529060405280519060200120905060006009549050611f7e858580806020026020016040519081016040528093929190818152602001838360200280828437600081840152601f19601f820116905080830192505050505050508284612a7b565b611fbd576040517f08c379a0000000000000000000000000000000000000000000000000000000008152600401611fb490614c9b565b60405180910390fd5b6000611fc884612a92565b905080341461200c576040517f08c379a000000000000000000000000000000000000000000000000000000000815260040161200390614662565b60405180910390fd5b61201833856002612ab2565b83600b60003373ffffffffffffffffffffffffffffffffffffffff1673ffffffffffffffffffffffffffffffffffffffff168152602001908152602001600020600082825461206791906143cf565b92505081905550836012600082825461208091906143cf565b92505081905550505050612092612d80565b505050565b6060600180546120a690614260565b80601f01602080910402602001604051908101604052809291908181526020018280546120d290614260565b801561211f5780601f106120f45761010080835404028352916020019161211f565b820191906000526020600020905b81548152906001019060200180831161210257829003601f168201915b5050505050905090565b6121316126b5565b8060088190555050565b61214d612146612801565b8383612e50565b5050565b60145481565b60135481565b601560009054906101000a900460ff1681565b6121786126b5565b8060098190555050565b61218d848484610fa0565b61219984848484612fbf565b50505050565b601560049054906101000a900460ff1681565b600a81565b60606121c28261273c565b506000601560019054906101000a900460ff166121e057600e6121e3565b600d5b80546121ee90614260565b80601f016020809104026020016040519081016040528092919081815260200182805461221a90614260565b80156122675780601f1061223c57610100808354040283529160200191612267565b820191906000526020600020905b81548152906001019060200180831161224a57829003601f168201915b50505050509050600081511161228c57604051806020016040528060008152506122b7565b8061229684613176565b6040516020016122a7929190614d43565b6040516020818303038152906040525b915050919050565b6122c76126b5565b6000601560046101000a81548160ff021916908315150217905550565b60105481565b60125481565b6000600560008473ffffffffffffffffffffffffffffffffffffffff1673ffffffffffffffffffffffffffffffffffffffff16815260200190815260200160002060008373ffffffffffffffffffffffffffffffffffffffff1673ffffffffffffffffffffffffffffffffffffffff16815260200190815260200160002060009054906101000a900460ff16905092915050565b61238c6126b5565b6001601560036101000a81548160ff021916908315150217905550565b6123b16126b5565b600073ffffffffffffffffffffffffffffffffffffffff168173ffffffffffffffffffffffffffffffffffffffff16036124235760006040517f1e4fbdf700000000000000000000000000000000000000000000000000000000815260040161241a9190613b21565b60405180910390fd5b61242c81612d8a565b50565b6124376126b5565b61243f612a35565b600073ffffffffffffffffffffffffffffffffffffffff168273ffffffffffffffffffffffffffffffffffffffff16036124ae576040517f08c379a00000000000000000000000000000000000000000000000000000000081526004016124a590614dbe565b60405180910390fd5b600081116124f1576040517f08c379a00000000000000000000000000000000000000000000000000000000081526004016124e890614e2a565b60405180910390fd5b80471015612534576040517f08c379a000000000000000000000000000000000000000000000000000000000815260040161252b90614e96565b60405180910390fd5b60008273ffffffffffffffffffffffffffffffffffffffff168260405161255a90614ee7565b60006040518083038185875af1925050503d8060008114612597576040519150601f19603f3d011682016040523d82523d6000602084013e61259c565b606091505b50509050806125e0576040517f08c379a00000000000000000000000000000000000000000000000000000000081526004016125d790614f48565b60405180910390fd5b7f8c7cdad0d12a8db3e23561b42da6f10c8137914c97beff202213a410e1f520a38284604051612611929190614fbd565b60405180910390a150612622612d80565b5050565b61262e6126b5565b6001601560026101000a81548160ff021916908315150217905550565b60007f01ffc9a7000000000000000000000000000000000000000000000000000000007bffffffffffffffffffffffffffffffffffffffffffffffffffffffff1916827bffffffffffffffffffffffffffffffffffffffffffffffffffffffff1916149050919050565b6126bd612801565b73ffffffffffffffffffffffffffffffffffffffff166126db611cff565b73ffffffffffffffffffffffffffffffffffffffff161461273a576126fe612801565b6040517f118cdaa70000000000000000000000000000000000000000000000000000000081526004016127319190613b21565b60405180910390fd5b565b60008061274883613244565b9050600073ffffffffffffffffffffffffffffffffffffffff168173ffffffffffffffffffffffffffffffffffffffff16036127bb57826040517f7e2732890000000000000000000000000000000000000000000000000000000081526004016127b2919061392c565b60405180910390fd5b80915050919050565b60006004600083815260200190815260200160002060009054906101000a900473ffffffffffffffffffffffffffffffffffffffff169050919050565b600033905090565b6128168383836001613281565b505050565b60008061282784613244565b9050600073ffffffffffffffffffffffffffffffffffffffff168373ffffffffffffffffffffffffffffffffffffffff161461286957612868818486613446565b5b600073ffffffffffffffffffffffffffffffffffffffff168173ffffffffffffffffffffffffffffffffffffffff16146128fa576128ab600085600080613281565b6001600360008373ffffffffffffffffffffffffffffffffffffffff1673ffffffffffffffffffffffffffffffffffffffff168152602001908152602001600020600082825403925050819055505b600073ffffffffffffffffffffffffffffffffffffffff168573ffffffffffffffffffffffffffffffffffffffff161461297d576001600360008773ffffffffffffffffffffffffffffffffffffffff1673ffffffffffffffffffffffffffffffffffffffff168152602001908152602001600020600082825401925050819055505b846002600086815260200190815260200160002060006101000a81548173ffffffffffffffffffffffffffffffffffffffff021916908373ffffffffffffffffffffffffffffffffffffffff160217905550838573ffffffffffffffffffffffffffffffffffffffff168273ffffffffffffffffffffffffffffffffffffffff167fddf252ad1be2c89b69c2b068fc378daa952ba7f163c4a11628f55a4df523b3ef60405160405180910390a4809150509392505050565b600260075403612a71576040517f3ee5aeb500000000000000000000000000000000000000000000000000000000815260040160405180910390fd5b6002600781905550565b600082612a88858461350a565b1490509392505050565b60008060009050600f5483612aa7919061475a565b905080915050919050565b60005b82811015612d7a5760006001601454612ace91906143cf565b9050612ada858261355a565b60146000815480929190612aed90614fe6565b919050555060006004811115612b0657612b0561502e565b5b836004811115612b1957612b1861502e565b5b03612b71578473ffffffffffffffffffffffffffffffffffffffff167fab9980fb1d2916bce9017edd1be458e3f56d0899b3367cb3a8be97483fbe069b82604051612b64919061392c565b60405180910390a2612d6c565b60016004811115612b8557612b8461502e565b5b836004811115612b9857612b9761502e565b5b03612bf0578473ffffffffffffffffffffffffffffffffffffffff167fce77e469b386be007f957632f6f65216f2e74c5daa303aff682e8296f628d01082604051612be3919061392c565b60405180910390a2612d6b565b60026004811115612c0457612c0361502e565b5b836004811115612c1757612c1661502e565b5b03612c6f578473ffffffffffffffffffffffffffffffffffffffff167f3f62d5ee59be75eae7f5e8f2e87cfb92c4fb1e63075f8747f0b3e7fd1f045bd582604051612c62919061392c565b60405180910390a2612d6a565b60036004811115612c8357612c8261502e565b5b836004811115612c9657612c9561502e565b5b03612cee578473ffffffffffffffffffffffffffffffffffffffff167fb50eb0c1f59aa2c3398e720d868b9224179e36125bff674d6df4bae98b2591a582604051612ce1919061392c565b60405180910390a2612d69565b600480811115612d0157612d0061502e565b5b836004811115612d1457612d1361502e565b5b03612d68578473ffffffffffffffffffffffffffffffffffffffff167f8c32c568416fcf97be35ce5b27844cfddcd63a67a1a602c3595ba5dac38f303a82604051612d5f919061392c565b60405180910390a25b5b5b5b5b508080600101915050612ab5565b50505050565b6001600781905550565b6000600660009054906101000a900473ffffffffffffffffffffffffffffffffffffffff16905081600660006101000a81548173ffffffffffffffffffffffffffffffffffffffff021916908373ffffffffffffffffffffffffffffffffffffffff1602179055508173ffffffffffffffffffffffffffffffffffffffff168173ffffffffffffffffffffffffffffffffffffffff167f8be0079c531659141344cd1fd0a4f28419497f9722a3daafe3b4186f6b6457e060405160405180910390a35050565b600073ffffffffffffffffffffffffffffffffffffffff168273ffffffffffffffffffffffffffffffffffffffff1603612ec157816040517f5b08ba18000000000000000000000000000000000000000000000000000000008152600401612eb89190613b21565b60405180910390fd5b80600560008573ffffffffffffffffffffffffffffffffffffffff1673ffffffffffffffffffffffffffffffffffffffff16815260200190815260200160002060008473ffffffffffffffffffffffffffffffffffffffff1673ffffffffffffffffffffffffffffffffffffffff16815260200190815260200160002060006101000a81548160ff0219169083151502179055508173ffffffffffffffffffffffffffffffffffffffff168373ffffffffffffffffffffffffffffffffffffffff167f17307eab39ab6107e8899845ad3d59bd9653f200f220920489ca2b5937696c3183604051612fb291906139fb565b60405180910390a3505050565b60008373ffffffffffffffffffffffffffffffffffffffff163b1115613170578273ffffffffffffffffffffffffffffffffffffffff1663150b7a02613003612801565b8685856040518563ffffffff1660e01b815260040161302594939291906150b2565b6020604051808303816000875af192505050801561306157506040513d601f19601f8201168201806040525081019061305e9190615113565b60015b6130e5573d8060008114613091576040519150601f19603f3d011682016040523d82523d6000602084013e613096565b606091505b5060008151036130dd57836040517f64a0ae920000000000000000000000000000000000000000000000000000000081526004016130d49190613b21565b60405180910390fd5b805181602001fd5b63150b7a0260e01b7bffffffffffffffffffffffffffffffffffffffffffffffffffffffff1916817bffffffffffffffffffffffffffffffffffffffffffffffffffffffff19161461316e57836040517f64a0ae920000000000000000000000000000000000000000000000000000000081526004016131659190613b21565b60405180910390fd5b505b50505050565b60606000600161318584613653565b01905060008167ffffffffffffffff8111156131a4576131a3613d3f565b5b6040519080825280601f01601f1916602001820160405280156131d65781602001600182028036833780820191505090505b509050600082602001820190505b600115613239578080600190039150507f3031323334353637383961626364656600000000000000000000000000000000600a86061a8153600a858161322d5761322c615140565b5b049450600085036131e4575b819350505050919050565b60006002600083815260200190815260200160002060009054906101000a900473ffffffffffffffffffffffffffffffffffffffff169050919050565b80806132ba5750600073ffffffffffffffffffffffffffffffffffffffff168273ffffffffffffffffffffffffffffffffffffffff1614155b156133ee5760006132ca8461273c565b9050600073ffffffffffffffffffffffffffffffffffffffff168373ffffffffffffffffffffffffffffffffffffffff161415801561333557508273ffffffffffffffffffffffffffffffffffffffff168173ffffffffffffffffffffffffffffffffffffffff1614155b8015613348575061334681846122f0565b155b1561338a57826040517fa9fbf51f0000000000000000000000000000000000000000000000000000000081526004016133819190613b21565b60405180910390fd5b81156133ec57838573ffffffffffffffffffffffffffffffffffffffff168273ffffffffffffffffffffffffffffffffffffffff167f8c5be1e5ebec7d5bd14f71427d1e84f3dd0314c0f7b2291e5b200ac8c7c3b92560405160405180910390a45b505b836004600085815260200190815260200160002060006101000a81548173ffffffffffffffffffffffffffffffffffffffff021916908373ffffffffffffffffffffffffffffffffffffffff16021790555050505050565b6134518383836137a6565b61350557600073ffffffffffffffffffffffffffffffffffffffff168373ffffffffffffffffffffffffffffffffffffffff16036134c657806040517f7e2732890000000000000000000000000000000000000000000000000000000081526004016134bd919061392c565b60405180910390fd5b81816040517f177e802f0000000000000000000000000000000000000000000000000000000081526004016134fc929190613903565b60405180910390fd5b505050565b60008082905060005b845181101561354f576135408286838151811061353357613532614b48565b5b6020026020010151613867565b91508080600101915050613513565b508091505092915050565b600073ffffffffffffffffffffffffffffffffffffffff168273ffffffffffffffffffffffffffffffffffffffff16036135cc5760006040517f64a0ae920000000000000000000000000000000000000000000000000000000081526004016135c39190613b21565b60405180910390fd5b60006135da8383600061281b565b9050600073ffffffffffffffffffffffffffffffffffffffff168173ffffffffffffffffffffffffffffffffffffffff161461364e5760006040517f73c6ac6e0000000000000000000000000000000000000000000000000000000081526004016136459190613b21565b60405180910390fd5b505050565b600080600090507a184f03e93ff9f4daa797ed6e38ed64bf6a1f01000000000000000083106136b1577a184f03e93ff9f4daa797ed6e38ed64bf6a1f01000000000000000083816136a7576136a6615140565b5b0492506040810190505b6d04ee2d6d415b85acef810000000083106136ee576d04ee2d6d415b85acef810000000083816136e4576136e3615140565b5b0492506020810190505b662386f26fc10000831061371d57662386f26fc10000838161371357613712615140565b5b0492506010810190505b6305f5e1008310613746576305f5e100838161373c5761373b615140565b5b0492506008810190505b612710831061376b57612710838161376157613760615140565b5b0492506004810190505b6064831061378e576064838161378457613783615140565b5b0492506002810190505b600a831061379d576001810190505b80915050919050565b60008073ffffffffffffffffffffffffffffffffffffffff168373ffffffffffffffffffffffffffffffffffffffff161415801561385e57508273ffffffffffffffffffffffffffffffffffffffff168473ffffffffffffffffffffffffffffffffffffffff16148061381f575061381e84846122f0565b5b8061385d57508273ffffffffffffffffffffffffffffffffffffffff16613845836127c4565b73ffffffffffffffffffffffffffffffffffffffff16145b5b90509392505050565b600081831061387f5761387a8284613892565b61388a565b6138898383613892565b5b905092915050565b600082600052816020526040600020905092915050565b600073ffffffffffffffffffffffffffffffffffffffff82169050919050565b60006138d4826138a9565b9050919050565b6138e4816138c9565b82525050565b6000819050919050565b6138fd816138ea565b82525050565b600060408201905061391860008301856138db565b61392560208301846138f4565b9392505050565b600060208201905061394160008301846138f4565b92915050565b6000604051905090565b600080fd5b600080fd5b60007fffffffff0000000000000000000000000000000000000000000000000000000082169050919050565b6139908161395b565b811461399b57600080fd5b50565b6000813590506139ad81613987565b92915050565b6000602082840312156139c9576139c8613951565b5b60006139d78482850161399e565b91505092915050565b60008115159050919050565b6139f5816139e0565b82525050565b6000602082019050613a1060008301846139ec565b92915050565b600081519050919050565b600082825260208201905092915050565b60005b83811015613a50578082015181840152602081019050613a35565b60008484015250505050565b6000601f19601f8301169050919050565b6000613a7882613a16565b613a828185613a21565b9350613a92818560208601613a32565b613a9b81613a5c565b840191505092915050565b60006020820190508181036000830152613ac08184613a6d565b905092915050565b613ad1816138ea565b8114613adc57600080fd5b50565b600081359050613aee81613ac8565b92915050565b600060208284031215613b0a57613b09613951565b5b6000613b1884828501613adf565b91505092915050565b6000602082019050613b3660008301846138db565b92915050565b613b45816138c9565b8114613b5057600080fd5b50565b600081359050613b6281613b3c565b92915050565b60008060408385031215613b7f57613b7e613951565b5b6000613b8d85828601613b53565b9250506020613b9e85828601613adf565b9150509250929050565b600080600060608486031215613bc157613bc0613951565b5b6000613bcf86828701613b53565b9350506020613be086828701613b53565b9250506040613bf186828701613adf565b9150509250925092565b600080fd5b600080fd5b600080fd5b60008083601f840112613c2057613c1f613bfb565b5b8235905067ffffffffffffffff811115613c3d57613c3c613c00565b5b602083019150836020820283011115613c5957613c58613c05565b5b9250929050565b600080600060408486031215613c7957613c78613951565b5b600084013567ffffffffffffffff811115613c9757613c96613956565b5b613ca386828701613c0a565b93509350506020613cb686828701613adf565b9150509250925092565b600060208284031215613cd657613cd5613951565b5b6000613ce484828501613b53565b91505092915050565b60008060208385031215613d0457613d03613951565b5b600083013567ffffffffffffffff811115613d2257613d21613956565b5b613d2e85828601613c0a565b92509250509250929050565b600080fd5b7f4e487b7100000000000000000000000000000000000000000000000000000000600052604160045260246000fd5b613d7782613a5c565b810181811067ffffffffffffffff82111715613d9657613d95613d3f565b5b80604052505050565b6000613da9613947565b9050613db58282613d6e565b919050565b600067ffffffffffffffff821115613dd557613dd4613d3f565b5b613dde82613a5c565b9050602081019050919050565b82818337600083830152505050565b6000613e0d613e0884613dba565b613d9f565b905082815260208101848484011115613e2957613e28613d3a565b5b613e34848285613deb565b509392505050565b600082601f830112613e5157613e50613bfb565b5b8135613e61848260208601613dfa565b91505092915050565b600060208284031215613e8057613e7f613951565b5b600082013567ffffffffffffffff811115613e9e57613e9d613956565b5b613eaa84828501613e3c565b91505092915050565b6000819050919050565b613ec681613eb3565b82525050565b6000602082019050613ee16000830184613ebd565b92915050565b60008083601f840112613efd57613efc613bfb565b5b8235905067ffffffffffffffff811115613f1a57613f19613c00565b5b602083019150836020820283011115613f3657613f35613c05565b5b9250929050565b60008060208385031215613f5457613f53613951565b5b600083013567ffffffffffffffff811115613f7257613f71613956565b5b613f7e85828601613ee7565b92509250509250929050565b613f9381613eb3565b8114613f9e57600080fd5b50565b600081359050613fb081613f8a565b92915050565b600060208284031215613fcc57613fcb613951565b5b6000613fda84828501613fa1565b91505092915050565b613fec816139e0565b8114613ff757600080fd5b50565b60008135905061400981613fe3565b92915050565b6000806040838503121561402657614025613951565b5b600061403485828601613b53565b925050602061404585828601613ffa565b9150509250929050565b600067ffffffffffffffff82111561406a57614069613d3f565b5b61407382613a5c565b9050602081019050919050565b600061409361408e8461404f565b613d9f565b9050828152602081018484840111156140af576140ae613d3a565b5b6140ba848285613deb565b509392505050565b600082601f8301126140d7576140d6613bfb565b5b81356140e7848260208601614080565b91505092915050565b6000806000806080858703121561410a57614109613951565b5b600061411887828801613b53565b945050602061412987828801613b53565b935050604061413a87828801613adf565b925050606085013567ffffffffffffffff81111561415b5761415a613956565b5b614167878288016140c2565b91505092959194509250565b6000806040838503121561418a57614189613951565b5b600061419885828601613b53565b92505060206141a985828601613b53565b9150509250929050565b60006141be826138a9565b9050919050565b6141ce816141b3565b81146141d957600080fd5b50565b6000813590506141eb816141c5565b92915050565b6000806040838503121561420857614207613951565b5b6000614216858286016141dc565b925050602061422785828601613adf565b9150509250929050565b7f4e487b7100000000000000000000000000000000000000000000000000000000600052602260045260246000fd5b6000600282049050600182168061427857607f821691505b60208210810361428b5761428a614231565b5b50919050565b60006060820190506142a660008301866138db565b6142b360208301856138f4565b6142c060408301846138db565b949350505050565b7f436f6e7472616374206973207061757365640000000000000000000000000000600082015250565b60006142fe601283613a21565b9150614309826142c8565b602082019050919050565b6000602082019050818103600083015261432d816142f1565b9050919050565b7f57686974656c6973742073616c65206973206e6f74206f70656e000000000000600082015250565b600061436a601a83613a21565b915061437582614334565b602082019050919050565b600060208201905081810360008301526143998161435d565b9050919050565b7f4e487b7100000000000000000000000000000000000000000000000000000000600052601160045260246000fd5b60006143da826138ea565b91506143e5836138ea565b92508282019050808211156143fd576143fc6143a0565b5b92915050565b7f45786365656473206d617820737570706c790000000000000000000000000000600082015250565b6000614439601283613a21565b915061444482614403565b602082019050919050565b600060208201905081810360008301526144688161442c565b9050919050565b7f43616e6e6f74206d696e74206d6f7265207468616e20616c6c6f776564000000600082015250565b60006144a5601d83613a21565b91506144b08261446f565b602082019050919050565b600060208201905081810360008301526144d481614498565b9050919050565b7f4578636565647320574c206c696d697400000000000000000000000000000000600082015250565b6000614511601083613a21565b915061451c826144db565b602082019050919050565b6000602082019050818103600083015261454081614504565b9050919050565b60008160601b9050919050565b600061455f82614547565b9050919050565b600061457182614554565b9050919050565b614589614584826138c9565b614566565b82525050565b600061459b8284614578565b60148201915081905092915050565b7f496e76616c696420416464726573733a20574c2047726f757000000000000000600082015250565b60006145e0601983613a21565b91506145eb826145aa565b602082019050919050565b6000602082019050818103600083015261460f816145d3565b9050919050565b7f496e636f7272656374204554482076616c75652073656e740000000000000000600082015250565b600061464c601883613a21565b915061465782614616565b602082019050919050565b6000602082019050818103600083015261467b8161463f565b9050919050565b7f5075626c69632073616c65206973206e6f74206f70656e000000000000000000600082015250565b60006146b8601783613a21565b91506146c382614682565b602082019050919050565b600060208201905081810360008301526146e7816146ab565b9050919050565b7f4d757374206d696e74206174206c65617374206f6e6520746f6b656e00000000600082015250565b6000614724601c83613a21565b915061472f826146ee565b602082019050919050565b6000602082019050818103600083015261475381614717565b9050919050565b6000614765826138ea565b9150614770836138ea565b925082820261477e816138ea565b91508282048414831517614795576147946143a0565b5b5092915050565b7f4d696e74696e6720776f756c6420657863656564206d617820737570706c7900600082015250565b60006147d2601f83613a21565b91506147dd8261479c565b602082019050919050565b60006020820190508181036000830152614801816147c5565b9050919050565b7f4f776e65722063616e206f6e6c79206d696e7420757020746f20323020746f6b60008201527f656e7320617420612074696d6500000000000000000000000000000000000000602082015250565b6000614864602d83613a21565b915061486f82614808565b604082019050919050565b6000602082019050818103600083015261489381614857565b9050919050565b60008190508160005260206000209050919050565b60006020601f8301049050919050565b600082821b905092915050565b6000600883026148fc7fffffffffffffffffffffffffffffffffffffffffffffffffffffffffffffffff826148bf565b61490686836148bf565b95508019841693508086168417925050509392505050565b6000819050919050565b600061494361493e614939846138ea565b61491e565b6138ea565b9050919050565b6000819050919050565b61495d83614928565b6149716149698261494a565b8484546148cc565b825550505050565b600090565b614986614979565b614991818484614954565b505050565b5b818110156149b5576149aa60008261497e565b600181019050614997565b5050565b601f8211156149fa576149cb8161489a565b6149d4846148af565b810160208510156149e3578190505b6149f76149ef856148af565b830182614996565b50505b505050565b600082821c905092915050565b6000614a1d600019846008026149ff565b1980831691505092915050565b6000614a368383614a0c565b9150826002028217905092915050565b614a4f82613a16565b67ffffffffffffffff811115614a6857614a67613d3f565b5b614a728254614260565b614a7d8282856149b9565b600060209050601f831160018114614ab05760008415614a9e578287015190505b614aa88582614a2a565b865550614b10565b601f198416614abe8661489a565b60005b82811015614ae657848901518255600182019150602085019450602081019050614ac1565b86831015614b035784890151614aff601f891682614a0c565b8355505b6001600288020188555050505b505050505050565b60006040820190508181036000830152614b328185613a6d565b9050614b4160208301846138db565b9392505050565b7f4e487b7100000000000000000000000000000000000000000000000000000000600052603260045260246000fd5b7f464346532073616c65206973206e6f74206f70656e0000000000000000000000600082015250565b6000614bad601583613a21565b9150614bb882614b77565b602082019050919050565b60006020820190508181036000830152614bdc81614ba0565b9050919050565b7f457863656564732046434653206c696d69740000000000000000000000000000600082015250565b6000614c19601283613a21565b9150614c2482614be3565b602082019050919050565b60006020820190508181036000830152614c4881614c0c565b9050919050565b7f496e76616c696420416464726573733a20464346532047726f75700000000000600082015250565b6000614c85601b83613a21565b9150614c9082614c4f565b602082019050919050565b60006020820190508181036000830152614cb481614c78565b9050919050565b600081905092915050565b6000614cd182613a16565b614cdb8185614cbb565b9350614ceb818560208601613a32565b80840191505092915050565b7f2e6a736f6e000000000000000000000000000000000000000000000000000000600082015250565b6000614d2d600583614cbb565b9150614d3882614cf7565b600582019050919050565b6000614d4f8285614cc6565b9150614d5b8284614cc6565b9150614d6682614d20565b91508190509392505050565b7f496e76616c6964207769746864726177616c2061646472657373000000000000600082015250565b6000614da8601a83613a21565b9150614db382614d72565b602082019050919050565b60006020820190508181036000830152614dd781614d9b565b9050919050565b7f416d6f756e74206d7573742062652067726561746572207468616e2030000000600082015250565b6000614e14601d83613a21565b9150614e1f82614dde565b602082019050919050565b60006020820190508181036000830152614e4381614e07565b9050919050565b7f496e73756666696369656e7420636f6e74726163742062616c616e6365000000600082015250565b6000614e80601d83613a21565b9150614e8b82614e4a565b602082019050919050565b60006020820190508181036000830152614eaf81614e73565b9050919050565b600081905092915050565b50565b6000614ed1600083614eb6565b9150614edc82614ec1565b600082019050919050565b6000614ef282614ec4565b9150819050919050565b7f4661696c656420746f2073656e64204574686572000000000000000000000000600082015250565b6000614f32601483613a21565b9150614f3d82614efc565b602082019050919050565b60006020820190508181036000830152614f6181614f25565b9050919050565b6000614f83614f7e614f79846138a9565b61491e565b6138a9565b9050919050565b6000614f9582614f68565b9050919050565b6000614fa782614f8a565b9050919050565b614fb781614f9c565b82525050565b6000604082019050614fd260008301856138f4565b614fdf6020830184614fae565b9392505050565b6000614ff1826138ea565b91507fffffffffffffffffffffffffffffffffffffffffffffffffffffffffffffffff8203615023576150226143a0565b5b600182019050919050565b7f4e487b7100000000000000000000000000000000000000000000000000000000600052602160045260246000fd5b600081519050919050565b600082825260208201905092915050565b60006150848261505d565b61508e8185615068565b935061509e818560208601613a32565b6150a781613a5c565b840191505092915050565b60006080820190506150c760008301876138db565b6150d460208301866138db565b6150e160408301856138f4565b81810360608301526150f38184615079565b905095945050505050565b60008151905061510d81613987565b92915050565b60006020828403121561512957615128613951565b5b6000615137848285016150fe565b91505092915050565b7f4e487b7100000000000000000000000000000000000000000000000000000000600052601260045260246000fdfea26469706673582212208674c728144123138e12c7b68598641f7f3a2100e8eb0ce36f4f608bfcb0a3f464736f6c634300081a003368747470733a2f2f617277656176652e6e65742f4e77767757555a7872516c384b526f666e473354713957415634554a4330796c464b76396947575574596b2f",
  "devdoc": {
    "errors": {
      "ERC721IncorrectOwner(address,uint256,address)": [
        {
          "details": "Indicates an error related to the ownership over a particular token. Used in transfers.",
          "params": {
            "owner": "Address of the current owner of a token.",
            "sender": "Address whose tokens are being transferred.",
            "tokenId": "Identifier number of a token."
          }
        }
      ],
      "ERC721InsufficientApproval(address,uint256)": [
        {
          "details": "Indicates a failure with the `operator`s approval. Used in transfers.",
          "params": {
            "operator": "Address that may be allowed to operate on tokens without being their owner.",
            "tokenId": "Identifier number of a token."
          }
        }
      ],
      "ERC721InvalidApprover(address)": [
        {
          "details": "Indicates a failure with the `approver` of a token to be approved. Used in approvals.",
          "params": {
            "approver": "Address initiating an approval operation."
          }
        }
      ],
      "ERC721InvalidOperator(address)": [
        {
          "details": "Indicates a failure with the `operator` to be approved. Used in approvals.",
          "params": {
            "operator": "Address that may be allowed to operate on tokens without being their owner."
          }
        }
      ],
      "ERC721InvalidOwner(address)": [
        {
          "details": "Indicates that an address can't be an owner. For example, `address(0)` is a forbidden owner in EIP-20. Used in balance queries.",
          "params": {
            "owner": "Address of the current owner of a token."
          }
        }
      ],
      "ERC721InvalidReceiver(address)": [
        {
          "details": "Indicates a failure with the token `receiver`. Used in transfers.",
          "params": {
            "receiver": "Address to which tokens are being transferred."
          }
        }
      ],
      "ERC721InvalidSender(address)": [
        {
          "details": "Indicates a failure with the token `sender`. Used in transfers.",
          "params": {
            "sender": "Address whose tokens are being transferred."
          }
        }
      ],
      "ERC721NonexistentToken(uint256)": [
        {
          "details": "Indicates a `tokenId` whose `owner` is the zero address.",
          "params": {
            "tokenId": "Identifier number of a token."
          }
        }
      ],
      "OwnableInvalidOwner(address)": [
        {
          "details": "The owner is not a valid owner account. (eg. `address(0)`)"
        }
      ],
      "OwnableUnauthorizedAccount(address)": [
        {
          "details": "The caller account is not authorized to perform an operation."
        }
      ],
      "ReentrancyGuardReentrantCall()": [
        {
          "details": "Unauthorized reentrant call."
        }
      ]
    },
    "events": {
      "Approval(address,address,uint256)": {
        "details": "Emitted when `owner` enables `approved` to manage the `tokenId` token."
      },
      "ApprovalForAll(address,address,bool)": {
        "details": "Emitted when `owner` enables or disables (`approved`) `operator` to manage all of its assets."
      },
      "Transfer(address,address,uint256)": {
        "details": "Emitted when `tokenId` token is transferred from `from` to `to`."
      }
    },
    "kind": "dev",
    "methods": {
      "approve(address,uint256)": {
        "details": "See {IERC721-approve}."
      },
      "balanceOf(address)": {
        "details": "See {IERC721-balanceOf}."
      },
      "getApproved(uint256)": {
        "details": "See {IERC721-getApproved}."
      },
      "isApprovedForAll(address,address)": {
        "details": "See {IERC721-isApprovedForAll}."
      },
      "name()": {
        "details": "See {IERC721Metadata-name}."
      },
      "owner()": {
        "details": "Returns the address of the current owner."
      },
      "ownerOf(uint256)": {
        "details": "See {IERC721-ownerOf}."
      },
      "renounceOwnership()": {
        "details": "Leaves the contract without owner. It will not be possible to call `onlyOwner` functions. Can only be called by the current owner. NOTE: Renouncing ownership will leave the contract without an owner, thereby disabling any functionality that is only available to the owner."
      },
      "safeTransferFrom(address,address,uint256)": {
        "details": "See {IERC721-safeTransferFrom}."
      },
      "safeTransferFrom(address,address,uint256,bytes)": {
        "details": "See {IERC721-safeTransferFrom}."
      },
      "setApprovalForAll(address,bool)": {
        "details": "See {IERC721-setApprovalForAll}."
      },
      "supportsInterface(bytes4)": {
        "details": "See {IERC165-supportsInterface}."
      },
      "symbol()": {
        "details": "See {IERC721Metadata-symbol}."
      },
      "tokenURI(uint256)": {
        "details": "See {IERC721Metadata-tokenURI}."
      },
      "transferFrom(address,address,uint256)": {
        "details": "See {IERC721-transferFrom}."
      },
      "transferOwnership(address)": {
        "details": "Transfers ownership of the contract to a new account (`newOwner`). Can only be called by the current owner."
      }
    },
    "version": 1
  },
  "userdoc": {
    "kind": "user",
    "methods": {},
    "version": 1
  },
  "storageLayout": {
    "storage": [
      {
        "astId": 317,
        "contract": "contracts/Hoomans.sol:Hoomans",
        "label": "_name",
        "offset": 0,
        "slot": "0",
        "type": "t_string_storage"
      },
      {
        "astId": 319,
        "contract": "contracts/Hoomans.sol:Hoomans",
        "label": "_symbol",
        "offset": 0,
        "slot": "1",
        "type": "t_string_storage"
      },
      {
        "astId": 323,
        "contract": "contracts/Hoomans.sol:Hoomans",
        "label": "_owners",
        "offset": 0,
        "slot": "2",
        "type": "t_mapping(t_uint256,t_address)"
      },
      {
        "astId": 327,
        "contract": "contracts/Hoomans.sol:Hoomans",
        "label": "_balances",
        "offset": 0,
        "slot": "3",
        "type": "t_mapping(t_address,t_uint256)"
      },
      {
        "astId": 331,
        "contract": "contracts/Hoomans.sol:Hoomans",
        "label": "_tokenApprovals",
        "offset": 0,
        "slot": "4",
        "type": "t_mapping(t_uint256,t_address)"
      },
      {
        "astId": 337,
        "contract": "contracts/Hoomans.sol:Hoomans",
        "label": "_operatorApprovals",
        "offset": 0,
        "slot": "5",
        "type": "t_mapping(t_address,t_mapping(t_address,t_bool))"
      },
      {
        "astId": 8,
        "contract": "contracts/Hoomans.sol:Hoomans",
        "label": "_owner",
        "offset": 0,
        "slot": "6",
        "type": "t_address"
      },
      {
        "astId": 1497,
        "contract": "contracts/Hoomans.sol:Hoomans",
        "label": "_status",
        "offset": 0,
        "slot": "7",
        "type": "t_uint256"
      },
      {
        "astId": 3556,
        "contract": "contracts/Hoomans.sol:Hoomans",
        "label": "wlMerkleRoot",
        "offset": 0,
        "slot": "8",
        "type": "t_bytes32"
      },
      {
        "astId": 3558,
        "contract": "contracts/Hoomans.sol:Hoomans",
        "label": "fcfsMerkleRoot",
        "offset": 0,
        "slot": "9",
        "type": "t_bytes32"
      },
      {
        "astId": 3562,
        "contract": "contracts/Hoomans.sol:Hoomans",
        "label": "wlMintedCount",
        "offset": 0,
        "slot": "10",
        "type": "t_mapping(t_address,t_uint256)"
      },
      {
        "astId": 3566,
        "contract": "contracts/Hoomans.sol:Hoomans",
        "label": "fcfsMintedCount",
        "offset": 0,
        "slot": "11",
        "type": "t_mapping(t_address,t_uint256)"
      },
      {
        "astId": 3570,
        "contract": "contracts/Hoomans.sol:Hoomans",
        "label": "publicMintedCount",
        "offset": 0,
        "slot": "12",
        "type": "t_mapping(t_address,t_uint256)"
      },
      {
        "astId": 3572,
        "contract": "contracts/Hoomans.sol:Hoomans",
        "label": "revealedBaseURI",
        "offset": 0,
        "slot": "13",
        "type": "t_string_storage"
      },
      {
        "astId": 3574,
        "contract": "contracts/Hoomans.sol:Hoomans",
        "label": "unrevealedURI",
        "offset": 0,
        "slot": "14",
        "type": "t_string_storage"
      },
      {
        "astId": 3577,
        "contract": "contracts/Hoomans.sol:Hoomans",
        "label": "wlMintPrice",
        "offset": 0,
        "slot": "15",
        "type": "t_uint256"
      },
      {
        "astId": 3580,
        "contract": "contracts/Hoomans.sol:Hoomans",
        "label": "publicMintPrice",
        "offset": 0,
        "slot": "16",
        "type": "t_uint256"
      },
      {
        "astId": 3598,
        "contract": "contracts/Hoomans.sol:Hoomans",
        "label": "wlMinted",
        "offset": 0,
        "slot": "17",
        "type": "t_uint256"
      },
      {
        "astId": 3601,
        "contract": "contracts/Hoomans.sol:Hoomans",
        "label": "fcfsMinted",
        "offset": 0,
        "slot": "18",
        "type": "t_uint256"
      },
      {
        "astId": 3604,
        "contract": "contracts/Hoomans.sol:Hoomans",
        "label": "publicMinted",
        "offset": 0,
        "slot": "19",
        "type": "t_uint256"
      },
      {
        "astId": 3607,
        "contract": "contracts/Hoomans.sol:Hoomans",
        "label": "totalMinted",
        "offset": 0,
        "slot": "20",
        "type": "t_uint256"
      },
      {
        "astId": 3610,
        "contract": "contracts/Hoomans.sol:Hoomans",
        "label": "isPaused",
        "offset": 0,
        "slot": "21",
        "type": "t_bool"
      },
      {
        "astId": 3613,
        "contract": "contracts/Hoomans.sol:Hoomans",
        "label": "revealed",
        "offset": 1,
        "slot": "21",
        "type": "t_bool"
      },
      {
        "astId": 3616,
        "contract": "contracts/Hoomans.sol:Hoomans",
        "label": "whitelistOpen",
        "offset": 2,
        "slot": "21",
        "type": "t_bool"
      },
      {
        "astId": 3619,
        "contract": "contracts/Hoomans.sol:Hoomans",
        "label": "fcfsOpen",
        "offset": 3,
        "slot": "21",
        "type": "t_bool"
      },
      {
        "astId": 3622,
        "contract": "contracts/Hoomans.sol:Hoomans",
        "label": "publicOpen",
        "offset": 4,
        "slot": "21",
        "type": "t_bool"
      }
    ],
    "types": {
      "t_address": {
        "encoding": "inplace",
        "label": "address",
        "numberOfBytes": "20"
      },
      "t_bool": {
        "encoding": "inplace",
        "label": "bool",
        "numberOfBytes": "1"
      },
      "t_bytes32": {
        "encoding": "inplace",
        "label": "bytes32",
        "numberOfBytes": "32"
      },
      "t_mapping(t_address,t_bool)": {
        "encoding": "mapping",
        "key": "t_address",
        "label": "mapping(address => bool)",
        "numberOfBytes": "32",
        "value": "t_bool"
      },
      "t_mapping(t_address,t_mapping(t_address,t_bool))": {
        "encoding": "mapping",
        "key": "t_address",
        "label": "mapping(address => mapping(address => bool))",
        "numberOfBytes": "32",
        "value": "t_mapping(t_address,t_bool)"
      },
      "t_mapping(t_address,t_uint256)": {
        "encoding": "mapping",
        "key": "t_address",
        "label": "mapping(address => uint256)",
        "numberOfBytes": "32",
        "value": "t_uint256"
      },
      "t_mapping(t_uint256,t_address)": {
        "encoding": "mapping",
        "key": "t_uint256",
        "label": "mapping(uint256 => address)",
        "numberOfBytes": "32",
        "value": "t_address"
      },
      "t_string_storage": {
        "encoding": "bytes",
        "label": "string",
        "numberOfBytes": "32"
      },
      "t_uint256": {
        "encoding": "inplace",
        "label": "uint256",
        "numberOfBytes": "32"
      }
    }
  }
}